:020000040800F2
:1000000060500020650200080D1B0008051B000859
:10001000091B0008291A00083F25000800000000FD
:10002000000000000000000000000000311E000879
:100030002D1A000800000000E51C0008491F0008F8
:100040007F0200087F0200087F0200087F0200088C
:100050007F0200087F0200087F0200087F0200087C
:100060007F0200087F0200087F0200087F0200086C
:100070007F0200087F0200087F0200087F0200085C
:100080007F0200087F0200087F0200087F0200084C
:100090007F0200087F0200087F0200087F0200083C
:1000A0007F0200087F0200087F0200087F0200082C
:1000B0007F0200087F0200087F0200087F0200081C
:1000C0007F0200087F0200087F0200087F0200080C
:1000D0007F02000809200008C920000855220008F6
:1000E0007F0200087F0200087F0200087F020008EC
:1000F0007F0200087F0200087F0200087F020008DC
:100100007F0200087F0200087F0200087F020008CB
:10011000B51F0008E11F00087F0200087F020008E9
:100120007F0200087F0200087F0200087F020008AB
:100130007F0200087F0200087F0200087F0200089B
:100140007F0200087F0200087F0200087F0200088B
:100150007F0200087F0200087F0200087F0200087B
:100160007F0200087F0200087F0200087F0200086B
:100170007F0200087F0200087F0200087F0200085B
:100180007F0200087F02000800F002F800F05BF830
:100190000AA090E8000C82448344AAF10107DA45E2
:1001A00001D100F050F8AFF2090EBAE80F0013F0D9
:1001B000010F18BFFB1A43F001031847406A000003
:1001C000606A0000103A24BF78C878C1FAD8520794
:1001D00024BF30C830C144BF04680C6070470000C1
:1001E0000023002400250026103A28BF78C1FBD840
:1001F000520728BF30C148BF0B607047662906F020
:100200000883652906F00583642900F0C9807829F0
:1002100000F00281732900F0C685002070471FB5E9
:1002200006F0F2FA00F00CFE04000020002105F0B8
:1002300027FD401C60600020002105F037FDE060D4
:100240001FBD10B510BD00F0FBFE1146FFF7E7FF24
:1002500004F0A2FA00F019FF03B4FFF7F2FF03BCA9
:1002600003F011F90948804709480047FEE7FEE717
:10027000FEE7FEE7FEE7FEE7FEE7FEE7FEE7FEE756
:1002800004480549054A064B704700004D1F000809
:1002900089010008604A002060500020604C002066
:1002A000604C0020704710B5044600F0D3FA006897
:1002B000005DC00602D504F1200010BD204610BD2F
:1002C0000FB4044910B503AA029800F071FD10BCE8
:1002D0005DF814FB040000200FB41CB5074B06AA00
:1002E0007B4469460090059800F033FD0020694684
:1002F00000F042FD1CBC5DF814FB0000950A0000F4
:1003000070B5044685690068C10601D5302600E055
:100310002026C00707D070BDD4E9012130469047A0
:10032000206A401C20626D1EF6D570BD70B5044673
:1003300085690078C00707D170BDD4E9012120206C
:100340009047206A401C20626D1EF6D570BD70B5C6
:100350000C460546012A05D02878800600D5EA69B2
:10036000002302E0012305E05B1C934202D2E05C23
:100370000028F9D1A869E618C01AA861286A1844AB
:1003800028622846FFF7BCFF04E0D5E9012114F8F4
:10039000010B9047B442F8D32846FFF7C7FF70BD62
:1003A0002DE9F0410646002410687529314616A54E
:1003B00010D0AFF30080002802DA404213A507E016
:1003C00031688A0701D512A502E0490704D511A5B5
:1003D000012401E0AFF3008000210A2206F1240786
:1003E00009E0B0FBF2FCB0FBF2F302FB1C00303082
:1003F00078541846491C0028F3D123462A46304633
:10040000BDE8F04100F039BA000000002D00000006
:100410002B0000002000000070B504460D46214668
:100420001068AFF300802188090502D50F4A7A448D
:1004300002E00E4A7A440E32002104F1240305E062
:1004400000F00F060009965D5E54491C0028F7D1A4
:1004500020780023000704D5702D02D009B10223B3
:1004600011322046BDE8704000F007BADB6500009D
:100470002DE9F05F894604464FF0000ADFF824B109
:10048000FB44C0F820A02046E168884700287DD0C2
:10049000252806D0D4E901219047206A401C20621B
:1004A000F1E700255F462046E16888472028064698
:1004B00007DB312E05D2B81910F8200C08B105431E
:1004C000F1E7A80701D525F00405C4F81CA0002712
:1004D000C4F818A02A2E09D0304602F0CDFF38B358
:1004E00004EB8708303EC8F8186019E059F8041B7F
:1004F000204604EB87029161E1688847012F064698
:1005000018D1E069002820DA25F020051DE0D8F890
:10051000180000EB800006EB40003038C8F81800E7
:100520002046E1688847064602F0A6FF0028EED183
:10053000012F0AD02E2E08D12046E16888477F1C63
:100540000646022F45F02005C4DBA069002803DA27
:10055000404245F00105A061E80701D025F01005F3
:10056000A6B1A6F14100192802D8203645F400654D
:100570004A463146204625604D46FFF73FFE60B1B2
:10058000012807D0ED1D25F0070000E007E000F18D
:10059000080978E705F1040975E730467AE7206A2B
:1005A000BDE8F09FB1650000401ECAB210F8011FFF
:1005B0008A4202D00029F9D10020704740EA0103A5
:1005C000024630B59B0710D14FF0013400E008C25D
:1005D00008C91D1B9D4315EAC41FF8D013F0FF0185
:1005E00002F8011B0DD01B0AF8E711F8013B002BA4
:1005F00002F8013B05D011F8013B002B02F8013B4A
:10060000F3D130BD10B5431C02E010F8011B71B1ED
:100610008107FAD14FF0013202C88C1A8C4314EAD8
:10062000C211F9D0C01A0A0603D0C01E10BDC01AEC
:1006300010BD0A0401D0801E10BD0902FCD0401E6E
:1006400010BD40EA010370B59B072ED14FF0013673
:10065000042A2AD308C810C99D1B9D43121F15EAFE
:10066000C61517D0D8B2E1B2401A50EA056110D1D0
:1006700098B2A1B2401A50EA05410AD123F07F4056
:1006800024F07F41401A50EA052102D1180EA0EB58
:10069000146070BDA342DBD018BA21BA884201D9D8
:1006A000012070BD4FF0FF3070BD0AB9002070BD51
:1006B00010F8013B11F8014B63B1A3420AD1521E5D
:1006C00008D010F8013B11F8014B1BB1A34201D136
:1006D000521EEDD1181B70BD032A40F2308010F07D
:1006E000030C00F0158011F8013BBCF1020F6244CD
:1006F00098BF11F801CB00F8013B38BF11F8013B5E
:10070000A2F1040298BF00F801CB38BF00F8013B0A
:1007100011F0030300F05E83083AC0F0088051F83E
:10072000043B083A51F804CBA0E80810F5E7121D85
:100730005CBF51F8043B40F8043BAFF30080D207A4
:1007400024BF11F8013B11F801CB48BF11F8012B70
:1007500024BF00F8013B00F801CB48BF00F8012B93
:1007600070474FF000020429C0F0128010F0030C13
:1007700000F01B80CCF1040CBCF1020F18BF00F894
:10078000012BA8BF20F8022BA1EB0C0100F00DB843
:100790005FEAC17C24BF00F8012B00F8012B48BFA1
:1007A00000F8012B70474FF0000200B51346944645
:1007B0009646203922BFA0E80C50A0E80C50B1F1B9
:1007C0002001BFF4F7AF090728BFA0E80C5048BFCD
:1007D0000CC05DF804EB890028BF40F8042B08BF6B
:1007E000704748BF20F8022B11F0804F18BF00F867
:1007F000012B704710B5044610F0030F08BF11F02D
:10080000030F40F015804FF0013E121FC0F20E8022
:1008100051F8043BA3EB0E0C2CEA030C1CEACE1C93
:1008200008BF40F8043BF0D0A1F1040102F104023A
:10083000521E08DB11F8013B002B00F8013BF7D1F9
:100840001146FFF78EFF204610BD70477047704776
:100850007047000010B500F0F3FA001D10BD00BF96
:100860002154000010B500F0EFFA006810BD10B57B
:10087000044600F0E9FA046010BD2DE9F0470D468A
:1008800099469246044600F124080168880604D57A
:10089000E06921F01001216000E00120A84201DDA3
:1008A000471B00E00027A1697A1902EB0900081A2A
:1008B000A0612078C00602D42046FFF721FD002663
:1008C00008E0D4E901211AF806009047206A401C8C
:1008D000761C20624E45F4DB2078C0060AD52046FF
:1008E000FFF70EFD06E0D4E9012130209047206A91
:1008F000401C2062381EA7F10107F4DC07E0D4E9B0
:10090000012118F805009047206A401C2062281E2B
:10091000A5F10105F3DC2046FFF708FD207800066D
:1009200002D50220BDE8F0870120FBE770472DE9E2
:10093000FF4F0C461E464FF0FF378BB0D2E9000147
:10094000DDF860800A908A46C1F30A5505B93D4634
:10095000002108464FF00000BAF1000F00F44000FB
:1009600005DA00EB80004FF4400101EA50004FEA45
:100970009059B9F1010F00DDB9460A9850EA4A00D2
:100980000ED044F61050A5F2FF3545432F14B8F1B0
:10099000000F1ED07542291E1EDDC9F100021CE0A9
:1009A000B8F1010F4FF0000001D0302103E0F24315
:1009B00005E02154401CB042FBDB30460022002100
:1009C00021540B99C1F80880C1E900200FB0BDE89F
:1009D000F08FBD1B6D1CDEE74A4600DA694206A8AF
:1009E00000F0BCFA06AB93E8070003AB83E807000E
:1009F00050460A9900F090FB8DE80700A0F50050E2
:100A00001F3800900398002D09DD42F21F014A466D
:100A1000084403A90390684600F0EFFD08E0A0F544
:100A200000504A461F3803A90390684600F0F9FDBC
:100A30008DE807000004000C03D04FF0FF304108A0
:100A400000E01046B8F1000F03D0002200921546D6
:100A50001EE0751E05D400F0FBF9303262556D1EA4
:100A6000F9D5B3460122084302D000227F1C04E0DE
:100A70002078302801D100227F1E002A099786D0D5
:100A80001DE0112D07DA00F0E3F9303262556D1CDC
:100A900050EA0102F5D1084302D00098C8B10EE037
:100AA0000021681E05E0235C625C63542254401EF2
:100AB000491C8142F7DBAB46A81B401E0990002071
:100AC00004F80B000B98099AC0F80880C0E9002BC5
:100AD0007CE711264FF0000859E72DE9F04F8846D2
:100AE0000446D21D22F0070191B0D1E90001CDE901
:100AF0000A0101F026FD02460B98C00F01D02D20FF
:100B000007E02068810701D52B2002E0202101EABF
:100B1000C000032A099001D0072A05DB034641469D
:100B2000204600F0DBF90BE12078800601D5E06972
:100B300000E00620B8F1650F814606D0B8F1660FD7
:100B400018D0B8F1670F70D131E00020B9F1110F62
:100B5000009001DB112301E009F101030AAA01A9B8
:100B60000CA8FFF7E4FEDDE90C70002609F1010591
:100B7000834647E001204B4600904FF000470AAA09
:100B800001A90CA8FFF7D3FEDDE90DB00C995D4675
:100B9000002610B909F101000D18B9EB050003D4C6
:100BA000C0F1FF3609F10105A5EB09002BE0B9F111
:100BB000010F01DA4FF001090020B9F1110F009087
:100BC000484601DD112300E003460AAA01A90CA84A
:100BD000FFF7ADFEDDE90C704D4600268346207818
:100BE00000070AD4AB4500DA5D4601A8012D04DDFB
:100BF000411911F8011C302907D04F4502DA17F1CD
:100C0000040F04DA012082460FE06D1EEEE7002F8C
:100C100002DCED1B3E4403E0781CA84200DD7D1C95
:100C2000B81B00F1010A4FF000472078000703D4F9
:100C3000AA4501DB4FF0FF3A0021B7F1004F0DF15B
:100C400043088DF8431024D002202B23002F01DA13
:100C50007F422D230A21021EA0F1010000DC5FB1BA
:100C600097FBF1FC97FBF1F201FB1C7C17460CF1A2
:100C7000300C08F801CDEEE7A8F1010003702188DF
:100C8000090501D5452100E06521A0F1010800F822
:100C9000011C09980FA9A1EB0807FF1D00B1012055
:100CA000411901EBEA70A1693844081A401EA0619D
:100CB0002078C00602D42046FFF722FB099828B10D
:100CC000D4E901219047206A401C20622078C006A8
:100CD00022D52046FFF714FB1EE0002E04DBB345AF
:100CE00002DD01A8805D00E03020D4E901219047B9
:100CF000206A401C2062761CAAF101005FEA000A0B
:100D00000AD100F09DF8C0680168405CD4E9012177
:100D10009047206A401C2062281EA5F10105DCDCFA
:100D200007E0D4E9012118F8010B9047206A401C24
:100D30002062381EA7F10107F3DC2046FFF7F6FA20
:100D4000032011B043E6000001694A1C02610878E3
:100D5000704700B58FB0CDE90131002105910549FB
:100D60007944CDE9031011466846FFF781FB0FB0C7
:100D700000BD0000E5FFFFFF0A6802F8010B0A60F2
:100D8000704710B5436913B1AFF3008001E0FFF77E
:100D9000DEFA012010BD127800F124010A70002251
:100DA0004A700122EDE711684FF0FF32E9E70000D9
:100DB000074B70B50D467B44FFF7CBFF0446284632
:100DC00000F03AF910B14FF0FF3070BD204670BD11
:100DD000BF2B000010B5203AC0F00B80B1E81850CE
:100DE000203AA0E81850B1E81850A0E81850BFF415
:100DF000F5AF5FEA027C24BFB1E81850A0E81850B4
:100E000044BF18C918C0BDE810405FEA827C24BF07
:100E100051F8043B40F8043B08BF7047D20728BF95
:100E200031F8023B48BF11F8012B28BF20F8023BE4
:100E300048BF00F8012B704700487047FC4900206C
:100E4000004870471C4A002000487047FC490020B9
:100E500030B5B0F10A024FEA900E71F100034EEA8C
:100E6000817EB0EB0E0061EB91014FEA101E4EEA5D
:100E7000017E10EB0E0041EB11114FEA102E4EEAED
:100E8000016E10EB0E0041EB11214FEA104E4EEABD
:100E9000014E10EB0E0041EB1141401841F10001F1
:100EA0004FEAD00040EA41704FEAD10110EB8005D3
:100EB0004FEA810444EA907444EB01046D1944EB59
:100EC0000404521BA3414FF0000348BF0A3200D56F
:100ED00030BD401C41F1000130BD00002DE9F04162
:100EE0001F46044603260168072A01F4006004DB5C
:100EF00008B116A505E016A503E008B115A500E0A8
:100F000015A521F010002060A069C01EA0610FB1DE
:100F1000401EA0612046FFF7F3F94FB1D4E901214B
:100F200038469047206A401C2062C01C206206E0C0
:100F3000206AFAE7D4E9012115F8010B9047761EE3
:100F4000F8D22046FFF7F2F9BDE8F0814E414E009D
:100F50006E616E00494E4600696E66002DE9F047ED
:100F6000814616468AB0334878440DC88DE80D0096
:100F700030487844801C03AC0DC884E80D0041F66D
:100F80009B300844372190FBF1F290FBF1F5A5F17D
:100F9000800501FB12041B3C02D56442012000E0E5
:100FA0000020DFF890A080460027FA44AAF1BE0A8C
:100FB0000DE0E00709D03246684607EB47010AEB2F
:100FC000810100F02EFB8DE8070064107F1C002CCF
:100FD000EFD1184F7F44AC3F18E0E80714D007EB7F
:100FE00004100DF1180A90E80E008AE80E00C0689F
:100FF000F04201D198190890324606A903A800F0E2
:1010000010FB03AB83E807006D10641C002DE4D1D6
:1010100032466946B8F1000F03A802D000F0EDFA9D
:1010200001E000F0FEFAC9E90001C9F808200AB0A1
:10103000BDE8F087E85B0000007B00F080007047AF
:101040007546FFF7F9FEAE4605006946534620F0A7
:101050000700854618B020B5FFF712F9BDE820401B
:101060004FF000064FF000074FF000084FF0000B64
:1010700021F00701AC46ACE8C009ACE8C009ACE817
:10108000C009ACE8C0098D4670470446AFF3008044
:101090002046FFF7E1F800004FF0013C50F8042B28
:1010A00051F8043B9A4221D1A2EB0C03934313EA7B
:1010B000CC1317D150F8042B51F8043B9A4215D1A8
:1010C000A2EB0C03934313EACC130BD150F8042B7F
:1010D00051F8043B9A4209D1A2EB0C03934313EA63
:1010E000CC13DBD04FF00000704700BFD01A01BA1C
:1010F000B1FA81F101F0180122FA01F0CB40C1F1FF
:101100002001DBB2C0B2C01A2CFA01F3D11A91430C
:1011100011EAC311E6D170475FEA400C08BF91F0B5
:10112000000F4FEA8C234FEAC12243EA51514FEAA4
:101130001C5018BF00F5F0404FEA300018BF41F0D6
:1011400000415FEA6C5C00F02980BCF1FF3F08BF02
:1011500040F080407047130C06BF12044FF0100C93
:101160004FF0000C130E04BF12020CF1080C130F09
:1011700004BF12010CF1040C930F04BF92000CF198
:10118000020CD30F04BF52000CF1010C11464FF0BA
:101190000002A0F11F00A0EB0C00704711F0004FFF
:1011A00008BF704731F000413FF4D5AF0B0C06BFCC
:1011B00009044FF0100C4FF0000C0B0E04BF090295
:1011C0000CF1080C0B0F04BF09010CF1040C8B0F80
:1011D00004BF89000CF1020CCB0F04BF49000CF1D5
:1011E000010CCCF12003A0EB0C0022FA03F302FA6D
:1011F0000CF241EA030100F10100704720F07F4C3E
:1012000080EA030023F07F47ACEB070303F57C5330
:1012100000F0004003F1FF032DE980494FEA154B30
:1012200009B44FEA144325EA0B4E24EA03480FF2AF
:10123000042606EB132749083E785FEA320203FBD7
:101240000667C7F5000707FB06F64FEA54374FEA73
:10125000D64606F1020607FB066CCCF1005C4FEAAD
:101260001C472CEA074C07FB06F40CFB06F504EBC5
:1012700015464FEA961634BF00204FF000404FEA63
:10128000D13706FB07FC4FEA1C4C0CFB0BF7D21BBB
:1012900003FB0CF761EB07010CFB0EF7B0EB07400B
:1012A00072EB17420CFB08F734BFA2EB0742B2EB1C
:1012B000074261EB17414FEA0C444FEA910706FBE6
:1012C00007FC4FEA1C4C0CFB0BF7B0EBC74072EB72
:1012D000573203FB0CF734BFA2EBC742B2EBC74255
:1012E00061EB57310CFB0EF7B0EBC70072EB577296
:1012F0000CFB08F734BFA2EBC702B2EBC70261EBED
:101300005771039F4FEA816141EA921104EBCC04CB
:101310004FEAD1374FEA826206FB07FC42EA90129D
:101320004FEA80604FEA1C4C0CFB0BF7D21B03FB0F
:101330000CF761EB07010CFB0EF7B0EB074072EB0B
:1013400017420CFB08F734BFA2EB0742B2EB07428F
:1013500061EB17414FEA8C554FEA910704EB9C244F
:1013600006FB07FC4FEA1C4C0CFB0BF7B0EBC7402D
:1013700072EB573203FB0CF734BFA2EBC742B2EB60
:10138000C74261EB57310CFB0EF7B0EBC70072EBB5
:1013900057720CFB08F734BFA2EBC702B2EBC702CF
:1013A00061EB577115EB4C254FEA816141EA9211CF
:1013B0004FEA82624FEAD13742EA901206FB07FCFD
:1013C00044F100044FEA80604FEA1C4C0CFB0BF721
:1013D000D21B03FB0CF761EB07010CFB0EF7B0EB24
:1013E000074072EB17420CFB08F734BFA2EB074231
:1013F000B2EB074261EB174115EB1C154FEA813147
:1014000041EA92414FEA823242EA90424FEA80300A
:101410004FEA0C7644F1000448EA03434EEA0B48D5
:101420004FF0000EB2EB080C71EB030724BF6246CD
:1014300039464EEB0E0E4FF0000B00185241494159
:101440004BEB0B0BB2EB080C71EB03077BF1000BC2
:1014500024BF624639464EEB0E0E4FF0000B0018CB
:10146000524149414BEB0B0BB2EB080C71EB0307FC
:101470007BF1000B24BF624639464EEB0E0E51EA5B
:10148000020718BF46F0010616EB0E7655F1000272
:1014900054F1000103D5BDE88901BDE80088BDE82D
:1014A0008901BDE80048B619524141EB0101A3F1A1
:1014B0000103704780807F7E7D7C7B7A79787776A8
:1014C00076757473727171706F6E6E6D6C6C6B6A21
:1014D0006A696868676666656464636362616160BF
:1014E000605F5F5E5E5D5D5C5C5B5B5A5A5959583C
:1014F00058575756565555555454535352525251A6
:10150000515050504F4F4F4E4E4D4D4D4C4C4C4BFB
:101510004B4B4A4A4A494949484848474747474642
:10152000464645454544444444434343434242427E
:1015300042414141002B26D4770021D01CB54FEA0F
:10154000370703B44FF010004FF010014FF00000C8
:101550000FBCBDE810400BF1010BBBF1010F08BF40
:101560005FEA170722BF12F1010211F101014FF0EA
:10157000004143F1000300F0004043EA00007047DF
:10158000F9D35708DAE746EA064613F1400F4FEA67
:1015900016461FDD13F1200FDFBF16430A46002158
:1015A00020335B42C8D0C3F1200746EA064602FA60
:1015B00007F74FEA164646EA0706C3F1200722FA64
:1015C00003F201FA07F721FA03F14FF0000342EAB0
:1015D0000702B1E746EA020646EA06464FEA164621
:1015E00046EA0106BCBF46EA0646360C4FF0000349
:1015F0004FF000024FF000019EE72DE9C0489346EE
:1016000030B491E8380007C831EA400C48BF34EAEA
:10161000430C03D5FFF7F2FDFFF78CFFF0BCBDE8EC
:1016200000882DE9C048934630B491E8380007C8D7
:1016300010F0804F08BF13F0804F03D100F005F881
:10164000FFF778FFF0BCBDE8008820F07F4780EA14
:10165000030023F07F4C07EB0C03A3F57C5300F051
:101660000040A3F1FE0392F0000F00F0B38095F06C
:10167000000F00F077802DE901494FEA11404FEA51
:10168000144621EA004800FB06FC24EA064708FB52
:1016900006F607FB08F800FB07F718EB06484CEBCB
:1016A000164C4FEA124B18EB07484FEA15464CEB25
:1016B000174022EA0B4E0BFB06FC25EA06470EFB01
:1016C00006F607FB0EFE0BFB07F71EEB064E4CEB78
:1016D000164C4FF000061EEB074E4CEB174B18EB69
:1016E0000B0840F1000018EB0E0B58EB000840F11E
:1016F00000008F1A4FF000013CBFC943661B14BFA6
:10170000B5EB040C00213CBFC943F61B4FEA17445C
:101710004EEA8E0E27EA04454FEA1C4704FB076297
:101720002CEA074C05FB07F70CFB05F604FB0CFC49
:1017300016EB074642EB174216EB0C4642EB1C42F7
:101740001BEB060658EB0202414146EA9E0601D514
:10175000BDE80189B619524141EB0101A3F1010332
:10176000BDE801894FEA14454FEA114724EA0546CE
:1017700021EA074C05FB07F406FB07F70CFB06F113
:1017800005FB0CFC11EB074144EB17444FEA1247F1
:1017900011EB0C4144EB1C4422EA074C05FB07F219
:1017A00006FB07F70CFB06F605FB0CFC16EB0746E1
:1017B00042EB174216EB0C4642EB1C456A1854F1FB
:1017C000000148BF7047B619524141EB0101A3F136
:1017D0000103704795F0000F37D04FEA11424FEAEE
:1017E000144721EA024624EA074C02FB07F106FBF4
:1017F00007F70CFB06F402FB0CFC14EB074441EB6F
:1018000017414FEA154714EB0C4441EB1C4125EA04
:10181000074C02FB07F506FB07F70CFB06F602FB7D
:101820000CFC16EB074645EB174516EB0C4645EB53
:101830001C42121951F1000148BF7047B6195241BC
:1018400041EB0101A3F1010370474FEA14454FEA50
:10185000114724EA054621EA074C05FB07F106FB80
:1018600007F70CFB06F24FF0000605FB0CFC12EB31
:10187000074241EB174112EB0C4251EB1C4148BFB0
:101880007047921841EB0101A3F10103704700007A
:101890002DE9F0412DED048BCCB0B0EE408AF0EE96
:1018A000608A054623208DF8040021208DF805006C
:1018B00001F032FE8046B0EE480AF0EE680A01F010
:1018C00013FE0646324623A1404601F0F5FD2846A8
:1018D00004F051FC41EC190BB0EE490AF0EE690A34
:1018E00001F002FE064632461BA1404601F0E4FD2F
:1018F000404601F0A3FE0746404601F017FE384679
:10190000FEF780FE84B220128DF80600E0B28DF85A
:1019100007002246394602A8FEF76CFF2A2101AAD9
:10192000201D1154E1B2384601F0CCFE01AA611D20
:1019300050542621A01D1154E01DC1B201A804F08D
:1019400073F9384603F03EF84CB0BDEC048BBDE8AB
:10195000F0810000585F56006D6F00002DE9F041E6
:101960002DED048BCCB0B0EE408AF0EE608A0546D7
:1019700023208DF8040021208DF8050001F0CCFD16
:101980008046B0EE480AF0EE680A01F0ADFD06466A
:10199000324623A1404601F08FFD284604F0EBFBC0
:1019A00041EC190BB0EE490AF0EE690A01F09CFD1A
:1019B000064632461BA1404601F07EFD404601F03E
:1019C0003DFE0746404601F0B1FD3846FEF71AFEDF
:1019D00084B220128DF80600E0B28DF8070022468E
:1019E000394602A8FEF706FF2A2101AA201D11543C
:1019F000E1B2384601F066FE01AA611D505426216D
:101A0000A01D1154E01DC1B201A804F023F938460D
:101A100002F0D8FF4CB0BDEC048BBDE8F0810000B3
:101A2000585F56006D6F000000BFFEE77047F0B5CD
:101A30000A4600210023002400BF3DE0012505FAED
:101A400001F3156805EA03049C4234D105684F0090
:101A50000326BE40B543056015794E00B5400668C3
:101A6000354305601579012D02D01579022D16D167
:101A700085684F000326BE40B543856055794E000A
:101A8000B540866835438560456801268E40B5437C
:101A90004560456896798E40B6B235434560C56865
:101AA0004F000326BE40B543C560D5794E00B54012
:101AB000C6683543C560491C1029BFD3F0BDF0B5D9
:101AC000002300244D07ED0E02FA05F3CE1000F1BD
:101AD000200555F826504E07F70E0F26BE40B54399
:101AE000CF1000F1200646F82750CE1000F1200557
:101AF00055F8265045EA0304CE1000F1200545F8BC
:101B00002640F0BD00BFFEE700BFFEE770470000C3
:101B100070B5002100230F22C4781CB3174C246831
:101B200004F4E064C4F5E064C4F30721C1F10404E3
:101B3000E3B20A4144789C40E1B2847814402143E6
:101B40000C07210E0E4C05786155047804F01F0532
:101B50000124AC4005786D11AD0005F1E025C5F814
:101B6000004109E0047804F01F050124AC40054D54
:101B70000678761145F8264070BD00000CED00E0B7
:101B800000E400E080E100E002490143024A116004
:101B9000704700000000FA050CED00E070B51C482D
:101BA00000782D2800D170BD194801F00DFD0546C3
:101BB0003DB901F0E3FC0646314616A0FEF780FB76
:101BC000F1E719A1284601F0DFFC044604B919E049
:101BD00016496069086016A1284601F0D5FC044644
:101BE00004B90FE094ED060B124880ED000B12A132
:101BF000284601F0C9FC044604B903E00F496069B6
:101C0000086000BF284601F091FC00BFCBE7000050
:101C1000780200204572726F72206265666F72658D
:101C20003A205B25735D0A00436F000060000020CE
:101C300046440000680000206D6F00007000002026
:101C400070B51C4800782D2800D170BD194801F0EE
:101C5000BBFC05463DB901F091FC0646314616A095
:101C6000FEF72EFBF1E719A1284601F08DFC044692
:101C700004B919E016496069086016A1284601F008
:101C800083FC044604B90FE094ED060B124880ED86
:101C9000000B12A1284601F077FC044604B903E0CA
:101CA0000F496069086000BF284601F03FFC00BF93
:101CB000CBE70000D00400204572726F722062658D
:101CC000666F72653A205B25735D0A00436F000002
:101CD0007400002046440000780000206D6F000072
:101CE000800000207047000029B1064A12680243B4
:101CF000044B1A6004E0034A12688243014B1A60E5
:101D0000704700003038024029B1064A1268024389
:101D1000044B1A6004E0034A12688243014B1A60C4
:101D2000704700004038024029B1064A1268024359
:101D3000044B1A6004E0034A12688243014B1A60A4
:101D40007047000044380240F0B500210022002412
:101D5000022500260223324F3F6807F00C0121B113
:101D6000042905D0082937D105E02E4F076036E059
:101D70002D4F076033E02A4F3F1F3F68C7F380565F
:101D8000274F3F1F3F6807F03F036EB1264FB7FB59
:101D9000F3F7DFF88CC0ACF1040CDCF800C0CCF336
:101DA000881C07FB0CF40CE01E4FB7FBF3F7DFF8C1
:101DB00070C0ACF1040CDCF800C0CCF3881C07FB4D
:101DC0000CF4174F3F1F3F68C7F301477F1C7D008E
:101DD000B4FBF5F7076002E0124F076000BF00BFD9
:101DE0000F4F3F6807F0F0010909104F7A5C076850
:101DF000D74047600A4F3F6807F4E051890A0B4F0C
:101E00007A5C4768D7408760054F3F6807F46041B8
:101E1000490B064F7A5C4768D740C760F0BD0000A9
:101E2000083802400024F40000127A002900002043
:101E3000704700000CB50020019000903448006805
:101E400040F480303249086000BF3148006800F437
:101E5000003000900198401C0190009818B901983A
:101E6000B0F5A04FF1D12A48006800F4003010B15D
:101E70000120009001E0002000900098012846D148
:101E800023484030006840F08050214940310860CC
:101E90002048006840F440401E4908601C48083053
:101EA00000681B49083108600846006840F400409B
:101EB00008600846006840F4A05008601648091FF2
:101EC0000860081F006840F08070091F086000BFAC
:101ED0000F48006800F000700028F9D040F205704B
:101EE0000E4908600A480830006820F003000849DD
:101EF000083108600846006840F00200086000BF32
:101F000003480830006800F00C000828F8D10CBD28
:101F1000003802400070004008544007003C024076
:101F2000042808D14FF0E021096941F004014FF085
:101F3000E022116107E04FF0E021096921F004017E
:101F40004FF0E022116170477047000010B515484E
:101F5000006840F47000134908601348006840F0BE
:101F600001001149086000200F49083108600E483F
:101F700000680E4908400C4908600D48091D0860BA
:101F8000081F006820F48020091F0860002006490F
:101F90000C310860FFF74EFF4FF0006001498039B7
:101FA000086010BD88ED00E000380240FFFFF6FE3B
:101FB0001030002410B540F22551064800F000FA18
:101FC00030B10448001D0088C4B203A0FEF778F9C0
:101FD00010BD0000004C00400D0A3333000000002B
:101FE00010B540F22551054800F0EAF928B1034840
:101FF0008088C4B202A0FEF763F910BD0050004013
:102000000D0A35350000000010B540F225511D487D
:1020100000F0D6F910B31B4800F08CFAC4B21A488D
:10202000008800F40040C8B91748008800F48040D8
:1020300060B10A2C03D000201349088020E0124828
:10204000008840F400401049088019E00D2C06D1AA
:102050000D48008840F480400B49088010E00A4891
:102060000088C0F30D0009490C5407480088401C43
:102070000549088008460088C72801DD002008803F
:1020800010BD000000100140080000208400002066
:1020900010B54FF0FF30074908604FF496710648BD
:1020A000FEF75FFB00200549086005490860054907
:1020B000087010BD0C0000204C0100201000002012
:1020C000140000201800002010B540F225514C48A3
:1020D00000F076F9002878D04948001D0088C4B285
:1020E0004848006838B9232C04D146480068401C91
:1020F0004449086010BD4348006801280BD1212CD9
:1021000005D140480068401C3E49086002E00020BC
:102110003C490860EEE73B480068022808D12002ED
:102120003949086037480068401C36490860E1E7D3
:102130003448006803280AD13348006820443249F3
:10214000086030480068401C2E490860D2E72D48DE
:102150000068042852D12D480068401C2B490860B3
:1021600008460068FA2802DDFFF792FFC2E7274819
:10217000006825490968884205DC24480068401E3B
:1021800023490C54B6E7214801681F480068401CE9
:10219000814204D12A2C01D0FFF77AFFAAE71B481D
:1021A000016819480068801C814202D119480470F6
:1021B000A0E71648016814480068C01C81421CD181
:1021C000262C03D0FFF764FF16E017E00E480178D5
:1021D0000F4801F077FA0F49097888420AD14FF485
:1021E00096710D48FEF7BDFA09490B48FEF7E6F96E
:1021F000FFF7D4FCFFF74CFF7CE77BE700BF79E7F4
:1022000000440040140000200C00002010000020BA
:102210004C010020180000207802002010B54FF07B
:10222000FF30074908604FF496710648FEF799FAA7
:10223000002005490860054908600549087010BD7F
:102240001C000020A4030020200000202400002007
:102250002800002010B540F225514C4800F0B0F89D
:10226000002878D04948001D0088C4B2484800685A
:1022700038B9232C04D146480068401C4449086002
:1022800010BD4348006801280BD1212C05D14048DE
:102290000068401C3E49086002E000203C4908609C
:1022A000EEE73B480068022808D12002394908605F
:1022B00037480068401C36490860E1E73448006848
:1022C00003280AD133480068204432490860304866
:1022D0000068401C2E490860D2E72D480068042899
:1022E00052D12D480068401C2B4908600846006800
:1022F000FA2802DDFFF792FFC2E727480068254968
:102300000968884205DC24480068401E23490C54B3
:10231000B6E7214801681F480068401C814204D18B
:102320002A2C01D0FFF77AFFAAE71B480168194859
:102330000068801C814202D119480470A0E7164849
:10234000016814480068C01C81421CD1262C03D0AF
:10235000FFF764FF16E017E00E4801780F4801F020
:10236000B1F90F49097888420AD14FF496710D48A6
:10237000FEF7F7F909490B48FEF720F9FFF760FC73
:10238000FFF74CFF7CE77BE700BF79E700480040A0
:10239000240000201C00002020000020A4030020B6
:1023A00028000020D004002021B1828942F400528C
:1023B000828104E082894DF6FF731A408281704762
:1023C00070B50246002400230025002040F66A165E
:1023D000B14200D100BFC1F3421501F01F03012635
:1023E00006FA03F3012D02D19689334006E0022D4F
:1023F00002D1168A334001E0968A33400C1201263E
:1024000006FA04F41688344013B10CB1012000E040
:10241000002070BDF0B503460024002600250020F2
:1024200040F66A17B94200D100BF1846C1F3421402
:1024300001F01F06012707FA06F5012C01D10C3027
:1024400004E0022C01D1103000E014301AB107680A
:102450002F43076002E00768AF430760F0BD00004C
:102460002DE9FF4705460E460024A14600BFA046C1
:10247000B08900B100BF2C8A24F44054F088044392
:102480002C82AC8941F20C608443B08831890843C6
:10249000718908430443AC81AC8A24F44074B08948
:1024A0000443AC826846FFF74FFC2048854202D0C7
:1024B0001F48854202D1DDF80C9001E0DDF808905C
:1024C000A88900F4004040B109EBC90000EB0910F5
:1024D00031684900B0FBF1F707E009EBC90000EBF8
:1024E000091031688900B0FBF1F76420B7FBF0F008
:1024F00004012009642101FB1078A88900F4004040
:1025000040B1322000EBC800B0FBF1F000F0070052
:10251000044308E0322000EB08106421B0FBF1F026
:1025200000F00F0004432C81BDE8FF87001001403C
:102530000014014001468888C0F30800704700BFBE
:10254000FEE703B401984100009850EAC12018BF8B
:1025500004204A0D18BF40F0010040F2FF72B2EBB8
:10256000515F08BF40F00200012808BF052002B0FB
:1025700070472DED020B019820F0004001909DED79
:10258000000B02B0704700002DE9F0412DED020B69
:102590009FED3D0B2DED028B9FED3D8BDDE9025450
:1025A000C4F30A50A0F2FF36142E37DA002E18DAE0
:1025B00053EC102B9DED020B51EC100B03F098FB2C
:1025C00053EC182B03F028FF57D2002CA4BF002493
:1025D000254652DA24F00040284318BF2E4C4CD038
:1025E0001AE02E4820FA06F704EA070028431FD015
:1025F00053EC102B9DED020B51EC100B03F078FB0C
:1026000053EC182B03F008FF37D2002C03DA4FF4F9
:102610008010F0400444BC4300252EE0332E07DC3C
:10262000A6F114004FF0FF3121FA00F73D4206D128
:102630009DED020BBDEC028B02B0BDE8F08153ECC6
:10264000102B9DED020B51EC100B03F01BFF53EC14
:10265000182B03F0E1FE10D2002C0DDA142E08BF67
:10266000641C09D0C6F13400012101FA00F02844AD
:10267000A84238BF641C0546BD43CDE902549DED18
:10268000020BD7E7000000009C7500883CE4377E11
:1026900000000000000000000000F0BFFFFF0F007E
:1026A0002DE9F04D2DED040B2DED0C8B96B0DDE9F1
:1026B0002350259CDDF888A025F0004624F0004832
:1026C000BAF1000F14BF0121002101EB4502FE49C0
:1026D00053184A1093422AD3002814BF0123002321
:1026E00003EB44030B44F9498B4220D358EA000121
:1026F0009FEDF78B6FD0DFF8E0B35D4503D1BAF102
:10270000000F05D187E0BAF1000F08BF002100D00B
:10271000012101EB450111F5001F08D8002814BF65
:102720000121002101EB440111F5001F0BD99DEDA2
:10273000241B9DED220B16B0BDEC0C8B04B0BDE844
:10274000F04D00F05DBE0027002DBCBFE349884579
:1027500021DAE3498845A8BF02271CDAC3451ADC01
:10276000E04901EB2851142908DDC1F1340220FAB7
:1027700002F101FA02F282420DD108E058B9C1F12A
:10278000140228FA02F101FA02F2424503D101F0E3
:102790000101C1F1020756EA0A011DD1002C1BDA22
:1027A000002D18BF022F01D0012F0AD00220FEF702
:1027B0005EF816B0BDEC0C8B04B0BDE8F04D00F037
:1027C00007BE0220FEF753F800F002FE51EC100B9A
:1027D00003F082FA83E01EE09FEDC39B9FEDC4AB44
:1027E000002872D1BD4880452DD105F1804010F5FB
:1027F000801008BFBAF1000F0DD0B34515DC002CD6
:10280000A1BF9DED240B16B0BDEC0C8B04B0A8BF8E
:10281000BDE8F08D12E0B0EE480AF0EE680A16B09E
:10282000BDEC0C8B04B0BDE8F08D002C06DA9DEDFC
:10283000240B51EC100B03F04FFA50E0AE487844F3
:1028400090ED000BEBE7D8454FD1002C4ADA2EB1C2
:1028500086423BD1BAF1000F44D126E0BAF1000F15
:1028600013D00220FEF703F800F0E6FD8DED020B19
:102870009DED220B8DED000B10EE900A039961F394
:102880001E0003909DED020BC9E78DED029B9DEDAF
:10289000220B19EE901A10EE900A8DED000B61F3E9
:1028A0001E0003909DED020BB9E78DED02AB9DED8F
:1028B000220B1AEE901A10EE900A8DED000B61F3C8
:1028C0001E0003909DED020BA9E729E00ADA9DEDB9
:1028D000220B51EC180B53EC102B03F0C5FA41EC12
:1028E000100B9CE79DED220B99E7864218DAB4F1B4
:1028F000804F0DD0A4F10050B0F1FF5010D1002D49
:102900000EDB9DED220B51EC100B03F04EF8E6E7C9
:102910009DED220B53EC102B51EC100B00F0AEBCD4
:102920009DED220B51EC100B01F01AF8BAF1000FDB
:10293000CDE90C0134D19FED720BDEB1A6F1E04080
:10294000B0F17F602CD1002D01DD002C0DDA002DBF
:1029500001DD002C1FDB002D16DA002C14DB012F0B
:1029600008BF9FED690B3FF45AAFB0EE490AF0EE95
:10297000690A54E7022F18BF002D0CD0012F0AD18D
:10298000002DFFF64CAF06E0002DB8BF002C07DA93
:10299000012F3FF444AFB0EE4A0AF0EE6A0A3EE778
:1029A000012000EBE57A5AEA07000CD058480025D0
:1029B00080457CDD57495848884514DDB0420DDB21
:1029C000002C19DB2BE00120FDF751FF16B0BDEC08
:1029D0000C8B04B0BDE8F04D00F01EBDB34502DC29
:1029E000002C09DC1BE0864202DA002C17DA03E037
:1029F0005E4527DD002C12DD0220FDF738FF00F0D8
:102A00001BFD10EE901A19EE900A8DED020B8DED64
:102A1000009B61F31E0003909DED020BFFE6022078
:102A2000FDF725FF00F018FD10EE901A18EE900A41
:102A30008DED020B8DED008B61F31E0003909DED7B
:102A4000020BECE69DED220B53EC182B51EC100B16
:102A500003F0F0FD9FED320BCDE90A0153EC102B92
:102A60009DED0A0B51EC100B03F0D8FB9FED2E1BD4
:102A700053EC112B03F006FD9DED0A1B53EC112BBB
:102A800003F0CCFB9FED2A1B53EC112B03F0FAFC57
:102A90009DED0A0B41EC190B53EC102B51EC100B74
:102AA00003F0BCFB53EC192B03F0B8FB00E07EE015
:102AB0009FED210B41EC1A0B53EC102B9DED0A0BF3
:102AC00051EC100B3CE00000FFFF1F00FFFF0F0068
:102AD000000000000000F03F0000F03F0000F07F29
:102AE0000000404301FCFFFF000000000000F07FF9
:102AF00000000000000000008E4200000000000006
:102B00000000000000000080000000000000F0FF56
:102B10000000E0410000F043FFFFEF3F0000000035
:102B2000000000000000D03F555555555555D53F84
:102B3000000000000000E03F000000604715F73F84
:102B400003F06CFB41EC190B9FEDFD0B51EC1A0BE4
:102B500053EC102B03F062FB41EC1A0B9FEDFA0BC8
:102B600053EC102B9DED0A0B51EC100B03F056FBB0
:102B700053EC1A2B03F05EFD41EC1A0B51EC190BD0
:102B800053EC1A2B03F0B4F80690CDE906519DEDF5
:102B9000060B53EC192B51EC100B03F04BFD53ECCF
:102BA0001A2B03F06FFC41EC100B00F09FB90020D2
:102BB000B6F5801F0EDA9FEDE60B53EC102B9DED62
:102BC0000C0B51EC100B03F029FBCDE90C016FF05D
:102BD00034000E4600EB2650A0F2FF38C6F3130077
:102BE000DD4940F07F6646F040568842D8BF002459
:102BF00009DDDA498142C8BF012404DC0024A6F5BE
:102C0000801608F10108D648784400EBC4000D9600
:102C100090ED00BB9DED0C0B53EC1B2B51EC100BFE
:102C200003F008FD9DED0C0B41EC1A0B53EC1B2B34
:102C300051EC100B03F05CF841EC100B51EC180B4D
:102C400053EC102B03F010F941EC1C0B51EC1A0B58
:102C500053EC1C2B03F0E2FA41EC190BC1488DED4B
:102C6000109B7844109590ED000B4FF0005040EA17
:102C7000660000EB84408DED0A0B00F500200B9000
:102C80009DED0A0B53EC1B2B51EC100B03F0D2FC07
:102C90009DED0C1B53EC112B03F0F4FB41EC100BDE
:102CA00053EC102B9DED100B51EC100B03F0B6FA0A
:102CB0009DED0A0B41EC1B0B53EC102B9DED100B03
:102CC00051EC100B03F0AAFA53EC1A2B03F0DAFBC9
:102CD00053EC1B2B03F0AEFC53EC1C2B03F09EFAC1
:102CE00041EC1B0B53EC192B51EC190B03F096FA2A
:102CF00041EC1A0B9C480621B0EE4A0AF0EE6A0A33
:102D0000784400F0E9FAB0EE40CAF0EE60CA53EC45
:102D10001A2B51EC1A0B03F081FA53EC1C2B03F025
:102D20007DFA9DED100B41EC1A0B53EC192B51EC75
:102D3000100B02F0DDFF53EC1B2B03F06FFA53EC8A
:102D40001A2B02F0D5FF9DED100B41EC1A0B53EC42
:102D5000102B51EC100B03F061FA41EC1C0B9FEDB2
:102D600084DB53EC1D2B02F0C3FF53EC1A2B02F053
:102D7000BFFF0A90CDE90A519DED0A0B53EC1D2BC4
:102D800051EC100B03F056FC53EC1C2B03F052FCDF
:102D900053EC1A2B03F076FB9DED0A0B41EC1C0B58
:102DA00053EC102B9DED100B51EC100B03F036FA89
:102DB00041EC1A0B53EC192B51EC1C0B03F02EFABF
:102DC0009DED0A0B41EC190B53EC102B51EC1B0B36
:102DD00003F024FA53EC192B02F08AFF41EC190B93
:102DE00051EC1A0B53EC192B02F082FF1090CDE935
:102DF00010519DED100B53EC1A2B51EC100B03F0FE
:102E000019FC53EC192B03F03DFB41EC190B9FED22
:102E10005A0B53EC102B9DED100B51EC100B03F0E3
:102E2000FDF941EC1A0B9FED560B51EC190B53ECCD
:102E3000102B03F0F3F941EC190B9FED530B53ECFE
:102E4000102B9DED100B51EC100B03F0E7F953EC38
:102E5000192B02F04DFF41EC100B4D48784400EB6C
:102E6000C40090ED001B51EC100B53EC112B02F041
:102E70003FFF41EC190B404603F07DF9CDE90A0113
:102E800053EC192B51EC1A0B02F032FF41EC100BF2
:102E90004048784400EBC40090ED00BB51EC100BAF
:102EA00053EC1B2B02F024FF9DED0A1B53EC112B5E
:102EB00002F01EFF0690CDE906519DED0A0B53EC82
:102EC000102B9DED060B51EC100B03F0B3FB53ECF4
:102ED0001B2B03F0AFFB53EC1A2B03F0ABFB53ECB3
:102EE000192B03F0CFFA41EC100B00BF781EB0EEA7
:102EF00048AAF0EE68AA5AEA000008BF9FED268BA8
:102F00009DED241B53EC102B8DED001B00959DEDCA
:102F1000240B51EC100B03F081F99DED000B41ECFB
:102F2000190B53EC102B9DED240B51EC100B03F0FF
:102F300081FB9DED061B53EC112B03F06FF92FE085
:102F4000FE822B654715F73F44DF5DF80BAE543E1C
:102F500000000000000040438E9803007AB60B008A
:102F60003C3E00006A3E0000743D0000000000008E
:102F70000000000000000840000000E009C7EE3F2C
:102F8000FD033ADC09C7EE3FF5015B14E02F3EBEBE
:102F9000083C0000C23B0000000000000000F0BF41
:102FA00053EC192B02F0A4FE9DED060B41EC190B1E
:102FB00053EC102B9DED000B51EC100B03F02EF990
:102FC000CDE910019DED100B51EC190B53EC102BBA
:102FD00002F08EFECDE902010C46AB498C422FDB9C
:102FE000611A084318D19DED100B53EC102B9DED89
:102FF000020B51EC100B03F01DFB41EC1B0B9FED82
:10300000A40B51EC190B53EC102B02F071FE53EC96
:103010001B2B03F001FA2DD20220FDF728FC00F053
:103020000BFA10EE901A18EE900A8DED020B8DED52
:10303000008B61F31E0003909DED020BFFF7EFBBC9
:10304000954A24F00041914214D394492144084305
:103050007FF4E5AC9DED100B53EC102B9DED020BB6
:1030600051EC100B03F0E6FA53EC192B03F0D4F9F2
:103070007FF6D5AC24F0004089498A4A002601EB4E
:10308000205182422BDA481C4FF4801121FA00F0C3
:103090002044854AC0F30A517A44A1F2FF3192EDEF
:1030A000000B824A8DED0A0BCA4020EA0202C0F3EF
:1030B000130040F48010C1F1140120FA01F60B92C4
:1030C000002CB8BF76429DED0A0B53EC102B9DED02
:1030D000100B51EC100B03F0ADFACDE910019DED92
:1030E000100B51EC190B53EC102B02F001FE9FED6D
:1030F000700B0A90CDE90A5153EC102B9DED0A0B91
:1031000051EC100B03F08AF841EC1B0B9FED6A0B9E
:1031100053EC102B9DED0A0B51EC100B03F07EF8D5
:103120009DED100B41EC1C0B53EC102B9DED0A0B8D
:1031300051EC100B03F07EFA53EC192B03F0A2F9BB
:103140009FED5F1B53EC112B03F068F853EC1C2B25
:1031500002F0CEFD41EC190B51EC1B0B53EC192B7B
:1031600002F0C6FDCDE902019DED020B53EC1B2BD5
:1031700051EC100B03F05EFA53EC192B03F082F9BB
:103180009DED020B41EC190B53EC102B51EC100B85
:1031900003F044F8CDE90A014B489DED0A0B0521E7
:1031A000784400F099F89DED0A1B51EC100B53EC9C
:1031B000112B03F033F89DED021B53EC112B03F0A0
:1031C00061F9CDE906019DED020B53EC192B51EC91
:1031D000100B03F023F853EC192B02F089FD9FED3F
:1031E0003C0B41EC190B53EC102B9DED060B51ECF5
:1031F000100B03F01FFA9DED060B41EC1B0B53EC7B
:10320000102B9DED020B51EC100B03F007F853EC63
:103210001B2B02F029FE53EC192B03F00BFA9DED4A
:10322000021B53EC112B03F005FA53EC1A2B03F09D
:1032300029F9CDE9020101EB065001150029C8BFAB
:10324000039015DC9DED020B324651EC100B03F0A0
:1032500014FBFFF776F9042808BF00F0FDF83246AA
:103260009DED020B51EC100B03F007FBCDE90201C1
:103270009DED020B51EC180B53EC102B02F0CEFF1E
:10328000FFF72DBB00000000000090400000000090
:10329000FE822B654715973C00CC904000346F3F71
:1032A00001FCFFFF0000E03F343A0000FFFF0F0089
:1032B00000000000432EE63F396CA80C615C20BE84
:1032C000EF39FAFE422EE63F04390000000000000C
:1032D000000000000000004070B504462DED028B98
:1032E0004D1E00EBC500B0EE408AF0EE608A90ED16
:1032F000000B35F0060017D053EC182B51EC100BD7
:1033000002F08CFF41EC100B6D1E04EBC50090ED3C
:10331000001B51EC100B53EC112B02F0E9FC41ECBB
:10332000100B35F00600E7D1022D36D0042D1CD04D
:10333000062D1CBFBDEC028B70BD53EC182B51EC5D
:10334000100B02F06BFF94ED0A1B53EC112B02F0F3
:10335000CFFC53EC182B02F061FF94ED081B53ECEB
:10336000112B02F0C5FC41EC100B53EC182B51EC67
:10337000100B02F053FF94ED061B53EC112B02F0DF
:10338000B7FC53EC182B02F049FF94ED040B53ECFF
:10339000102B02F0ADFC41EC100B53EC182B51EC50
:1033A000100B02F03BFF94ED021B53EC112B02F0CB
:1033B0009FFC53EC182B02F031FF94ED001B53ECF3
:1033C000112B02F095FCBDEC028B41EC100B70BD93
:1033D0009FED070B10B553EC102B9FED070B51EC35
:1033E000100B02F041FD41EC100B10BD000000007D
:1033F0000000000000000000000000000000F03F9E
:1034000010B553EC112B51EC100B02F071FC41EC98
:10341000100B10BD000000009FED050B10B553EC24
:10342000102B51EC100B02F01FFD41EC100B10BDE6
:1034300000000000000000009FED050B10B553ECEC
:10344000102B51EC100B02F0E9FE41EC100B10BDFB
:1034500000000000000000709FED050B10B553EC5C
:10346000102B51EC100B02F0D9FE41EC100B10BDEB
:10347000000000000000001030380A2801D20120AE
:10348000704700207047014600BF704770B5054681
:103490000E46AC6806B970BD0CB9AE6009E000E03C
:1034A000246814B120680028FAD13146204602F081
:1034B000B3FA00BFEFE7000070B506460D461446AC
:1034C00004B970BD206A18B10649206A09688847A6
:1034D000284600F0E1F8206221463046FFF7D6FF8B
:1034E00000BFEEE74400002010B52DED028BB0EEDA
:1034F000408AF0EE608A00F057F8044644B1032099
:10350000E06084ED068B51EC180B02F005FE606163
:103510002046BDEC028B10BD10B500F045F8044606
:103520000CB10620E060204610BD000070B50446D6
:103530001EE02568A08900F4807020B9A06810B151
:10354000A068FFF7F3FFA08900F4807028B9206914
:1035500018B10949206909688847206A18B10649E5
:10356000206A0968884720460349096888472C462D
:10357000002CDED170BD000044000020014800682E
:10358000704700003C00002070B505460E46AC6850
:1035900000E024682CB13146206A00F057F800287A
:1035A000F7D1204670BD000010B5282005490968F4
:1035B000884704461CB128212046FDF7F4F8204630
:1035C00010BD00004000002010B504460022114646
:1035D000204600F001F810BD2DE9F04780460D4669
:1035E00016460024FFF7E0FF074600201249086056
:1035F0000FB9BDE8F087404602F0CEF98146494652
:10360000384601F03BFD044624B93846FFF78EFFEB
:103610000020EEE766B1204602F0BEF904462078AD
:1036200030B13846FFF782FF034804600020E0E72E
:1036300005B12C603846DCE73C00002010B504469C
:1036400000221146204602F0E9F810BD70B504468C
:103650000D462CB9AC4201D0012070BD0020FCE722
:103660000DB90120F9E705E0207808B90020F4E75A
:10367000641C6D1C2078FCF716FE06462878FCF7C3
:1036800012FE8642F0D02078FCF70DFE0646287820
:10369000FCF709FE301AE0E770B504462046FCF757
:1036A000B1FF451C2846064909688847060000D135
:1036B00070BD2A4621463046FDF70EF83046F7E742
:1036C0004000002010B502460B46002104E012F82D
:1036D000010B4840044C215C1800A3F10104E3B243
:1036E000F5D1C843C0B210BD0669000810B5044644
:1036F0006FF00400FEF714FCE11704EB5171C1F305
:10370000C701074A11701046007800EB4001C1EB79
:10371000C0104FF6FF7101EAC0000249088010BDD9
:10372000000000200200002070B504464FF407702E
:1037300094FBF0F0C6B24FF4077094FBF0F100FB7D
:10374000114085B205E04FF4077000F009F8701ED3
:10375000C6B2002EF7D115B1284600F001F870BDB1
:103760000146114A12884A434FF0E0235A61002271
:103770009A611A46126942F001021A6100BF4FF0C5
:10378000E022106900F001021AB100F48032002A30
:10379000F5D04FF0E022126922F001024FF0E02351
:1037A0001A6100229A6170470200002000B52DEDD9
:1037B000108B83B0B0EE408AF0EE608AB0EE41AA82
:1037C000F0EE61AAB0EE42BAF0EE62BA9FED540B91
:1037D000B0EE409AF0EE609A9FED530BB0EE40CA07
:1037E000F0EE60CA9FED520BB0EE40DAF0EE60DA18
:1037F0009FED510B53EC102B51EC1A0B02F078FAA1
:1038000041EC1A0B53EC1B2B51EC180B02F0CAFCC9
:1038100016D953EC1B2B51EC180B02F033FE41EC84
:103820001F0B9FED470B53EC102B02F0F7FC41EC04
:103830001E0B9FED450B53EC102B02F0B3FC21D275
:1038400053EC1B2B51EC180B02F01CFE41EC1F0B30
:103850009FED3B0B53EC102B02F0E0FC41EC1E0BF8
:103860009FED3B0B53EC102B02F0D8FC53EC192BC3
:10387000CDE900019DED000B51EC100B02F038FA80
:1038800041EC1D0B53EC1A2B51EC180B02F0C4FD4C
:1038900015D253EC1A2B51EC180B02F0CBFE41EC75
:1038A0001F0B9FED2D0B53EC102B02F0B7FC41ECDE
:1038B0001E0B53EC192B02F01BFA41EC190B9FED78
:1038C0001C0B53EC102B51EC1D0B02F0A5FD13D279
:1038D00053EC1D2B51EC190B02F09EFD04D2B0EEFF
:1038E0004D0AF0EE6D0A03E0B0EE490AF0EE690A07
:1038F000B0EE409AF0EE609A53EC1C2B51EC190B91
:1039000002F08AFD03D2B0EE4C9AF0EE6C9AB0EE63
:10391000490AF0EE690A03B0BDEC108B00BD00004F
:103920000000000000003E400000000000C0824097
:1039300000000000000000009A9999999999B93FF8
:103940000000000000408F400000000000005940CF
:1039500000000000000000400000000000E0854082
:1039600082B0CDE9000121F0004001909DED000BF7
:1039700002B051EC100B704700BF054A128802F0EC
:103980004002002AF9D0C2B2014B9A807047000071
:103990000010014010B52DED0E8B82B00446B0EE44
:1039A00040AAF0EE60AA9FEDFD0BB0EE409AF0EE5B
:1039B000609A9FEDFC0BB0EE40BAF0EE60BAB0EE4C
:1039C0004A8AF0EE6A8A00209FEDF60BFDF760FF51
:1039D00000209FEDF40BFDF7C1FF4FF49670FFF749
:1039E000A3FE1BE09FEDEF0B53EC102BEF4890ED87
:1039F000000B51EC100B02F00FFD0CD29FEDE90B08
:103A000053EC102BEA4890ED000B51EC100B02F038
:103A100003FD00D203E03220FFF786FEE2E700BF9D
:103A20000EE05020FFF780FEE2480068012807D131
:103A3000E1480068012803D1E0A0FCF741FC00E068
:103A4000EFE700BF012C7DD1D84890ED000B53EC7F
:103A5000102BD74890ED000B51EC100B02F048F9F9
:103A600041EC1C0B9FEDDF0B53EC102B02F0FCF92B
:103A700041EC1B0BE0E23220FFF756FEDB4800680A
:103A80000090CA4890ED000B53EC102BC948016818
:103A9000D748FCF715FCD74800680090C44890ED63
:103AA000000B53EC102BC4480168D348FCF708FC0A
:103AB0009FEDD20B53EC102B51EC190B02F0AEFB27
:103AC00041EC1C0B53EC182BB84890ED000B51EC5B
:103AD000100B02F0AFFD41EC1E0BB0EE4E0AF0EE03
:103AE0006E0A00F049FFB0EE40DAF0EE60DA53EC17
:103AF0001C2B51EC1D0B02F055FB4BD39FEDBF0B64
:103B000053EC102B51EC190B02F088FB41EC1C0B11
:103B100053EC182BA64890ED000B51EC100B02F063
:103B200089FD41EC1E0BB0EE4E0AF0EE6E0A00F07D
:103B300023FFB0EE40DAF0EE60DA53EC1C2B51ECD0
:103B40001D0B00E07AE202F02DFB23D353EC182B7F
:103B5000964890ED000B51EC100B02F06BFD41EC20
:103B60001C0B9FED900B53EC102B02F01BFB11D3A1
:103B700053EC182B8E4890ED000B51EC100B02F01B
:103B800059FD41EC1C0B9FED870B53EC102B02F001
:103B900009FB78D253EC182B844890ED000B51ECC4
:103BA000100B02F047FD41EC1D0BB0EE4D0AF0EE9C
:103BB0006D0A00F0E1FEB0EE40CAF0EE60CA53ECD0
:103BC000192B51EC1C0B02F0EDFA29D253EC182BF7
:103BD000774890ED000B51EC100B02F02BFD41ECFF
:103BE0001D0BB0EE4D0AF0EE6D0A00F0C5FEB0EE12
:103BF00040CAF0EE60CA53EC192B51EC1C0B02F0DA
:103C0000D1FA0DD200209FED670BFDF741FE002099
:103C10009FED640BFDF7A2FEC820FFF785FD0CE2C7
:103C200053EC192B51EC180B02F062F841EC1C0B11
:103C30005E4890ED000B53EC102B51EC1C0B02F086
:103C4000B1FA08D801209FED6F0BFDF721FE6FA0A0
:103C5000FCF736FB24E053EC192B51EC180B02F067
:103C6000E9FC41EC1C0B514890ED000B53EC102B80
:103C700051EC1C0B02F0D0FB0AD801209FED670B22
:103C8000FDF706FE00E04AE066A0FCF719FB07E03E
:103C900000209FED440BFDF7FBFD66A0FCF710FB39
:103CA00053EC192B51EC180B02F022F841EC1C0BD1
:103CB0003F4890ED000B53EC102B51EC1C0B02F025
:103CC00071FA08D801209FED4F0BFDF747FE61A068
:103CD000FCF7F6FAB0E153EC192B51EC180B02F09B
:103CE000A9FC41EC1C0B324890ED000B53EC102B5F
:103CF00051EC1C0B02F090FB08D801209FED470B04
:103D0000FDF72CFE57A0FCF7DBFA95E100209FEDB4
:103D1000250BFDF723FE57A0FCF7D2FA8CE19FEDAF
:103D20005D0B53EC102B51EC190B02F077FA41ECC0
:103D30001C0B1F4890ED000B53EC102B1B4890ED13
:103D4000000B51EC100B02F075FC41EC1E0BB0EEB9
:103D50004E0AF0EE6E0A00F00FFEB0EE40DAF0EE22
:103D600060DA53EC1C2B51EC1D0B02F01BFA14D241
:103D70000F4890ED000B53EC102B0C4890ED000B0E
:103D800051EC100B01F0B4FF41EC1E0B9FED150B35
:103D900053EC102B02F068F880E0C5E0B81E85EB0C
:103DA00051B88E3F000000000000000068000020B5
:103DB0007800002060000020740000200D0A2073AD
:103DC000746570312020676F476F616C506F736945
:103DD00074696F6E20636F7272656374696F6E20B1
:103DE0006F6B200000000000000000407000002009
:103DF0006C6B000880000020B46B0008000000001D
:103E0000000024400000000000003E400D0A6361F5
:103E100072312020676F206F6E00000000000000EC
:103E200000003EC00D0A636172312020676F20627E
:103E300061636B000D0A63617231202077616974E0
:103E400020666F7220747572696E67206F72646588
:103E5000720000000D0A636172322020676F206FCC
:103E60006E0000000D0A636172322020676F2062CD
:103E700061636B000D0A636172322020776169749F
:103E800020666F7220747572696E67206F72646548
:103E900072000000000000000000104041EC1D0B0B
:103EA000B0EE4B2AF0EE6B2AB0EE481AF0EE681A2C
:103EB000B0EE4D0AF0EE6D0AFFF778FCB0EE40CAA6
:103EC000F0EE60CA0120FDF7E3FC6E4890ED000BB8
:103ED00053EC102B6C4890ED000B51EC100B01F0E3
:103EE00007FF41EC1E0B1FED410B53EC102B01F0B3
:103EF000BBFF41EC1D0BB0EE4B2AF0EE6B2AB0EE8F
:103F0000481AF0EE681AB0EE4D0AF0EE6D0AFFF7AF
:103F10004DFCB0EE40CAF0EE60CA0120FDF71EFD78
:103F20005AA0FCF7CDF987E0564890ED000B53EC12
:103F3000102B554890ED000B51EC100B02F07AFB62
:103F400041EC1C0B1FED690B53EC102B02F064FAD3
:103F500039D2B0EE4B2AF0EE6B2AB0EE481AF0EEF2
:103F6000681A494890ED000BFFF720FCB0EE40DAEC
:103F7000F0EE60DA9FED4A0B53EC102B51EC1D0B69
:103F800001F0B6FE41EC1C0B0120B0EE4C0AF0EE45
:103F90006C0AFDF77DFCB0EE4B2AF0EE6B2AB0EE1A
:103FA000481AF0EE681A374890ED000BFFF7FEFB59
:103FB000B0EE40CAF0EE60CA0120FDF7CFFC3AA097
:103FC000FCF77EF938E0B0EE4B2AF0EE6B2AB0EE4B
:103FD000481AF0EE681A2C4890ED000BFFF7E6FB4C
:103FE000B0EE40CAF0EE60CA0120FDF751FCB0EE21
:103FF0004B2AF0EE6B2AB0EE481AF0EE681A214810
:1040000090ED000BFFF7D2FBB0EE40DAF0EE60DA95
:104010009FED230B53EC102B51EC1D0B01F068FEB0
:1040200041EC1C0B0120B0EE4C0AF0EE6C0AFDF7DF
:1040300095FC24A0FCF744F91DE500BF00201FED0E
:10404000A70BFDF725FC00201FEDAA0BFDF786FC52
:104050003220FFF769FB0EE03220FFF765FB2048B6
:104060000068012807D11F480068012803D11EA05D
:10407000FCF726F900E0EFE700BF02B0BDEC0E8BC5
:1040800010BD000078000020680000200D0A676F56
:10409000206F6E207374726169676874000000009D
:1040A0000000000000004E400D0A206361723120C4
:1040B0006E6565647320746F20676F20666173742A
:1040C000000000000D0A2063617232206E65656495
:1040D0007320746F20676F206661737400000000A6
:1040E00060000020740000200D0A20737465703396
:1040F0002020676F476F616C506F736974696F6ED2
:1041000020636F7272656374696F6E206F6B20003D
:1041100010B52DED088B82B004469FEDF60BB0EE86
:10412000408AF0EE608A9FEDF50BB0EE409AF0EE1B
:10413000609A09E0F3480268F3480168F3A0FCF7CD
:10414000BFF83220FFF7F0FAEF4800680128F1DCF1
:10415000EC4800680128EDDC00209FEDE60BFDF740
:1041600097FB00209FEDE30BFDF7F8FB4FF47A700F
:10417000FFF7DAFA1EE09FEDDF0B53EC102BF3484C
:1041800090ED000B51EC100B02F046F90CD29FEDB4
:10419000D90B53EC102BEE4890ED000B51EC100BAB
:1041A00002F03AF900D206E03220FFF7BDFAE9A0AA
:1041B000FCF786F8DFE700BF0EE03220FFF7B4FA25
:1041C000EF480068012804D1EE480068012800D1BA
:1041D00003E0EDA0FCF774F8EFE700BFF4A0FCF7F4
:1041E0006FF8012C7DD1DA4890ED000B53EC102BC9
:1041F000D64890ED000B51EC100B01F0D3FF0AD222
:10420000D24890ED000BB0EE408AF0EE608AF2A04A
:10421000FCF756F809E0CE4890ED000BB0EE408A6E
:10422000F0EE608AF9A0FCF74BF853EC182BC74866
:1042300090ED000B51EC100B02F0FCF941EC1B0B64
:10424000B0EE4B0AF0EE6B0A00F096FBB0EE40AA1F
:10425000F0EE60AA53EC192B51EC1A0B01F0A2FFFF
:104260007ED8F7A0FCF72CF883E05020FFF75CFA2B
:1042700053EC182BB64890ED000B51EC100B02F0EC
:10428000D9F941EC1B0BB0EE4B0AF0EE6B0A00F0D3
:1042900073FBB0EE40AAF0EE60AA53EC192B51EC80
:1042A0001A0B01F07FFF08D8EEA0FCF709F80020F8
:1042B0009FED900BFDF752FB5CE053EC192B51EC9A
:1042C000180B02F0B7F941EC1A0BA14890ED000B66
:1042D00053EC102B51EC1A0B02F09EF80AD201207D
:1042E00000E0E8E09FEDE90BFDF738FBE9A0FBF704
:1042F000E7FF3EE053EC192B9FEDEC0B51EC100B5C
:1043000001F08CFF41EC1B0B53EC182B01F0F0FC7F
:1043100041EC1A0B8E4890ED000B53EC102B51EC36
:104320001A0B01F03FFF08D201209FEDE20BFDF7D1
:1043300015FBE2A0FBF7C4FF1BE053EC182B51EC7C
:10434000190B01F0D5FC41EC1A0B814890ED000BE4
:1043500053EC102B51EC1A0B01F024FF09D200E0B2
:1043600009E001209FEDDC0BFDF7F8FADCA0FBF77C
:10437000A7FF7AE79FE0E2A0FBF7A2FF99E05020B9
:10438000FFF7D2F9604800680090704890ED000B8C
:1043900053EC102B7A480168E248FBF791FF59482B
:1043A000006800906A4890ED000B53EC102B7548A4
:1043B0000168DD48FBF784FF53EC182B634890ED50
:1043C000000B51EC100B02F035F941EC1B0BB0EE79
:1043D0004B0AF0EE6B0A00F0CFFAB0EE40AAF0EE16
:1043E00060AA53EC192B51EC1A0B01F0DBFE08D834
:1043F0009CA0FBF765FF00209FED3E0BFDF748FA00
:1044000058E053EC192B51EC180B02F013F941EC66
:104410001A0B4E4890ED000B53EC102B51EC1A0B7D
:1044200001F0FAFF08D201209FED980BFDF730FA5A
:1044300098A0FBF745FF3CE053EC192B9FED9B0B3D
:1044400051EC100B01F0EAFE41EC1B0B53EC182B66
:1044500001F04EFC41EC1A0B3C4890ED000B53EC84
:10446000102B51EC1A0B01F09DFE08D201209FED9C
:10447000910BFDF70DFA91A0FBF722FF19E053EC29
:10448000182B51EC190B01F033FC41EC1A0B2F489F
:1044900090ED000B53EC102B51EC1A0B01F082FE47
:1044A00007D201209FED8C0BFDF7F2F98CA0FBF7F2
:1044B00007FF64E700BF3C20FFF736F900209FEDBF
:1044C0000D0BFDF7E5F900209FED0A0BFDF746FA0D
:1044D0004FF47A70FFF728F92CE13220FFF724F926
:1044E00027480068012804D126480068012800D127
:1044F0001CE11FE100000000000000007B14AE473B
:10450000E17A943F80000020700000200D0A77615E
:104510006974696E6720666F7220747572696E6760
:104520002C2020436172315F6D6F76655374617426
:1045300065203A25642C2020436172325F6D6F76CE
:104540006553746174653A2564200000680000209A
:10455000780000200D0A2077616974696E67096729
:104560006F5374617274546F676574686572206705
:104570006574204644697374616E636500000000D1
:1045800060000020740000200D0A207761697469C2
:104590006E6709676F5374617274546F67657468EE
:1045A000657220636F7272656374696F6E200000BC
:1045B0000D0A20737465703109676F5374617274EA
:1045C000546F67657468657220636F727265637497
:1045D000696F6E206F6B00000D0A20737465703177
:1045E00009676F5374617274546F6765746865729C
:1045F000203A20436172315F4644697374616E638F
:10460000652020697320676F616C20000D0A20739C
:104610007465703109676F5374617274546F6765A4
:1046200074686572203A20436172325F4644697350
:1046300074616E63652020697320676F616C200070
:104640000D0A20676F5374617274546F67657468E4
:1046500065723A73747564792066726F6D20636158
:10466000723120000D0A20676F5374617274546FA9
:104670006765746865723A436F72726563745374E8
:104680006174652020206F6B0000000000000000B6
:1046900000003EC00D0A20676F5374617274546F3E
:1046A0006765746865723A6F766572000000000095
:1046B000000010400000000000005E400D0A20676E
:1046C0006F5374617274546F6765746865723A747D
:1046D0006F6F2066617200000000000000003E4025
:1046E0000D0A20676F5374617274546F6765746844
:1046F00065723A746F6F2020746F6F20666172006C
:104700000D0A676F5374617274546F6765746865DE
:10471000723A2073747564792066726F6D206361DC
:10472000723220006C6B0008B46B000804A0FBF729
:10473000C7FD00E0D1E600BF02B0BDEC088B10BDA4
:104740000D0A2073746570332020676F5374617293
:1047500074546F67657468657220636F7272656305
:1047600074696F6E206F6B200000000010B52DED96
:10477000028B0446B0EE408AF0EE608A2046FFF7D6
:10478000C7FCB0EE480AF0EE680A2046FFF702F9CF
:10479000BDEC028B10BD000000BF00BF4FF4A06055
:1047A000FDF7F2F9A820FEF7A1FF4FF4E13001F088
:1047B00037F94FF4E13001F089F94FF4E13001F0BD
:1047C000DBF92D2015490870154908700EE015A079
:1047D000FBF776FD6420FEF7A7FF1A480068002863
:1047E00004DB19480068002800DB00E0EFE700BFA9
:1047F0009FED160B0120FFF7B9FF022001F058F8DA
:104800009FED140B0120FFF7B1FF06E04FF47A7023
:10481000FEF78AFF11A0FBF753FDF7E778020020AF
:10482000D00400200D0A2077616974696E672066E4
:104830006F7220646174612066726F6D20636172B3
:10484000730000006000002074000020A4703D0A86
:10485000D7A3E03F333333333333D33F0D0A206FD5
:104860006B20000070B505460F48007C20B90E494A
:1048700008688047012070BDB5F5804F11D26909E5
:104880000948C06830F81120002406E00020064BDB
:10489000DB680E1923F81600641C9442F6DB002036
:1048A000E9E70220E7E700004800002000B50949D9
:1048B0004FF48062C868002100F0A2F805494FF467
:1048C00080428868002100F09BF8012001490874AB
:1048D00000BD0000480000202DE9F04106460024FC
:1048E000A0461A48007C10B91849086880471EB9CC
:1048F0004FF0FF30BDE8F081C6F34F1506F01F0002
:1049000008B1681C85B240F2FF141AE00F48C06875
:1049100030F8140020B908F101001FFA80F801E016
:104920004FF00008A8450BD1002705E00748C068F4
:10493000E11920F811507F1CAF42F7D36001D9E78D
:10494000641E002CE2DA4FF0FF30D3E7480000206D
:104950000022002106E00748C06830F8110000B1CD
:10496000521C491CB1F5007FF5D364205043C0F3BD
:10497000472070474800002010B52DED048BB0EEA5
:10498000408AF0EE608A9FED0D0B53EC102B51EC3A
:10499000180B01F007FC06D251EC180B01F09CF942
:1049A00041EC190B03E0B0EE489AF0EE689AB0EED5
:1049B000490AF0EE690ABDEC048B10BD000000004E
:1049C0000000000070B5044604B970BD034880685B
:1049D000251A2846FFF746FF00BFF6E748000020EB
:1049E00070B505462846FFF777FF0446601C08B9F6
:1049F000002070BD014880682044FAE7480000208C
:104A000030B5034601E003F8011B1400A2F10102D6
:104A1000F9D130BD2DE9F04705460C4620785B28DA
:104A200004D0264804600020BDE8F0870520E86037
:104A3000601C00F0B1FF044620785D2801D1601CA5
:104A4000F2E7FEF7B1FD0646A860A86808B90020A5
:104A5000EAE7204600F0A0FF80464146304600F0DD
:104A60000DFB074600F098FF04460CB90020DBE779
:104A700017E0FEF799FD070000D1D5E737607E60AB
:104A80003E46601C00F088FF81464946304600F0F3
:104A9000F5FA804600F080FF04460CB90020C3E719
:104AA00000BF20782C28E4D020785D2801D1601C3C
:104AB000BAE7024804600020B6E700003C0000208E
:104AC000014600220878302806DB0878392803DC04
:104AD00008783038024415E00878412806DB087869
:104AE000462803DC0878373802440BE00878612850
:104AF00006DB0878662803DC08785738024401E0B2
:104B0000002070471201491C0878302806DB08781D
:104B1000392803DC08783038024415E00878412849
:104B200006DB0878462803DC0878373802440BE0B7
:104B30000878612806DB0878662803DC087857388F
:104B4000024401E00020DCE71201491C087830280B
:104B500006DB0878392803DC08783038024415E091
:104B60000878412806DB0878462803DC08783738BF
:104B700002440BE00878612806DB0878662803DC2D
:104B800008785738024401E00020BAE71201491CB6
:104B90000878302806DB0878392803DC08783038B4
:104BA000024415E00878412806DB0878462803DC33
:104BB0000878373802440BE00878612806DB08786B
:104BC000662803DC08785738024401E0002098E7A3
:104BD000104696E72DE9F0412DED0E8B05460C466B
:104BE0009FED660BB0EE408AF0EE608A9FED650B9C
:104BF000B0EE40AAF0EE60AA9FED600BB0EE409AD6
:104C0000F0EE609A0026012720782D2806D19FED2E
:104C10005F0BB0EE40AAF0EE60AA641C207830284A
:104C200000D1641C2078312821DB207839281EDC53
:104C300000BF14F8011BA1F1300001F09CFA41EC17
:104C40001B0B9FED540B53EC102B51EC180B01F088
:104C5000E5FA41EC1C0B53EC1B2B01F049F841EC3D
:104C6000180B2078302802DB20783928E1DD207805
:104C70002E282FD1607830282CDB6078392829DC69
:104C8000641C00BF14F8011BA1F1300001F073FA9D
:104C900041EC1B0B9FED3F0B53EC102B51EC180B11
:104CA00001F0BCFA41EC1C0B53EC1B2B01F020F87B
:104CB00041EC180B9FED330B53EC102B51EC190BFF
:104CC00001F0B8FC41EC190B2078302802DB207889
:104CD0003928D7DD2078652802D02078452819D1D9
:104CE000641C20782B2801D1641C05E020782D2835
:104CF00002D14FF0FF37641C06E014F8010B303886
:104D000006EB860100EB41062078302802DB207894
:104D10003928F2DD06FB07F001F02DFA41EC1E0BFD
:104D200053EC192B00F0E4FF41EC1D0BB0EE4D1AD3
:104D3000F0EE6D1A9FED170BFDF7B2FCB0EE40BA26
:104D4000F0EE60BA53EC182B51EC1A0B01F066FA36
:104D500041EC1C0B53EC1B2B01F060FA41EC180BDF
:104D600085ED068B51EC180B01F0D6F96861032034
:104D7000E8602046BDEC0E8BBDE8F081000000002D
:104D800000000000000000000000F03F00000000F4
:104D90000000F0BF00000000000024402DE9F047B3
:104DA00006460C4620787B2804D04048046000204A
:104DB000BDE8F0870620F060601C00F0EDFD0446C1
:104DC00020787D2801D1601CF2E7FEF7EDFB054657
:104DD000B060B06808B90020EAE7204600F0DCFDCA
:104DE00080464146284600F063F8074600F0D4FDAF
:104DF00004460CB90020DBE72869286200202861FE
:104E000020783A2803D0294804600020D0E7601CAD
:104E100000F0C2FD80464146284600F02FF90746C3
:104E200000F0BAFD04460CB90020C1E731E0FEF7FE
:104E3000BBFB070000D1BBE72F607D603D46601CD7
:104E400000F0AAFD81464946284600F031F8804628
:104E500000F0A2FD04460CB90020A9E728692862E9
:104E60000020286120783A2803D0104804600020F0
:104E70009EE7601C00F090FD81464946284600F000
:104E8000FDF8804600F088FD04460CB900208FE74D
:104E900000BF20782C28CAD020787D2801D1601C42
:104EA00086E702480460002082E700003C00002002
:104EB0002DE9F05F8346884608F10104002798F841
:104EC0000000222805D06A48C0F800800020BDE814
:104ED000F09F04E014F8011B5C2900D1641C2078C9
:104EE000222804D0207810B1781C0700F2D1781C59
:104EF0006049096888478146B9F1000F01D1002057
:104F0000E5E708F101044D469EE020785C2804D0D6
:104F100014F8010B05F8010B96E0641C2078722848
:104F200018D006DC622809D066280BD06E287DD107
:104F30000CE0742812D07528F9D113E0082005F888
:104F4000010B7FE00C2005F8010B7BE00A2005F83F
:104F5000010B77E00D2005F8010B73E0092005F83F
:104F6000010B6FE0601CFFF7ABFD0646241DB6F594
:104F70005C4F02D3B6F5604F00D306B962E0B6F5D8
:104F8000584F1CD3B6F55C4F19D260785C2802D11B
:104F9000A078752800D055E0E01CFFF791FD82460F
:104FA000A41DBAF55C4F02D3BAF5604F00D349E0B7
:104FB000C6F30901504661F39F2000F580360427AF
:104FC000802E01D2012708E0B6F5006F01D202273A
:104FD00003E0B6F5803F00D203273D44012F20D0E7
:104FE000022F15D0032F0AD0042F24D106F0BF00C2
:104FF00040F08001681E05460170B60900BF06F04A
:10500000BF0040F08001681E05460170B60900BF70
:1050100006F0BF0040F08001681E05460170B60929
:1050200000BF1548C05D3043C1B200E006E0681E15
:105030000546017000BF00BF3D4403E0207805F83D
:10504000010B00BF00BF641C2078222803D0207809
:1050500000287FF45AAF002028702078222800D141
:10506000641CCBF810900420CBF80C0020462EE7EF
:105070003C00002040000020066A000870B505468C
:105080000C460CB9002070BD042224A12046FBF779
:10509000D8FA18B90220E860201DF4E7052221A102
:1050A0002046FBF7CEFA18B90020E860601DEAE759
:1050B00004221EA12046FBF7C4FA20B90120E860B3
:1050C0006861201DDFE72078222804D12146284688
:1050D000FFF7EEFED7E720782D2805D0207830287E
:1050E00007DB2078392804DC21462846FFF772FDCB
:1050F000C9E720785B2804D121462846FFF78AFCBF
:10510000C1E720787B2804D121462846FFF746FED8
:10511000B9E7084804600020B5E700006E756C6CC4
:105120000000000066616C736500000074727565B4
:10513000000000003C0000202DE9F74F82B08346BC
:105140004FF0000805200190DBF8089000270025AB
:105150000020009002E07F1CD9F80090B9F1000F08
:10516000F9D17FB903204C49096888478046B8F1D6
:10517000000F03D049A14046FBF720FA404605B096
:10518000BDE8F08FB80044490968884706460EB963
:105190000020F4E7B9003046FBF705FBDBF8089088
:1051A0001FE0DDE90312491C484600F037FB824648
:1051B00029466D1C46F821A0BAF1000F0DD05046CB
:1051C000FBF720FA801C049909B1012100E00021BD
:1051D000014401980844019001E001200090D9F8B1
:1051E0000090B9F1000F02D000980028D9D00098A3
:1051F00020B929490198096888478046B8F1000F0D
:1052000001D101200090009890B1002508E056F8E7
:10521000250020B156F825002149096888476D1CF2
:10522000BD42F4DB30461E49096888470020A6E7E6
:105230005B2088F8000008F10104002020700025A0
:105240001CE056F825102046FBF7B8F956F8250063
:10525000FBF7D8F90444781EA84209D02C2004F8A2
:10526000010B049810B1202004F8010B00202070DD
:1052700056F825000A49096888476D1CBD42E0DBE5
:1052800030460749096888475D2004F8010B002073
:1052900004F8010B404672E7400000205B5D00000F
:1052A0004400002070B52DED088B054695ED060BEA
:1052B000B0EE408AF0EE608A686900F05CFF41EC75
:1052C0001B0B53EC182B01F0B5F941EC1A0BB0EEA7
:1052D0004A0AF0EE6A0AFDF74CF9B0EE409AF0EE99
:1052E000609A9FED520B53EC102B51EC190B00F010
:1052F00059FF1ED89FED4F0B53EC102B51EC180BA0
:1053000000F050FF15D89FED4D0B53EC102B51ECD6
:10531000180B01F081F80CD815204A490968884714
:105320000446002C7ED048A120466A69FAF7D4FFD3
:1053300078E040204349096888470446002C71D032
:10534000B0EE480AF0EE680AFDF71EF9B0EE40BA7A
:10535000F0EE60BA53EC182B51EC1B0B01F06AF91C
:1053600041EC1A0BB0EE4A0AF0EE6A0AFDF701F9B9
:10537000B0EE409AF0EE609A9FED2C0B53EC102BA0
:1053800051EC190B00F00EFF19D8B0EE480AF0EE00
:10539000680AFDF7EEF8B0EE409AF0EE609A9FEDE5
:1053A0002B0B53EC102B51EC190B00F0FBFE06D22B
:1053B00053EC182B27A12046FAF78EFF32E0B0EE0F
:1053C000480AF0EE680AFDF7D4F8B0EE409AF0EE25
:1053D000609A9FED220B53EC102B51EC190B00F04F
:1053E000E1FE12D3B0EE480AF0EE680AFDF7C1F80C
:1053F000B0EE409AF0EE609A9FED1A0B53EC102B32
:1054000051EC190B01F008F806D253EC182B17A138
:105410002046FAF761FF05E053EC182B14A1204653
:10542000FAF75AFF2046BDEC088B70BD0000000063
:105430000000B03C0000C0FFFFFFDF4100000000A3
:105440000000E0C1400000202564000044F3C2E4F5
:10545000E4E9634C252E3066000000008DEDB5A018
:10546000F7C6B03E0000000065CDCD4125650000C7
:10547000256600002DE9F74F88B0884616464FF0A4
:105480000009CA46002007900720049000250898CC
:105490008068029000270020019003E07F1C0298A2
:1054A0000068029002980028F8D14FBB16B108F1AD
:1054B000040100E0032108468949096888470790EC
:1054C000079818B900200BB0BDE8F08F079C7B202F
:1054D00004F8010B66B10A2004F8010B002503E073
:1054E000092004F8010B6D1CA8F10100A842F7DCAB
:1054F0007D2004F8010B002004F8010B0798E2E777
:10550000B8007749096888478146B9F1000F01D191
:105510000020D8E7B8007249096888478246BAF186
:10552000000F05D148466F49096888470020CAE73F
:10553000B9004846FBF737F9B9005046FBF733F995
:1055400008988068029008F1010816B10498404458
:1055500004902DE00299086A00F0CCF805904AF812
:10556000250032464146029800F058F929466D1C44
:10557000069049F821000598A8B1069898B10698B8
:10558000FBF740F883460598FBF73CF80BEB00016E
:10559000891C16B108F1020000E0002001440498C3
:1055A0000844049001E001200190029800680290F4
:1055B00002980028CED1019820B949490498096879
:1055C00088470790079808B9012001900198F0B129
:1055D000002510E05AF8250020B15AF8250041496D
:1055E0000968884759F8250020B159F825003D4938
:1055F000096888476D1CBD42ECDB50463949096893
:105600008847484637490968884700205BE77B217F
:10561000079801700798441C16B10A2004F8010B82
:105620000020207000253EE05EB10020039005E0E0
:10563000092004F8010B0398401C0390039840458F
:10564000F6DB5AF825102046FAF7B8FF5AF825007D
:10565000FAF7D8FF04443A2004F8010B16B10920E8
:1056600004F8010B59F825102046FAF7A7FF59F85E
:105670002500FAF7C7FF0444781EA84202D02C2068
:1056800004F8010B16B10A2004F8010B0020207069
:105690005AF8250013490968884759F82500114927
:1056A000096888476D1CBD42BEDB50460D4909683C
:1056B000884748460B49096888474EB1002503E0F2
:1056C000092004F8010B6D1CA8F10100A842F7DCC9
:1056D0007D2004F8010B002004F8010B0798F2E686
:1056E000400000204400002010B50446206900F06E
:1056F00001F810BD2DE9F04707464FF0000827B923
:1057000040A0FDF7C9FFBDE8F0873D460DE04946E2
:105710003DA0FAF749FF10B108F1010804E0B9F122
:10572000200F01DA08F105086D1C95F80090B9F119
:10573000000F04D008F101005FEA0008E7D108F18A
:10574000030033490968884706460EB90020DAE7A6
:1057500034463D46222004F8010B47E028781F28F4
:105760000ADD2878222807D028785C2804D015F88C
:10577000010B04F8010B39E05C2004F8010B15F86B
:10578000011B89460C2919D006DC082912D00929E9
:1057900020D00A2922D115E00D2917D0222905D0C1
:1057A0005C291BD15C2004F8010B1EE0222004F8C8
:1057B000010B1AE0622004F8010B16E0662004F8E1
:1057C000010B12E06E2004F8010B0EE0722004F8C9
:1057D000010B0AE0742004F8010B06E04A460DA113
:1057E0002046FAF779FD641D00BF00BF2878002825
:1057F000B4D1222004F8010B002004F8010B30463C
:1058000081E7000000000000225C080C0A0D09007E
:105810004000002075253034780000002DE9F0416B
:1058200004460D461646002714B90020BDE8F08155
:10583000207B07282CD2DFE800F0090E0413181D86
:10584000240015A0FDF728FF074621E014A0FDF76E
:1058500023FF07461CE014A0FDF71EFF074617E0D4
:105860002046FFF71FFD074612E02046FFF73CFFEA
:1058700007460DE0324629462046FFF75DFC074605
:1058800006E0324629462046FFF7F4FD074600BFF2
:1058900000BF3846CAE700006E756C6C000000005F
:1058A00066616C736500000074727565000000002D
:1058B00010B5044620469FED200BFBF7E9FF20467C
:1058C0009FED1D0BFCF74AF87820FDF72DFF14E043
:1058D0001B480068022804DA20469FED170BFBF7EF
:1058E000D7FF18480068022804DA20469FED120B03
:1058F000FCF734F84620FDF717FF1248006802282D
:10590000E6DB0F4800680228E2DB09E00D48026888
:105910000B4801680CA0FAF7D3FC0A20FDF704FF3E
:10592000074800680128F1DC064800680128EDDC22
:1059300015A0FAF7C5FC10BD000000000000000033
:1059400070000020800000200D0A77616974696E84
:105950006720666F7220747572696E672C20204311
:105960006172315F6D6F76655374617465203A259D
:10597000642C2020436172325F6D6F7665537461D1
:1059800074653A25642000000D0A747572696E67AB
:1059900020206F766572000000E0401C20B1017885
:1059A00011B101782029F8DD704700B52DED048B89
:1059B00083B041EC190B00F071FD41EC180B18EEAF
:1059C000100A18EE901A8DED008B002818BF0120E8
:1059D000084320F00040C0F17F6000F1E040C00FBC
:1059E00014D019EE101A19EE900A8DED009B0029C3
:1059F00018BF0121084320F00040C0F17F6000F192
:105A0000E040C00F04BF0120FAF731FF51EC180B42
:105A100003B0BDEC048B00BD01604860704700001E
:105A200010B588B0044601210846FCF75DF9012154
:105A30001020FCF779F9072209212248FCF73FF8EA
:105A400007220A211F48FCF73AF84FF4C06006907D
:105A500002208DF81C008DF81D0000208DF81E001E
:105A600001208DF81F0006A91648FBF7E0FF0294FD
:105A70000020ADF80C00ADF80E00ADF81000ADF848
:105A800014000C20ADF8120002A90F48FCF7E8FC46
:105A900001210D48FCF788FC012240F225510A48FB
:105AA000FCF7B8FC25208DF8040003208DF80500D4
:105AB0008DF8060001208DF8070001A8FCF728F8F2
:105AC00008B010BD000002400010014010B588B0C1
:105AD000044601210846FCF707F901214804FCF7B8
