:020000040800F2
:100000008061002061020008C51C00087D1C0008FA
:10001000C11C00089D1B0008C3250008000000004B
:10002000000000000000000000000000D11F0008D8
:10003000A11B000800000000851E0008E920000840
:100040007B0200087B0200087B0200087B0200089C
:100050007B0200087B0200087B0200087B0200088C
:100060007B0200087B0200087B0200087B0200087C
:100070007B0200087B0200087B0200087B0200086C
:100080007B0200087B0200087B0200087B0200085C
:100090007B0200087B0200087B0200087B0200084C
:1000A0007B0200087B0200087B0200087B0200083C
:1000B0007B0200087B0200087B0200087B0200082C
:1000C0007B0200087B0200087B0200087B0200081C
:1000D0007B0200085521000821220008492300085E
:1000E0007B0200087B0200087B0200087B020008FC
:1000F0007B0200087B0200087B0200087B020008EC
:100100007B0200087B0200087B0200087B020008DB
:100110007B0200087B0200087B0200087B020008CB
:100120007B0200087B0200087B0200087B020008BB
:100130007B0200087B0200087B0200087B020008AB
:100140007B0200087B0200087B0200087B0200089B
:100150007B0200087B0200087B0200087B0200088B
:100160007B0200087B0200087B0200087B0200087B
:100170007B0200087B0200087B0200087B0200086B
:100180007B0200087B02000800F002F800F058F83B
:100190000AA090E8000C82448344AAF10107DA45E2
:1001A00001D100F04DF8AFF2090EBAE80F0013F0DC
:1001B000010F18BFFB1A43F001031847D057000086
:1001C000F0570000103A24BF78C878C1FAD8520717
:1001D00024BF30C830C144BF04680C6070470000C1
:1001E0000023002400250026103A28BF78C1FBD840
:1001F000520728BF30C148BF0B607047662905F021
:100200009882652905F09582642900F09380782909
:1002100000F0CC80002070471FB505F085FA00F093
:10022000B1FD04000020002104F0BAFC401C606015
:100230000020002104F0CAFCE0601FBD10B510BD15
:1002400000F09CFE1146FFF7E7FF03F0E5FA00F02F
:10025000BAFE03B4FFF7F2FF03BC03F058F9000045
:100260000948804709480047FEE7FEE7FEE7FEE74A
:10027000FEE7FEE7FEE7FEE7FEE7FEE70448054986
:10028000054A064B70470000ED2000088901000870
:10029000805B002080610020805D0020805D002068
:1002A000704710B5044600F09FFA0068005DC00674
:1002B00002D504F1200010BD204610BD0FB41CB5BE
:1002C000074B06AA7B4469460090059800F00BFD99
:1002D0000020694600F01AFD1CBC5DF814FB00000C
:1002E000450A000070B5044685690068C10601D55D
:1002F000302600E02026C00707D070BDD4E90121D8
:1003000030469047206A401C20626D1EF6D570BDB5
:1003100070B5044685690078C00707D170BDD4E97F
:10032000012120209047206A401C20626D1EF6D5D6
:1003300070BD00002DE9F0410646002410687529C3
:10034000314616A510D0AFF30080002802DA4042F3
:1003500013A507E031688A0701D512A502E0490715
:1003600004D511A5012401E0AFF3008000210A2289
:1003700006F1240709E0B0FBF2FCB0FBF2F302FB4C
:100380001C00303078541846491C0028F3D123460D
:100390002A463046BDE8F04100F039BA00000000BE
:1003A0002D0000002B0000002000000070B5044666
:1003B0000D4621461068AFF300802188090502D55B
:1003C0000F4A7A4402E00E4A7A440E32002104F1C8
:1003D000240305E000F00F060009965D5E54491CF9
:1003E0000028F7D120780023000704D5702D02D013
:1003F00009B1022311322046BDE8704000F007BA6F
:10040000675400002DE9F05F894604464FF0000A6A
:10041000DFF824B1FB44C0F820A02046E1688847FB
:1004200000287DD0252806D0D4E901219047206AF4
:10043000401C2062F1E700255F462046E1688847BE
:100440002028064607DB312E05D2B81910F8200CFB
:1004500008B10543F1E7A80701D525F00405C4F864
:100460001CA00027C4F818A02A2E09D0304603F09B
:1004700047F838B304EB8708303EC8F8186019E035
:1004800059F8041B204604EB87029161E168884714
:10049000012F064618D1E069002820DA25F0200552
:1004A0001DE0D8F8180000EB800006EB4000303863
:1004B000C8F818002046E1688847064603F020F88F
:1004C0000028EED1012F0AD02E2E08D12046E16857
:1004D00088477F1C0646022F45F02005C4DBA06933
:1004E000002803DA404245F00105A061E80701D089
:1004F00025F01005A6B1A6F14100192802D8203632
:1005000045F400654A463146204625604D46FFF7D2
:1005100075FE60B1012807D0ED1D25F0070000E051
:1005200007E000F1080978E705F1040975E73046AE
:100530007AE7206ABDE8F09F3D540000401ECAB231
:1005400010F8011F8A4202D00029F9D1002070471B
:1005500040EA0103024630B59B0710D14FF0013449
:1005600000E008C208C91D1B9D4315EAC41FF8D04E
:1005700013F0FF0102F8011B0DD01B0AF8E711F878
:10058000013B002B02F8013B05D011F8013B002B89
:1005900002F8013BF3D130BD10B5431C02E010F866
:1005A000011B71B18107FAD14FF0013202C88C1AD8
:1005B0008C4314EAC211F9D0C01A0A0603D0C01E37
:1005C00010BDC01A10BD0A0401D0801E10BD090262
:1005D000FCD0401E10BD40EA010370B59B072ED130
:1005E0004FF00136042A2AD308C810C99D1B9D4329
:1005F000121F15EAC61517D0D8B2E1B2401A50EA58
:10060000056110D198B2A1B2401A50EA05410AD151
:1006100023F07F4024F07F41401A50EA052102D1A7
:10062000180EA0EB146070BDA342DBD018BA21BA3B
:10063000884201D9012070BD4FF0FF3070BD0AB96A
:10064000002070BD10F8013B11F8014B63B1A342CB
:100650000AD1521E08D010F8013B11F8014B1BB112
:10066000A34201D1521EEDD1181B70BD032A40F2E6
:10067000308010F0030C00F0158011F8013BBCF144
:10068000020F624498BF11F801CB00F8013B38BF5C
:1006900011F8013BA2F1040298BF00F801CB38BF6A
:1006A00000F8013B11F0030300F03583083AC0F075
:1006B000088051F8043B083A51F804CBA0E8081030
:1006C000F5E7121D5CBF51F8043B40F8043BAFF363
:1006D0000080D20724BF11F8013B11F801CB48BFBD
:1006E00011F8012B24BF00F8013B00F801CB48BFF3
:1006F00000F8012B70474FF000020429C0F012806F
:1007000010F0030C00F01B80CCF1040CBCF1020FC4
:1007100018BF00F8012BA8BF20F8022BA1EB0C0199
:1007200000F00DB85FEAC17C24BF00F8012B00F88F
:10073000012B48BF00F8012B70474FF0000200B5B5
:10074000134694469646203922BFA0E80C50A0E8F4
:100750000C50B1F12001BFF4F7AF090728BFA0E8A2
:100760000C5048BF0CC05DF804EB890028BF40F86E
:10077000042B08BF704748BF20F8022B11F0804FB0
:1007800018BF00F8012B704710B5044610F0030F96
:1007900008BF11F0030F40F015804FF0013E121F0B
:1007A000C0F20E8051F8043BA3EB0E0C2CEA030CB4
:1007B0001CEACE1C08BF40F8043BF0D0A1F10401B4
:1007C00002F10402521E08DB11F8013B002B00F875
:1007D000013BF7D11146FFF78EFF204610BD704751
:1007E000704770477047000010B500F0CBFA001D4D
:1007F00010BD00BFAD43000010B500F0C7FA00689F
:1008000010BD10B5044600F0C1FA046010BD2DE91A
:10081000F0470D4699469246044600F124080168C7
:10082000880604D5E06921F01001216000E0012074
:10083000A84201DD471B00E00027A1697A1902EBFD
:100840000900081AA0612078C00602D42046FFF7EC
:1008500049FD002608E0D4E901211AF80600904776
:10086000206A401C761C20624E45F4DB2078C006CE
:100870000AD52046FFF736FD06E0D4E901213020F5
:100880009047206A401C2062381EA7F10107F4DC63
:1008900007E0D4E9012118F805009047206A401CC0
:1008A0002062281EA5F10105F3DC2046FFF730FD8C
:1008B0002078000602D50220BDE8F0870120FBE782
:1008C00070472DE9FF4F0C461E464FF0FF378BB0A7
:1008D000D2E90001DDF860800A908A46C1F30A552A
:1008E00005B93D46002108464FF00000BAF1000F5F
:1008F00000F4400005DA00EB80004FF4400101EA0B
:1009000050004FEA9059B9F1010F00DDB9460A983D
:1009100050EA4A000ED044F61050A5F2FF35454388
:100920002F14B8F1000F1ED07542291E1EDDC9F12B
:1009300000021CE0B8F1010F4FF0000001D030219F
:1009400003E0F24305E02154401CB042FBDB30469B
:100950000022002121540B99C1F80880C1E9002030
:100960000FB0BDE8F08FBD1B6D1CDEE74A4600DA14
:10097000694206A800F094FA06AB93E8070003ABBF
:1009800083E8070050460A9900F064FB8DE80700F1
:10099000A0F500501F3800900398002D09DD42F2A9
:1009A0001F014A46084403A90390684600F0C3FDAE
:1009B00008E0A0F500504A461F3803A90390684696
:1009C00000F0CDFD8DE807000004000C03D04FF0CF
:1009D000FF30410800E01046B8F1000F03D00022BC
:1009E000009215461EE0751E05D400F0D3F9303292
:1009F00062556D1EF9D5B3460122084302D000228C
:100A00007F1C04E02078302801D100227F1E002ABC
:100A1000099786D01DE0112D07DA00F0BBF93032BE
:100A200062556D1C50EA0102F5D1084302D00098CE
:100A3000C8B10EE00021681E05E0235C625C6354CF
:100A40002254401E491C8142F7DBAB46A81B401EC6
:100A50000990002004F80B000B98099AC0F8088050
:100A6000C0E9002B7CE711264FF0000859E72DE97B
:100A7000F04F88460446D21D22F0070191B0D1E91B
:100A80000001CDE90A0101F09EFD02460B98C00F5E
:100A900001D02D2007E02068810701D52B2002E03E
:100AA000202101EAC000032A099001D0072A05DBB2
:100AB00003464146204600F0B3F90BE1207880065A
:100AC00001D5E06900E00620B8F1650F814606D047
:100AD000B8F1660F18D0B8F1670F70D131E000207F
:100AE000B9F1110F009001DB112301E009F10103BD
:100AF0000AAA01A90CA8FFF7E4FEDDE90C700026A4
:100B000009F10105834647E001204B4600904FF074
:100B100000470AAA01A90CA8FFF7D3FEDDE90DB032
:100B20000C995D46002610B909F101000D18B9EBCA
:100B3000050003D4C0F1FF3609F10105A5EB09005A
:100B40002BE0B9F1010F01DA4FF001090020B9F1F2
:100B5000110F0090484601DD112300E003460AAA68
:100B600001A90CA8FFF7ADFEDDE90C704D4600268B
:100B70008346207800070AD4AB4500DA5D4601A819
:100B8000012D04DD411911F8011C302907D04F4512
:100B900002DA17F1040F04DA012082460FE06D1E1D
:100BA000EEE7002F02DCED1B3E4403E0781CA84278
:100BB00000DD7D1CB81B00F1010A4FF000472078D2
:100BC000000703D4AA4501DB4FF0FF3A0021B7F13B
:100BD000004F0DF143088DF8431024D002202B2341
:100BE000002F01DA7F422D230A21021EA0F101000D
:100BF00000DC5FB197FBF1FC97FBF1F201FB1C7C81
:100C000017460CF1300C08F801CDEEE7A8F1010011
:100C100003702188090501D5452100E06521A0F177
:100C2000010800F8011C09980FA9A1EB0807FF1D96
:100C300000B10120411901EBEA70A1693844081A9A
:100C4000401EA0612078C00602D42046FFF74AFB70
:100C5000099828B1D4E901219047206A401C2062FC
:100C60002078C00622D52046FFF73CFB1EE0002E70
:100C700004DBB34502DD01A8805D00E03020D4E94B
:100C800001219047206A401C2062761CAAF10100D5
:100C90005FEA000A0AD100F075F8C0680168405C9C
:100CA000D4E901219047206A401C2062281EA5F14A
:100CB0000105DCDC07E0D4E9012118F8010B9047BD
:100CC000206A401C2062381EA7F10107F3DC204691
:100CD000FFF71EFB032011B043E6000001694A1C28
:100CE00002610878704700B58FB0CDE9013100216D
:100CF000059105497944CDE9031011466846FFF78F
:100D000081FB0FB000BD0000E5FFFFFF0A6802F89D
:100D1000010B0A60704710B5203AC0F00B80B1E8B3
:100D20001850203AA0E81850B1E81850A0E8185020
:100D3000BFF4F5AF5FEA027C24BFB1E81850A0E829
:100D4000185044BF18C918C0BDE810405FEA827C43
:100D500024BF51F8043B40F8043B08BF7047D2075A
:100D600028BF31F8023B48BF11F8012B28BF20F8FB
:100D7000023B48BF00F8012B704700000048704755
:100D8000205B002000487047405B0020004870470F
:100D9000205B002030B5B0F10A024FEA900E71F1ED
:100DA00000034EEA817EB0EB0E0061EB91014FEA49
:100DB000101E4EEA017E10EB0E0041EB11114FEABE
:100DC000102E4EEA016E10EB0E0041EB11214FEA9E
:100DD000104E4EEA014E10EB0E0041EB114140184F
:100DE00041F100014FEAD00040EA41704FEAD101E1
:100DF00010EB80054FEA810444EA907444EB01044F
:100E00006D1944EB0404521BA3414FF0000348BF8B
:100E10000A3200D530BD401C41F1000130BD000058
:100E20002DE9F0411F46044603260168072A01F414
:100E3000006004DB08B116A505E016A503E008B1C3
:100E400015A500E015A521F010002060A069C01EC6
:100E5000A0610FB1401EA0612046FFF743FA4FB1D9
:100E6000D4E9012138469047206A401C2062C01C0A
:100E7000206206E0206AFAE7D4E9012115F8010BA7
:100E80009047761EF8D22046FFF742FABDE8F0817F
:100E90004E414E006E616E00494E4600696E66001E
:100EA0002DE9F047814616468AB0334878440DC88C
:100EB0008DE80D0030487844801C03AC0DC884E8F0
:100EC0000D0041F69B300844372190FBF1F290FB76
:100ED000F1F5A5F1800501FB12041B3C02D564422B
:100EE000012000E00020DFF890A080460027FA44AF
:100EF000AAF1BE0A0DE0E00709D03246684607EBCA
:100F000047010AEB810100F02AFB8DE8070064101D
:100F10007F1C002CEFD1184F7F44AC3F18E0E8074E
:100F200014D007EB04100DF1180A90E80E008AE8BF
:100F30000E00C068F04201D198190890324606A907
:100F400003A800F00CFB03AB83E807006D10641CE2
:100F5000002DE4D132466946B8F1000F03A802D053
:100F600000F0E9FA01E000F0FAFAC9E90001C9F875
:100F700008200AB0BDE8F087C44A00007546FFF7B4
:100F8000FDFEAE4605006946534620F00700854643
:100F900018B020B5FFF772F9BDE820404FF0000609
:100FA0004FF000074FF000084FF0000B21F0070151
:100FB000AC46ACE8C009ACE8C009ACE8C009ACE894
:100FC000C0098D4670470446AFF300802046FFF706
:100FD00040F900004FF0013C50F8042B51F8043B5D
:100FE0009A4221D1A2EB0C03934313EACC1317D1FD
:100FF00050F8042B51F8043B9A4215D1A2EB0C0394
:10100000934313EACC130BD150F8042B51F8043B53
:101010009A4209D1A2EB0C03934313EACC13DBD021
:101020004FF00000704700BFD01A01BAB1FA81F149
:1010300001F0180122FA01F0CB40C1F12001DBB22E
:10104000C0B2C01A2CFA01F3D11A914311EAC311AC
:10105000E6D170475FEA400C08BF91F0000F4FEAFD
:101060008C234FEAC12243EA51514FEA1C5018BF6A
:1010700000F5F0404FEA300018BF41F000415FEA50
:101080006C5C00F02980BCF1FF3F08BF40F080405D
:101090007047130C06BF12044FF0100C4FF0000CF9
:1010A000130E04BF12020CF1080C130F04BF12013F
:1010B0000CF1040C930F04BF92000CF1020CD30F3F
:1010C00004BF52000CF1010C11464FF00002A0F1D8
:1010D0001F00A0EB0C00704711F0004F08BF7047D5
:1010E00031F000413FF4D5AF0B0C06BF09044FF0BF
:1010F000100C4FF0000C0B0E04BF09020CF1080C91
:101100000B0F04BF09010CF1040C8B0F04BF890005
:101110000CF1020CCB0F04BF49000CF1010CCCF117
:101120002003A0EB0C0022FA03F302FA0CF241EACE
:10113000030100F10100704720F07F4C80EA0300BA
:1011400023F07F47ACEB070303F57C5300F000402E
:1011500003F1FF032DE980494FEA154B09B44FEA2B
:10116000144325EA0B4E24EA03480FF2042606EB4B
:10117000132749083E785FEA320203FB0667C7F58A
:10118000000707FB06F64FEA54374FEAD64606F14A
:10119000020607FB066CCCF1005C4FEA1C472CEA08
:1011A000074C07FB06F40CFB06F504EB15464FEA6B
:1011B000961634BF00204FF000404FEAD13706FBAF
:1011C00007FC4FEA1C4C0CFB0BF7D21B03FB0CF784
:1011D00061EB07010CFB0EF7B0EB074072EB174217
:1011E0000CFB08F734BFA2EB0742B2EB074261EBFE
:1011F00017414FEA0C444FEA910706FB07FC4FEA00
:101200001C4C0CFB0BF7B0EBC74072EB573203FBE7
:101210000CF734BFA2EBC742B2EBC74261EB5731C8
:101220000CFB0EF7B0EBC70072EB57720CFB08F724
:1012300034BFA2EBC702B2EBC70261EB5771039F49
:101240004FEA816141EA921104EBCC044FEAD137B5
:101250004FEA826206FB07FC42EA90124FEA806086
:101260004FEA1C4C0CFB0BF7D21B03FB0CF761EB9A
:1012700007010CFB0EF7B0EB074072EB17420CFBBB
:1012800008F734BFA2EB0742B2EB074261EB17410C
:101290004FEA8C554FEA910704EB9C2406FB07FCB0
:1012A0004FEA1C4C0CFB0BF7B0EBC74072EB57320C
:1012B00003FB0CF734BFA2EBC742B2EBC74261EBB2
:1012C00057310CFB0EF7B0EBC70072EB57720CFBFB
:1012D00008F734BFA2EBC702B2EBC70261EB57714C
:1012E00015EB4C254FEA816141EA92114FEA826287
:1012F0004FEAD13742EA901206FB07FC44F10004A2
:101300004FEA80604FEA1C4C0CFB0BF7D21B03FB2F
:101310000CF761EB07010CFB0EF7B0EB074072EB2B
:1013200017420CFB08F734BFA2EB0742B2EB0742AF
:1013300061EB174115EB1C154FEA813141EA9241EF
:101340004FEA823242EA90424FEA80304FEA0C760E
:1013500044F1000448EA03434EEA0B484FF0000E04
:10136000B2EB080C71EB030724BF624639464EEB23
:101370000E0E4FF0000B0018524149414BEB0B0B86
:10138000B2EB080C71EB03077BF1000B24BF624644
:1013900039464EEB0E0E4FF0000B001852414941FA
:1013A0004BEB0B0BB2EB080C71EB03077BF1000B63
:1013B00024BF624639464EEB0E0E51EA020718BFB3
:1013C00046F0010616EB0E7655F1000254F10001CD
:1013D00003D5BDE88901BDE80088BDE88901BDE805
:1013E0000048B619524141EB0101A3F101037047D6
:1013F00080807F7E7D7C7B7A797877767675747352
:10140000727171706F6E6E6D6C6C6B6A6A69686810
:10141000676666656464636362616160605F5F5EA6
:101420005E5D5D5C5C5B5B5A5A595958585757561C
:101430005655555554545353525252515150505081
:101440004F4F4F4E4E4D4D4D4C4C4C4B4B4B4A4AD3
:101450004A49494948484847474747464646454517
:101460004544444444434343434242424241414150
:10147000002B26D4770021D01CB54FEA370703B4E0
:101480004FF010004FF010014FF000000FBCBDE80E
:1014900010400BF1010BBBF1010F08BF5FEA17070A
:1014A00022BF12F1010211F101014FF0004143F19D
:1014B000000300F0004043EA00007047F9D35708EA
:1014C000DAE746EA064613F1400F4FEA16461FDDFB
:1014D00013F1200FDFBF16430A46002120335B4281
:1014E000C8D0C3F1200746EA064602FA07F74FEADA
:1014F000164646EA0706C3F1200722FA03F201FA6C
:1015000007F721FA03F14FF0000342EA0702B1E7BF
:1015100046EA020646EA06464FEA164646EA01064B
:10152000BCBF46EA0646360C4FF000034FF00002FF
:101530004FF000019EE72DE9C048934630B491E892
:10154000380007C831EA400C48BF34EA430C03D5E1
:10155000FFF7F2FDFFF78CFFF0BCBDE800882DE936
:10156000C048934630B491E8380007C810F0804F67
:1015700008BF13F0804F03D100F005F8FFF778FFA4
:10158000F0BCBDE8008820F07F4780EA030023F02C
:101590007F4C07EB0C03A3F57C5300F00040A3F154
:1015A000FE0392F0000F00F0B38095F0000F00F002
:1015B00077802DE901494FEA11404FEA144621EAAC
:1015C000004800FB06FC24EA064708FB06F607FB7A
:1015D00008F800FB07F718EB06484CEB164C4FEAEF
:1015E000124B18EB07484FEA15464CEB174022EA1E
:1015F0000B4E0BFB06FC25EA06470EFB06F607FB27
:101600000EFE0BFB07F71EEB064E4CEB164C4FF095
:1016100000061EEB074E4CEB174B18EB0B0840F186
:10162000000018EB0E0B58EB000840F100008F1A79
:101630004FF000013CBFC943661B14BFB5EB040C5F
:1016400000213CBFC943F61B4FEA17444EEA8E0EF9
:1016500027EA04454FEA1C4704FB07622CEA074CC3
:1016600005FB07F70CFB05F604FB0CFC16EB074625
:1016700042EB174216EB0C4642EB1C421BEB0606F4
:1016800058EB0202414146EA9E0601D5BDE80189B8
:10169000B619524141EB0101A3F10103BDE80189F3
:1016A0004FEA14454FEA114724EA054621EA074C60
:1016B00005FB07F406FB07F70CFB06F105FB0CFC2A
:1016C00011EB074144EB17444FEA124711EB0C4171
:1016D00044EB1C4422EA074C05FB07F206FB07F724
:1016E0000CFB06F605FB0CFC16EB074642EB17421B
:1016F00016EB0C4642EB1C456A1854F1000148BF3A
:101700007047B619524141EB0101A3F10103704743
:1017100095F0000F37D04FEA11424FEA144721EA03
:10172000024624EA074C02FB07F106FB07F70CFB15
:1017300006F402FB0CFC14EB074441EB17414FEAA3
:10174000154714EB0C4441EB1C4125EA074C02FB06
:1017500007F506FB07F70CFB06F602FB0CFC16EB85
:10176000074645EB174516EB0C4645EB1C42121994
:1017700051F1000148BF7047B619524141EB0101D8
:10178000A3F1010370474FEA14454FEA114724EAD9
:10179000054621EA074C05FB07F106FB07F70CFBA2
:1017A00006F24FF0000605FB0CFC12EB074241EB82
:1017B000174112EB0C4251EB1C4148BF7047921885
:1017C00041EB0101A3F101037047000010B52DEDBD
:1017D000048B52480068401C18B151480068401CF6
:1017E00010B9BDEC048B10BD4E480068012803DC25
:1017F0004D480068012800DDF3E74848006810B153
:101800004748006850B900209FED480B00F0A2F84F
:1018100000209FED460B00F02FF9E2E745480068F5
:10182000B0F5FA7F04DD43480068B0F5FA7F2FDC9D
:1018300040480068B0F5FA7F0FDC3E480068B0F51C
:10184000FA7F0ADC02209FED390B00F083F80220BA
:101850009FED360B00F010F95DE036480068B0F5FA
:10186000FA7F0ADC01209FED310B00F073F80120B4
:101870009FED310B00F000F94DE001209FED2E0BA4
:1018800000F068F801209FED290B00F0F5F842E028
:10189000284909682A4A1268881A03F0FCFB41ECBF
:1018A000190BB0EE490AF0EE690A02F069F8B0EEE1
:1018B000408AF0EE608A9FED230B53EC102B51EC25
:1018C000180B03F0FFFB0AD201209FED1B0B00F069
:1018D00041F801209FED180B00F0CEF81BE01548F1
:1018E000006817490968401A00280ADD01209FEDA9
:1018F000120B00F02FF801209FED140B00F0BCF844
:1019000009E001209FED110B00F024F801209FED6C
:101910000A0B00F0B1F800BF63E700006000002090
:101920006C0000206800002074000020000000000F
:10193000000000006400002000000000000059408A
:101940007000002000000000000034400000000093
:1019500000C062402DE9F0412DED048BADF57A7D9C
:10196000B0EE408AF0EE608A054623208DF8000034
:1019700021208DF8010001F013FE80469FED2F0B12
:1019800001F0F6FD064632462EA1404601F0D8FD94
:101990009FED2E0B01F0ECFD064632462DA1404690
:1019A00001F0CEFD9FED2C0B01F0E2FD0646324624
:1019B0002BA1404601F0C4FDB0EE480AF0EE680AE3
:1019C00001F0D6FD0646324627A1404601F0B8FD9B
:1019D000284603F060FB41EC190BB0EE490AF0EE2B
:1019E000690A01F0C5FD0646324620A1404601F0D5
:1019F000A7FD404601F060FE0746404601F0DAFDD3
:101A00003846FEF7C9FD84B220128DF80200E0B21C
:101A10008DF803002246394601A8FEF7B5FE201DC9
:101A2000C1B2684603F090F8384601F0CFFF0DF5DB
:101A30007A7DBDEC048BBDE8F08100000000000061
:101A40000000084066726F6D00000000000000009A
:101A500000000040746F0000000000000000F03F34
:101A60006D73547970650000585F56006D6F766530
:101A700053746174650000002DE9F0412DED048B75
:101A8000ADF57A7DB0EE408AF0EE608A05462320FF
:101A90008DF8000021208DF8010001F081FD8046C5
:101AA0009FED2F0B01F064FD064632462EA1404605
:101AB00001F046FD9FED2E0B01F05AFD0646324621
:101AC0002DA1404601F03CFD9FED2C0B01F050FD97
:101AD000064632462BA1404601F032FDB0EE480AE0
:101AE000F0EE680A01F044FD0646324627A1404662
:101AF00001F026FD284603F0CEFA41EC190BB0EEBA
:101B0000490AF0EE690A01F033FD0646324620A18B
:101B1000404601F015FD404601F0CEFD0746404627
:101B200001F048FD3846FEF737FD84B220128DF8EB
:101B30000200E0B28DF803002246394601A8FEF704
:101B400023FE201DC1B2684603F014F8384601F0A8
:101B50003DFF0DF57A7DBDEC048BBDE8F081000002
:101B6000000000000000084066726F6D0000000079
:101B70000000000000000040746F00000000000042
:101B80000000F03F6D73547970650000585F560097
:101B90006D6F7665537461746500000000BFFEE7E9
:101BA0007047F0B50A4600210023002400BF3DE045
:101BB000012505FA01F3156805EA03049C4234D1B6
:101BC00005684F000326BE40B543056015794E00F9
:101BD000B5400668354305601579012D02D01579A9
:101BE000022D16D185684F000326BE40B54385609F
:101BF00055794E00B54086683543856045680126B5
:101C00008E40B5434560456896798E40B6B23543FF
:101C10004560C5684F000326BE40B543C560D57911
:101C20004E00B540C6683543C560491C1029BFD376
:101C3000F0BDF0B5002300244D07ED0E02FA05F3C8
:101C4000CE1000F1200555F826504E07F70E0F264E
:101C5000BE40B543CF1000F1200646F82750CE1005
:101C600000F1200555F8265045EA0304CE1000F196
:101C7000200545F82640F0BD0183704700BFFEE710
:101C80001CB50121202000F0FFF84FF4C060009047
:101C900001208DF8040000208DF8060003208DF847
:101CA000050001208DF8070069460448FFF779FF19
:101CB0004FF4C0610148FFF7DFFF1CBD0014024074
:101CC00000BFFEE77047000070B5002100230F221F
:101CD000C4781CB3174C246804F4E064C4F5E064D1
:101CE000C4F30721C1F10404E3B20A4144789C40E3
:101CF000E1B28478144021430C07210E0E4C057884
:101D00006155047804F01F050124AC4005786D117D
:101D1000AD0005F1E025C5F8004109E0047804F0C4
:101D20001F050124AC40054D0678761145F8264084
:101D300070BD00000CED00E000E400E080E100E098
:101D400002490143024A1160704700000000FA0591
:101D50000CED00E070B5174800782D2800D170BD5B
:101D6000144801F06FFC054613A1284601F04AFC17
:101D7000044615496069086014A1284601F042FC38
:101D8000044694ED061BB0EE410AF0EE610A51ECF8
:101D9000100B03F051F91049086010A1284601F01A
:101DA00031FC0446104960690860284601F002FCD5
:101DB00000BFD4E748080020436F72726563745314
:101DC000746174650000000060000020464469737F
:101DD00074616E6365000000640000206D6F7665BD
:101DE00053746174650000006800002070B51748E6
:101DF00000782D2800D170BD144801F023FC054661
:101E000013A1284601F0FEFB0446154960690860ED
:101E100014A1284601F0F6FB044694ED061BB0EE33
:101E2000410AF0EE610A51EC100B03F005F910497C
:101E3000086010A1284601F0E5FB044610496069DE
:101E40000860284601F0B6FB00BFD4E73813002035
:101E5000436F7272656374537461746500000000AF
:101E60006C0000204644697374616E636500000075
:101E7000700000206D6F766553746174650000001A
:101E8000740000207047000029B1064A126802431E
:101E9000044B1A6004E0034A12688243014B1A6043
:101EA000704700003038024029B1064A12680243E8
:101EB000044B1A6004E0034A12688243014B1A6023
:101EC000704700004038024029B1064A12680243B8
:101ED000044B1A6004E0034A12688243014B1A6003
:101EE0007047000044380240F0B500210022002471
:101EF000022500260223324F3F6807F00C0121B172
:101F0000042905D0082937D105E02E4F076036E0B7
:101F10002D4F076033E02A4F3F1F3F68C7F38056BD
:101F2000274F3F1F3F6807F03F036EB1264FB7FBB7
:101F3000F3F7DFF88CC0ACF1040CDCF800C0CCF394
:101F4000881C07FB0CF40CE01E4FB7FBF3F7DFF81F
:101F500070C0ACF1040CDCF800C0CCF3881C07FBAB
:101F60000CF4174F3F1F3F68C7F301477F1C7D00EC
:101F7000B4FBF5F7076002E0124F076000BF00BF37
:101F80000F4F3F6807F0F0010909104F7A5C0768AE
:101F9000D74047600A4F3F6807F4E051890A0B4F6A
:101FA0007A5C4768D7408760054F3F6807F4604117
:101FB000490B064F7A5C4768D740C760F0BD000008
:101FC000083802400024F40000127A00300000209B
:101FD000704700000CB50020019000903448006864
:101FE00040F480303249086000BF3148006800F496
:101FF000003000900198401C0190009818B9019899
:10200000B0F5A04FF1D12A48006800F4003010B1BB
:102010000120009001E0002000900098012846D1A6
:1020200023484030006840F080502149403108602A
:102030002048006840F440401E4908601C480830B1
:1020400000681B49083108600846006840F40040F9
:1020500008600846006840F4A05008601648091F50
:102060000860081F006840F08070091F086000BF0A
:102070000F48006800F000700028F9D040F20570A9
:102080000E4908600A480830006820F0030008493B
:10209000083108600846006840F00200086000BF90
:1020A00003480830006800F00C000828F8D10CBD87
:1020B000003802400070004008544007003C0240D5
:1020C000042808D14FF0E021096941F004014FF0E4
:1020D000E022116107E04FF0E021096921F00401DD
:1020E0004FF0E022116170477047000010B51548AD
:1020F000006840F47000134908601348006840F01D
:1021000001001149086000200F49083108600E489D
:1021100000680E4908400C4908600D48091D086018
:10212000081F006820F48020091F0860002006496D
:102130000C310860FFF74EFF4FF000600149803915
:10214000086010BD88ED00E000380240FFFFF6FE99
:102150001030002410B540F225511D4800F072F9EE
:1021600010B31B4800F028FAC4B21A48008800F4E3
:102170000040C8B91748008800F4804060B10A2CBC
:1021800003D000201349088020E01248008840F462
:1021900000401049088019E00D2C06D10D48008838
:1021A00040F480400B49088010E00A480088C0F3E2
:1021B0000D0009490C5407480088401C0549088057
:1021C00008460088C72801DD0020088010BD0000F7
:1021D00000100140080000207800002010B52B20DE
:1021E00009490870002009490870401E0849086024
:1021F0004FF47A710748FEF77EFA0020064908601E
:102200000649086010BD00000D0000200E000020EF
:10221000100000206004002014000020180000209E
:1022200010B540F225512F4800F00CF9002858D085
:102230002C48001D0088C4B22B480078F8B9232C24
:1022400008D123202949087029480068401C2849E2
:10225000086046E0212C0FD12448007823280BD1B8
:1022600023480068012807D11F49087020480068EA
:10227000401C1F49086034E0FFF7B0FF31E01A4806
:102280000078012814D11B480068401C18B92002AE
:102290001849086025E017480068401C08B3154835
:1022A000006820441349086002200F49087018E0B4
:1022B0000D480078022814D10F4810490968445489
:1022C0000E480068401C0D4908600846006809492E
:1022D0000968884205D108490948FEF739F9FFF72E
:1022E0007DFF10BD004400400E0000200D000020C6
:1022F00018000020100000206004002014000020BE
:102300004808002010B52B20094908700020094911
:102310000870401E084908604FF47A710748FEF7BC
:10232000EAF90020064908600649086010BD00006F
:102330001F0000202000002024000020500F00205B
:10234000280000202C00002010B540F225512F4815
:1023500000F078F8002857D02C48001D0088C4B23F
:102360002B480078F0B9232C08D123202949087084
:1023700029480068401C2849086045E0212C0AD102
:1023800024480078232806D123480068012802D178
:102390001F49087038E01F480078232834D1FFF720
:1023A000B1FF31E01A480078012814D11B480068B9
:1023B000401C18B920021949086025E01748006838
:1023C000401C08B3154800682044144908600220E6
:1023D0000F49087018E00E480078022814D1104800
:1023E0001049096844540F480068401C0D490860B2
:1023F0000846006809490968884205D108490A4821
:10240000FEF7A6F8FFF77EFF10BD00000048004071
:10241000200000201F0000202C00002024000020AD
:10242000500F0020280000203813002021B182899D
:1024300042F40052828104E082894DF6FF731A4013
:102440008281704770B502460024002300250020D9
:1024500040F66A16B14200D100BFC1F3421501F047
:102460001F03012606FA03F3012D02D1968933409A
:1024700006E0022D02D1168A334001E0968A3340ED
:102480000C12012606FA04F41688344013B10CB17C
:10249000012000E0002070BDF0B5034600240026B6
:1024A0000025002040F66A17B94200D100BF184647
:1024B000C1F3421401F01F06012707FA06F5012CAB
:1024C00001D10C3004E0022C01D1103000E01430B6
:1024D0001AB107682F43076002E00768AF4307603F
:1024E000F0BD00002DE9FF4705460E460024A14639
:1024F00000BFA046B08900B100BF2C8A24F440542C
:10250000F08804432C82AC8941F20C608443B0888B
:1025100031890843718908430443AC81AC8A24F4AF
:102520004074B0890443AC826846FFF7DDFC204864
:10253000854202D01F48854202D1DDF80C9001E0AF
:10254000DDF80890A88900F4004040B109EBC9000B
:1025500000EB091031684900B0FBF1F707E009EB27
:10256000C90000EB091031688900B0FBF1F7642065
:10257000B7FBF0F004012009642101FB1078A88961
:1025800000F4004040B1322000EBC800B0FBF1F095
:1025900000F00700044308E0322000EB081064213B
:1025A000B0FBF1F000F00F0004432C81BDE8FF8781
:1025B000001001400014014001468888C0F3080063
:1025C000704700BFFEE703B401984100009850EA4D
:1025D000C12018BF04204A0D18BF40F0010040F28E
:1025E000FF72B2EB515F08BF40F00200012808BF44
:1025F000052002B070472DED020B019820F000403D
:1026000001909DED000B02B070470000000000003B
:102610002DE9F0412DED020B9FED3D0B2DED028BD1
:102620009FED3D8BDDE90254C4F30A50A0F2FF3662
:10263000142E37DA002E18DA53EC102B9DED020B16
:1026400051EC100B02F0E4FA53EC182B02F074FE7C
:1026500057D2002CA4BF0024254652DA24F00040B3
:10266000284318BF2E4C4CD01AE02E4820FA06F70B
:1026700004EA070028431FD053EC102B9DED020BFA
:1026800051EC100B02F0C4FA53EC182B02F054FE7C
:1026900037D2002C03DA4FF48010F0400444BC43DE
:1026A00000252EE0332E07DCA6F114004FF0FF3199
:1026B00021FA00F73D4206D19DED020BBDEC028BE5
:1026C00002B0BDE8F08153EC102B9DED020B51ECF4
:1026D000100B02F067FE53EC182B02F02DFE10D207
:1026E000002C0DDA142E08BF641C09D0C6F134008A
:1026F000012101FA00F02844A84238BF641C0546B5
:10270000BD43CDE902549DED020BD7E70000000068
:102710009C7500883CE4377E00000000000000004B
:102720000000F0BFFFFF0F002DE9F04D2DED040B71
:102730002DED0C8B96B0DDE92350259CDDF888A0AB
:1027400025F0004624F00048BAF1000F14BF012123
:10275000002101EB4502FE4953184A1093422AD347
:10276000002814BF0123002303EB44030B44F94961
:102770008B4220D358EA00019FEDF78B6FD0DFF832
:10278000E0B35D4503D1BAF1000F05D187E0BAF19E
:10279000000F08BF002100D0012101EB450111F518
:1027A000001F08D8002814BF0121002101EB4401BB
:1027B00011F5001F0BD99DED241B9DED220B16B0CA
:1027C000BDEC0C8B04B0BDE8F04D00F05DBE002701
:1027D000002DBCBFE349884521DAE3498845A8BFFD
:1027E00002271CDAC3451ADCE04901EB2851142901
:1027F00008DDC1F1340220FA02F101FA02F282424C
:102800000DD108E058B9C1F1140228FA02F101FA19
:1028100002F2424503D101F00101C1F1020756EA7B
:102820000A011DD1002C1BDA002D18BF022F01D088
:10283000012F0AD00220FDF7E4FF16B0BDEC0C8B8F
:1028400004B0BDE8F04D00F007BE0220FDF7D9FF4F
:1028500000F002FE51EC100B02F0CEF983E01EE016
:102860009FEDC39B9FEDC4AB002872D1BD4880454E
:102870002DD105F1804010F5801008BFBAF1000F8E
:102880000DD0B34515DC002CA1BF9DED240B16B077
:10289000BDEC0C8B04B0A8BFBDE8F08D12E0B0EE2B
:1028A000480AF0EE680A16B0BDEC0C8B04B0BDE827
:1028B000F08D002C06DA9DED240B51EC100B02F08C
:1028C0009BF950E0AE48784490ED000BEBE7D8451B
:1028D0004FD1002C4ADA2EB186423BD1BAF1000F1B
:1028E00044D126E0BAF1000F13D00220FDF789FF92
:1028F00000F0E6FD8DED020B9DED220B8DED000B42
:1029000010EE900A039961F31E0003909DED020BF7
:10291000C9E78DED029B9DED220B19EE901A10EE8A
:10292000900A8DED000B61F31E0003909DED020BEC
:10293000B9E78DED02AB9DED220B1AEE901A10EE69
:10294000900A8DED000B61F31E0003909DED020BCC
:10295000A9E729E00ADA9DED220B51EC180B53ECA4
:10296000102B02F011FA41EC100B9CE79DED220BAD
:1029700099E7864218DAB4F1804F0DD0A4F10050E7
:10298000B0F1FF5010D1002D0EDB9DED220B51EC6C
:10299000100B01F09AFFE6E79DED220B53EC102B94
:1029A00051EC100B00F0AEBC9DED220B51EC100B66
:1029B00000F026FFBAF1000FCDE90C0134D19FEDF4
:1029C000720BDEB1A6F1E040B0F17F602CD1002D9A
:1029D00001DD002C0DDA002D01DD002C1FDB002DA8
:1029E00016DA002C14DB012F08BF9FED690B3FF4B2
:1029F0005AAFB0EE490AF0EE690A54E7022F18BF49
:102A0000002D0CD0012F0AD1002DFFF64CAF06E0AF
:102A1000002DB8BF002C07DA012F3FF444AFB0EE11
:102A20004A0AF0EE6A0A3EE7012000EBE57A5AEA2C
:102A300007000CD05848002580457CDD5749584890
:102A4000884514DDB0420DDB002C19DB2BE00120A2
:102A5000FDF7D7FE16B0BDEC0C8B04B0BDE8F04D11
:102A600000F01EBDB34502DC002C09DC1BE08642F1
:102A700002DA002C17DA03E05E4527DD002C12DDB8
:102A80000220FDF7BEFE00F01BFD10EE901A19EEBD
:102A9000900A8DED020B8DED009B61F31E000390FB
:102AA0009DED020BFFE60220FDF7ABFE00F018FDE6
:102AB00010EE901A18EE900A8DED020B8DED008B42
:102AC00061F31E0003909DED020BECE69DED220BE1
:102AD00053EC182B51EC100B02F03CFD9FED320B28
:102AE000CDE90A0153EC102B9DED0A0B51EC100BB4
:102AF00002F024FB9FED2E1B53EC112B02F052FC35
:102B00009DED0A1B53EC112B02F018FB9FED2A1BC5
:102B100053EC112B02F046FC9DED0A0B41EC190B16
:102B200053EC102B51EC100B02F008FB53EC192B5B
:102B300002F004FB00E07EE09FED210B41EC1A0B5C
:102B400053EC102B9DED0A0B51EC100B3CE00000F8
:102B5000FFFF1F00FFFF0F00000000000000F03F1C
:102B60000000F03F0000F07F0000404301FCFFFF49
:102B7000000000000000F07F0000000000000000E6
:102B8000263000000000000000000000000000806F
:102B9000000000000000F0FF0000E0410000F043F2
:102BA000FFFFEF3F00000000000000000000D03FEA
:102BB000555555555555D53F000000000000E03FE4
:102BC000000000604715F73F02F0B8FA41EC190B1E
:102BD0009FEDFD0B51EC1A0B53EC102B02F0AEFAEB
:102BE00041EC1A0B9FEDFA0B53EC102B9DED0A0BE9
:102BF00051EC100B02F0A2FA53EC1A2B02F0AAFCD3
:102C000041EC1A0B51EC190B53EC1A2B02F000F8A3
:102C10000690CDE906519DED060B53EC192B51ECB6
:102C2000100B02F097FC53EC1A2B02F0BBFB41ECAB
:102C3000100B00F09FB90020B6F5801F0EDA9FED53
:102C4000E60B53EC102B9DED0C0B51EC100B02F02E
:102C500075FACDE90C016FF034000E4600EB2650FA
:102C6000A0F2FF38C6F31300DD4940F07F6646F05E
:102C700040568842D8BF002409DDDA498142C8BFE6
:102C8000012404DC0024A6F5801608F10108D648CA
:102C9000784400EBC4000D9690ED00BB9DED0C0B4D
:102CA00053EC1B2B51EC100B02F054FC9DED0C0B64
:102CB00041EC1A0B53EC1B2B51EC100B01F0A8FF4D
:102CC00041EC100B51EC180B53EC102B02F05CF89C
:102CD00041EC1C0B51EC1A0B53EC1C2B02F02EFA9E
:102CE00041EC190BC1488DED109B7844109590ED87
:102CF000000B4FF0005040EA660000EB84408DED81
:102D00000A0B00F500200B909DED0A0B53EC1B2BDA
:102D100051EC100B02F01EFC9DED0C1B53EC112B23
:102D200002F040FB41EC100B53EC102B9DED100B0F
:102D300051EC100B02F002FA9DED0A0B41EC1B0B5B
:102D400053EC102B9DED100B51EC100B02F0F6F92B
:102D500053EC1A2B02F026FB53EC1B2B02F0FAFB70
:102D600053EC1C2B02F0EAF941EC1B0B53EC192B32
:102D700051EC190B02F0E2F941EC1A0B9C480621C8
:102D8000B0EE4A0AF0EE6A0A784400F0E9FAB0EED2
:102D900040CAF0EE60CA53EC1A2B51EC1A0B02F049
:102DA000CDF953EC1C2B02F0C9F99DED100B41EC51
:102DB0001A0B53EC192B51EC100B01F029FF53ECBB
:102DC0001B2B02F0BBF953EC1A2B01F021FF9DEDF8
:102DD000100B41EC1A0B53EC102B51EC100B02F0C2
:102DE000ADF941EC1C0B9FED84DB53EC1D2B01F086
:102DF0000FFF53EC1A2B01F00BFF0A90CDE90A519B
:102E00009DED0A0B53EC1D2B51EC100B02F0A2FBB5
:102E100053EC1C2B02F09EFB53EC1A2B02F0C2FA6F
:102E20009DED0A0B41EC1C0B53EC102B9DED100B90
:102E300051EC100B02F082F941EC1A0B53EC192BF8
:102E400051EC1C0B02F07AF99DED0A0B41EC190BC9
:102E500053EC102B51EC1B0B02F070F953EC192BB7
:102E600001F0D6FE41EC190B51EC1A0B53EC192B67
:102E700001F0CEFE1090CDE910519DED100B53ECFA
:102E80001A2B51EC100B02F065FB53EC192B02F0DE
:102E900089FA41EC190B9FED5A0B53EC102B9DED69
:102EA000100B51EC100B02F049F941EC1A0B9FED9D
:102EB000560B51EC190B53EC102B02F03FF941EC7F
:102EC000190B9FED530B53EC102B9DED100B51EC98
:102ED000100B02F033F953EC192B01F099FE41EC81
:102EE000100B4D48784400EBC40090ED001B51ECF2
:102EF000100B53EC112B01F08BFE41EC190B4046EB
:102F000002F0C9F8CDE90A0153EC192B51EC1A0B68
:102F100001F07EFE41EC100B4048784400EBC40009
:102F200090ED00BB51EC100B53EC1B2B01F070FE2D
:102F30009DED0A1B53EC112B01F06AFE0690CDE9C2
:102F400006519DED0A0B53EC102B9DED060B51EC39
:102F5000100B02F0FFFA53EC1B2B02F0FBFA53ECC0
:102F60001A2B02F0F7FA53EC192B02F01BFA41EC82
:102F7000100B00BF781EB0EE48AAF0EE68AA5AEA1D
:102F8000000008BF9FED268B9DED241B53EC102BFA
:102F90008DED001B00959DED240B51EC100B02F004
:102FA000CDF89DED000B41EC190B53EC102B9DED72
:102FB000240B51EC100B02F0CDFA9DED061B53ECE7
:102FC000112B02F0BBF82FE0FE822B654715F73F6F
:102FD00044DF5DF80BAE543E0000000000004043AB
:102FE0008E9803007AB60B00D42B0000022C000050
:102FF0000C2B000000000000000000000000084052
:10300000000000E009C7EE3FFD033ADC09C7EE3FD0
:10301000F5015B14E02F3EBEA02900005A290000F4
:10302000000000000000F0BF53EC192B01F0F0FD90
:103030009DED060B41EC190B53EC102B9DED000B95
:1030400051EC100B02F07AF8CDE910019DED100B58
:1030500051EC190B53EC102B01F0DAFDCDE9020114
:103060000C46AB498C422FDB611A084318D19DED09
:10307000100B53EC102B9DED020B51EC100B02F0DA
:1030800069FA41EC1B0B9FEDA40B51EC190B53ECAF
:10309000102B01F0BDFD53EC1B2B02F04DF92DD28E
:1030A0000220FDF7AEFB00F00BFA10EE901A18EEBE
:1030B000900A8DED020B8DED008B61F31E000390E5
:1030C0009DED020BFFF7EFBB954A24F000419142C2
:1030D00014D39449214408437FF4E5AC9DED100BD3
:1030E00053EC102B9DED020B51EC100B02F032FA59
:1030F00053EC192B02F020F97FF6D5AC24F00040F8
:1031000089498A4A002601EB205182422BDA481C69
:103110004FF4801121FA00F02044854AC0F30A518F
:103120007A44A1F2FF3192ED000B824A8DED0A0B39
:10313000CA4020EA0202C0F3130040F48010C1F13B
:10314000140120FA01F60B92002CB8BF76429DEDD7
:103150000A0B53EC102B9DED100B51EC100B02F0F1
:10316000F9F9CDE910019DED100B51EC190B53EC61
:10317000102B01F04DFD9FED700B0A90CDE90A5127
:1031800053EC102B9DED0A0B51EC100B01F0D6FF08
:1031900041EC1B0B9FED6A0B53EC102B9DED0A0BC2
:1031A00051EC100B01F0CAFF9DED100B41EC1C0B14
:1031B00053EC102B9DED0A0B51EC100B02F0CAF9E9
:1031C00053EC192B02F0EEF89FED5F1B53EC112B23
:1031D00001F0B4FF53EC1C2B01F01AFD41EC190B6C
:1031E00051EC1B0B53EC192B01F012FDCDE9020140
:1031F0009DED020B53EC1B2B51EC100B02F0AAF9C6
:1032000053EC192B02F0CEF89DED020B41EC190B9B
:1032100053EC102B51EC100B01F090FFCDE90A019B
:103220004B489DED0A0B0521784400F099F89DED7F
:103230000A1B51EC100B53EC112B01F07FFF9DED9D
:10324000021B53EC112B02F0ADF8CDE906019DED08
:10325000020B53EC192B51EC100B01F06FFF53ECE8
:10326000192B01F0D5FC9FED3C0B41EC190B53ECF5
:10327000102B9DED060B51EC100B02F06BF99DED40
:10328000060B41EC1B0B53EC102B9DED020B51EC8C
:10329000100B01F053FF53EC1B2B01F075FD53ECA9
:1032A000192B02F057F99DED021B53EC112B02F084
:1032B00051F953EC1A2B02F075F8CDE9020101EB3C
:1032C000065001150029C8BF039015DC9DED020BC7
:1032D000324651EC100B02F060FAFFF774F9042843
:1032E00008BF00F0FDF832469DED020B51EC100BCB
:1032F00002F053FACDE902019DED020B51EC180BDF
:1033000053EC102B01F01AFFFFF72DBB000000005B
:103310000000904000000000FE822B654715973C9E
:1033200000CC904000346F3F01FCFFFF0000E03F05
:10333000CC270000FFFF0F0000000000432EE63FF7
:10334000396CA80C615C20BEEF39FAFE422EE63FD4
:103350009C2600000000000000000000000000406B
:1033600070B504462DED028B4D1E00EBC500B0EE8E
:10337000408AF0EE608A90ED000B35F0060017D021
:1033800053EC182B51EC100B01F0D8FE41EC100B54
:103390006D1E04EBC50090ED001B51EC100B53ECBF
:1033A000112B01F035FC41EC100B35F00600E7D194
:1033B000022D36D0042D1CD0062D1CBFBDEC028B77
:1033C00070BD53EC182B51EC100B01F0B7FE94EDCF
:1033D0000A1B53EC112B01F01BFC53EC182B01F0D2
:1033E000ADFE94ED081B53EC112B01F011FC41ECE8
:1033F000100B53EC182B51EC100B01F09FFE94EDC9
:10340000061B53EC112B01F003FC53EC182B01F0BD
:1034100095FE94ED040B53EC102B01F0F9FB41ECFD
:10342000100B53EC182B51EC100B01F087FE94EDB0
:10343000021B53EC112B01F0EBFB53EC182B01F0AA
:103440007DFE94ED001B53EC112B01F0E1FBBDEC74
:10345000028B41EC100B70BD9FED070B10B553ECC8
:10346000102B9FED070B51EC100B01F08DFC41EC84
:10347000100B10BD00000000000000000000000064
:10348000000000000000F03F10B553EC112B51EC90
:10349000100B01F0BDFB41EC100B10BD0000000053
:1034A0009FED050B10B553EC102B51EC100B01F0F8
:1034B0006BFC41EC100B10BD000000000000000090
:1034C0009FED050B10B553EC102B51EC100B01F0D8
:1034D00035FE41EC100B10BD000000000000007034
:1034E0009FED050B10B553EC102B51EC100B01F0B8
:1034F00025FE41EC100B10BD000000000000001084
:1035000030380A2801D20120704700207047014658
:1035100000BF704770B505460E46AC6806B970BD71
:103520000CB9AE6009E000E0246814B120680028FE
:10353000FAD13146204601F0FFF900BFEFE7000065
:1035400070B506460D46144604B970BD206A18B120
:103550000649206A09688847284600F0DBF820629F
:1035600021463046FFF7D6FF00BFEEE75C000020A3
:1035700010B52DED028BB0EE408AF0EE608A00F0BF
:1035800051F8044644B10320E06084ED068B51EC11
:10359000180B01F051FD60612046BDEC028B10BD9F
:1035A00010B500F03FF804460CB10620E06020465C
:1035B00010BD000070B504461EE02568A08900F427
:1035C000807020B9A06810B1A068FFF7F3FFA08950
:1035D00000F4807028B9206918B109492069096888
:1035E0008847206A18B10649206A0968884720463A
:1035F0000349096888472C46002CDED170BD0000C5
:103600005C00002070B505460E46AC6800E02468FA
:103610002CB13146206A00F057F80028F7D1204637
:1036200070BD000010B52820054909688847044688
:103630001CB128212046FDF780F8204610BD00006F
:103640005800002010B5044600221146204600F024
:1036500001F810BD2DE9F04780460D4616460024BE
:10366000FFF7E0FF07460020124908600FB9BDE8E8
:10367000F087404601F020F981464946384600F07F
:1036800001FD044624B93846FFF794FF0020EEE719
:1036900066B1204601F010F90446207830B1384672
:1036A000FFF788FF034804600020E0E705B12C60C5
:1036B0003846DCE75400002010B504460122002102
:1036C000204601F0AFF810BD70B504460D462CB988
:1036D000AC4201D0012070BD0020FCE70DB90120F3
:1036E000F9E705E0207808B90020F4E7641C6D1CB8
:1036F0002078FCF7D6FD06462878FCF7D2FD8642F6
:10370000F0D02078FCF7CDFD06462878FCF7C9FDFF
:10371000301AE0E770B504462046FCF73DFF451C33
:103720002846064909688847060000D170BD2A4628
:1037300021463046FCF79AFF3046F7E75800002054
:1037400010B504466FF00400FEF7BAFCE11704EB75
:103750005171C1F3C701074A11701046007800EBA0
:103760004001C1EBC0104FF6FF7101EAC0000249F1
:10377000088010BD000000200200002070B5044643
:103780004FF4077094FBF0F0C6B24FF4077094FB4F
:10379000F0F100FB114085B205E04FF4077000F036
:1037A00009F8701EC6B2002EF7D115B1284600F0F8
:1037B00001F870BD0146114A12884A434FF0E023D8
:1037C0005A6100229A611A46126942F001021A6196
:1037D00000BF4FF0E022106900F001021AB100F4BE
:1037E0008032002AF5D04FF0E022126922F0010267
:1037F0004FF0E0231A6100229A6170470200002016
:1038000082B0CDE9000121F0004001909DED000B58
:1038100002B051EC100B704700BF4FF4A060FEF7F0
:103820008FFAA820FFF78CFF4FF4E13001F036F952
:103830004FF4E13001F084F84FF4E13001F0D6F8B4
:10384000FEF71EFA2D20074908700749087008E0A6
:103850000A20FFF793FFFEF7C9FAFEF77BFAFDF7A0
:10386000B5FFF5E7480800203813002070B505467D
:103870000F48007C20B90E4908688047012070BDC0
:10388000B5F5804F11D269090948C06830F8112098
:10389000002406E00020064BDB680E1923F8160012
:1038A000641C9442F6DB0020E9E70220E7E7000011
:1038B0004000002000B509494FF48062C86800212B
:1038C00000F0A2F805494FF480428868002100F01A
:1038D0009BF801200149087400BD00004000002051
:1038E0002DE9F04106460024A0461A48007C10B994
:1038F0001849086880471EB94FF0FF30BDE8F081D5
:10390000C6F34F1506F01F0008B1681C85B240F2DF
:10391000FF141AE00F48C06830F8140020B908F10D
:1039200001001FFA80F801E04FF00008A8450BD114
:10393000002705E00748C068E11920F811507F1CF6
:10394000AF42F7D36001D9E7641E002CE2DA4FF0F2
:10395000FF30D3E7400000200022002106E00748A6
:10396000C06830F8110000B1521C491CB1F5007F4D
:10397000F5D364205043C0F3472070474000002037
:1039800010B52DED048BB0EE408AF0EE608A9FED0D
:103990000D0B53EC102B51EC180B01F093FB06D2DE
:1039A00051EC180B01F028F941EC190B03E0B0EED3
:1039B000489AF0EE689AB0EE490AF0EE690ABDEC5A
:1039C000048B10BD000000000000000070B504462C
:1039D00004B970BD03488068251A2846FFF746FFE2
:1039E00000BFF6E74000002070B505462846FFF707
:1039F00077FF0446601C08B9002070BD014880684C
:103A00002044FAE74000002030B5034601E003F807
:103A1000011B1400A2F10102F9D130BD2DE9F047DC
:103A200005460C4620785B2804D026480460002018
:103A3000BDE8F0870520E860601C00F03DFF04460B
:103A400020785D2801D1601CF2E7FFF7EBFD064608
:103A5000A860A86808B90020EAE7204600F02CFF1B
:103A600080464146304600F00DFB074600F024FF3B
:103A700004460CB90020DBE717E0FFF7D3FD070091
:103A800000D1D5E737607E603E46601C00F014FF31
:103A900081464946304600F0F5FA804600F00CFFBA
:103AA00004460CB90020C3E700BF20782C28E4D0DE
:103AB00020785D2801D1601CBAE70248046000202C
:103AC000B6E70000540000200146002208783028A4
:103AD00006DB0878392803DC08783038024415E022
:103AE0000878412806DB0878462803DC0878373850
:103AF00002440BE00878612806DB0878662803DCBE
:103B000008785738024401E0002070471201491C30
:103B10000878302806DB0878392803DC0878303844
:103B2000024415E00878412806DB0878462803DCC3
:103B30000878373802440BE00878612806DB0878FB
:103B4000662803DC08785738024401E00020DCE7EF
:103B50001201491C0878302806DB0878392803DC74
:103B600008783038024415E00878412806DB0878E8
:103B7000462803DC0878373802440BE008786128CF
:103B800006DB0878662803DC08785738024401E031
:103B90000020BAE71201491C0878302806DB0878B3
:103BA000392803DC08783038024415E008784128C9
:103BB00006DB0878462803DC0878373802440BE037
:103BC0000878612806DB0878662803DC087857380F
:103BD000024401E0002098E7104696E72DE9F04105
:103BE0002DED0E8B05460C469FED660BB0EE408A20
:103BF000F0EE608A9FED650BB0EE40AAF0EE60AA91
:103C00009FED600BB0EE409AF0EE609A002601271F
:103C100020782D2806D19FED5F0BB0EE40AAF0EE84
:103C200060AA641C2078302800D1641C20783128D8
:103C300021DB207839281EDC00BF14F8011BA1F11C
:103C4000300001F028FA41EC1B0B9FED540B53ECB4
:103C5000102B51EC180B01F071FA41EC1C0B53ECDA
:103C60001B2B00F0D5FF41EC180B2078302802DB2D
:103C700020783928E1DD20782E282FD1607830286F
:103C80002CDB6078392829DC641C00BF14F8011B88
:103C9000A1F1300001F0FFF941EC1B0B9FED3F0B50
:103CA00053EC102B51EC180B01F048FA41EC1C0BB3
:103CB00053EC1B2B00F0ACFF41EC180B9FED330BCA
:103CC00053EC102B51EC190B01F044FC41EC190B97
:103CD0002078302802DB20783928D7DD2078652845
:103CE00002D02078452819D1641C20782B2801D1D6
:103CF000641C05E020782D2802D14FF0FF37641CAA
:103D000006E014F8010B303806EB860100EB4106A3
:103D10002078302802DB20783928F2DD06FB07F016
:103D200001F0B9F941EC1E0B53EC192B00F070FFB8
:103D300041EC1D0BB0EE4D1AF0EE6D1A9FED170B16
:103D4000FEF7F2FCB0EE40BAF0EE60BA53EC182B7E
:103D500051EC1A0B01F0F2F941EC1C0B53EC1B2B4C
:103D600001F0ECF941EC180B85ED068B51EC180BCA
:103D700001F062F968610320E8602046BDEC0E8B1B
:103D8000BDE8F0810000000000000000000000001D
:103D90000000F03F000000000000F0BF0000000045
:103DA000000024402DE9F04706460C4620787B2889
:103DB00004D0404804600020BDE8F0870620F06091
:103DC000601C00F079FD044620787D2801D1601C3C
:103DD000F2E7FFF727FC0546B060B06808B900209D
:103DE000EAE7204600F068FD80464146284600F09C
:103DF00063F8074600F060FD04460CB90020DBE7DD
:103E0000286928620020286120783A2803D02948B0
:103E100004600020D0E7601C00F04EFD8046414663
:103E2000284600F02FF9074600F046FD04460CB97D
:103E30000020C1E731E0FFF7F5FB070000D1BBE749
:103E40002F607D603D46601C00F036FD814649468E
:103E5000284600F031F8804600F02EFD04460CB9EB
:103E60000020A9E7286928620020286120783A28E4
:103E700003D01048046000209EE7601C00F01CFD89
:103E800081464946284600F0FDF8804600F014FDC2
:103E900004460CB900208FE700BF20782C28CAD038
:103EA00020787D2801D1601C86E70248046000204C
:103EB00082E70000540000202DE9F05F8346884629
:103EC00008F10104002798F80000222805D06A486C
:103ED000C0F800800020BDE8F09F04E014F8011B4A
:103EE0005C2900D1641C2078222804D0207810B1ED
:103EF000781C0700F2D1781C604909688847814620
:103F0000B9F1000F01D10020E5E708F101044D46A9
:103F10009EE020785C2804D014F8010B05F8010B12
:103F200096E0641C2078722818D006DC622809D03C
:103F300066280BD06E287DD10CE0742812D075282D
:103F4000F9D113E0082005F8010B7FE00C2005F8FB
:103F5000010B7BE00A2005F8010B77E00D2005F846
:103F6000010B73E0092005F8010B6FE0601CFFF7FF
:103F7000ABFD0646241DB6F55C4F02D3B6F5604F87
:103F800000D306B962E0B6F5584F1CD3B6F55C4FC6
:103F900019D260785C2802D1A078752800D055E04D
:103FA000E01CFFF791FD8246A41DBAF55C4F02D3D9
:103FB000BAF5604F00D349E0C6F30901504661F3FA
:103FC0009F2000F580360427802E01D2012708E0CB
:103FD000B6F5006F01D2022703E0B6F5803F00D2AC
:103FE00003273D44012F20D0022F15D0032F0AD0E4
:103FF000042F24D106F0BF0040F08001681E054662
:104000000170B60900BF06F0BF0040F08001681ED5
:1040100005460170B60900BF06F0BF0040F0800100
:10402000681E05460170B60900BF1548C05D3043E3
:10403000C1B200E006E0681E0546017000BF00BF87
:104040003D4403E0207805F8010B00BF00BF641C6D
:104050002078222803D0207800287FF45AAF00204F
:1040600028702078222800D1641CCBF810900420FE
:10407000CBF80C0020462EE754000020580000200A
:104080002658000870B505460C460CB9002070BDD6
:10409000042224A12046FCF79EFA18B90220E86009
:1040A000201DF4E7052221A12046FCF794FA18B957
:1040B0000020E860601DEAE704221EA12046FCF70C
:1040C0008AFA20B90120E8606861201DDFE72078C6
:1040D000222804D121462846FFF7EEFED7E72078B4
:1040E0002D2805D02078302807DB2078392804DCFB
:1040F00021462846FFF772FDC9E720785B2804D1E6
:1041000021462846FFF78AFCC1E720787B2804D1A6
:1041100021462846FFF746FEB9E70848046000201C
:10412000B5E700006E756C6C0000000066616C7392
:1041300065000000747275650000000054000020E6
:104140002DE9F74F82B083464FF00008052001901B
:10415000DBF80890002700250020009002E07F1C7B
:10416000D9F80090B9F1000FF9D17FB903204C497B
:10417000096888478046B8F1000F03D049A140463E
:10418000FCF7E6F9404605B0BDE8F08FB8004449B9
:104190000968884706460EB90020F4E7B9003046A2
:1041A000FCF7CBFADBF808901FE0DDE90312491CAD
:1041B000484600F037FB824629466D1C46F821A090
:1041C000BAF1000F0DD05046FCF7E6F9801C0499B7
:1041D00009B1012100E00021014401980844019047
:1041E00001E001200090D9F80090B9F1000F02D051
:1041F00000980028D9D0009820B929490198096869
:1042000088478046B8F1000F01D101200090009846
:1042100090B1002508E056F8250020B156F8250099
:104220002149096888476D1CBD42F4DB30461E49B0
:10423000096888470020A6E75B2088F8000008F19D
:1042400001040020207000251CE056F825102046AF
:10425000FCF77EF956F82500FCF79EF90444781E19
:10426000A84209D02C2004F8010B049810B120209A
:1042700004F8010B0020207056F825000A4909684F
:1042800088476D1CBD42E0DB304607490968884716
:104290005D2004F8010B002004F8010B404672E792
:1042A000580000205B5D00005C00002070B52DED23
:1042B000088B054695ED060BB0EE408AF0EE608A5D
:1042C000686900F0E8FE41EC1B0B53EC182B01F081
:1042D00041F941EC1A0BB0EE4A0AF0EE6A0AFEF719
:1042E0008AF9B0EE409AF0EE609A9FED520B53ECD3
:1042F000102B51EC190B00F0E5FE1ED89FED4F0B73
:1043000053EC102B51EC180B00F0DCFE15D89FED90
:104310004D0B53EC102B51EC180B01F00DF80CD891
:1043200015204A49096888470446002C7ED048A1D8
:1043300020466A69FBF7C2FF78E0402043490968DC
:1043400088470446002C71D0B0EE480AF0EE680AA7
:10435000FEF75EF9B0EE40BAF0EE60BA53EC182BFF
:1043600051EC1B0B01F0F6F841EC1A0BB0EE4A0AC7
:10437000F0EE6A0AFEF73FF9B0EE409AF0EE609A6E
:104380009FED2C0B53EC102B51EC190B00F09AFE07
:1043900019D8B0EE480AF0EE680AFEF72CF9B0EE34
:1043A000409AF0EE609A9FED2B0B53EC102B51ECE2
:1043B000190B00F087FE06D253EC182B27A12046DC
:1043C000FBF77CFF32E0B0EE480AF0EE680AFEF739
:1043D00012F9B0EE409AF0EE609A9FED220B53EC8A
:1043E000102B51EC190B00F06DFE12D3B0EE480A01
:1043F000F0EE680AFEF7FFF8B0EE409AF0EE609A31
:104400009FED1A0B53EC102B51EC190B00F094FF9D
:1044100006D253EC182B17A12046FBF74FFF05E0FF
:1044200053EC182B14A12046FBF748FF2046BDECA7
:10443000088B70BD000000000000B03C0000C0FF11
:10444000FFFFDF41000000000000E0C15800002035
:104450002564000044F3C2E4E4E9634C252E306691
:10446000000000008DEDB5A0F7C6B03E00000000D2
:1044700065CDCD4125650000256600002DE9F74F8B
:1044800088B0884616464FF00009CA4600200790BB
:1044900007200490002508988068029000270020DB
:1044A000019003E07F1C02980068029002980028A7
:1044B000F8D14FBB16B108F1040100E00321084612
:1044C0008949096888470790079818B900200BB0F8
:1044D000BDE8F08F079C7B2004F8010B66B10A2031
:1044E00004F8010B002503E0092004F8010B6D1C02
:1044F000A8F10100A842F7DC7D2004F8010B0020A0
:1045000004F8010B0798E2E7B80077490968884783
:104510008146B9F1000F01D10020D8E7B8007249F7
:10452000096888478246BAF1000F05D148466F49AD
:10453000096888470020CAE7B9004846FCF7FDF83B
:10454000B9005046FCF7F9F808988068029008F125
:10455000010816B10498404404902DE00299086ABD
:1045600000F0CCF805904AF8250032464146029802
:1045700000F058F929466D1C069049F8210005986D
:10458000A8B1069898B10698FCF706F883460598F6
:10459000FCF702F80BEB0001891C16B108F10200D0
:1045A00000E00020014404980844049001E0012048
:1045B000019002980068029002980028CED10198DC
:1045C00020B949490498096888470790079808B9AD
:1045D000012001900198F0B1002510E05AF8250063
:1045E00020B15AF8250041490968884759F8250043
:1045F00020B159F825003D49096888476D1CBD4226
:10460000ECDB50463949096888474846374909680C
:10461000884700205BE77B21079801700798441CBE
:1046200016B10A2004F8010B0020207000253EE09E
:104630005EB10020039005E0092004F8010B039807
:10464000401C039003984045F6DB5AF8251020469D
:10465000FBF77EFF5AF82500FBF79EFF04443A2043
:1046600004F8010B16B1092004F8010B59F82510C4
:104670002046FBF76DFF59F82500FBF78DFF04443A
:10468000781EA84202D02C2004F8010B16B10A2093
:1046900004F8010B002020705AF82500134909681E
:1046A000884759F825001149096888476D1CBD42A3
:1046B000BEDB50460D490968884748460B490968E2
:1046C00088474EB1002503E0092004F8010B6D1C5A
:1046D000A8F10100A842F7DC7D2004F8010B0020BE
:1046E00004F8010B0798F2E6580000205C00002057
:1046F00010B50446206900F001F810BD2DE9F0471F
:1047000007464FF0000827B940A0FFF703F8BDE8BF
:10471000F0873D460DE049463DA0FBF70FFF10B185
:1047200008F1010804E0B9F1200F01DA08F10508E9
:104730006D1C95F80090B9F1000F04D008F101004C
:104740005FEA0008E7D108F10300334909688847A8
:1047500006460EB90020DAE734463D46222004F82A
:10476000010B47E028781F280ADD2878222807D087
:1047700028785C2804D015F8010B04F8010B39E007
:104780005C2004F8010B15F8011B89460C2919D08F
:1047900006DC082912D0092920D00A2922D115E0E7
:1047A0000D2917D0222905D05C291BD15C2004F8E3
:1047B000010B1EE0222004F8010B1AE0622004F82D
:1047C000010B16E0662004F8010B12E06E2004F8DD
:1047D000010B0EE0722004F8010B0AE0742004F8CB
:1047E000010B06E04A460DA12046FBF767FD641D5C
:1047F00000BF00BF28780028B4D1222004F8010BA4
:10480000002004F8010B304681E7000000000000A2
:10481000225C080C0A0D0900580000207525303470
:10482000780000002DE9F04104460D4616460027A9
:1048300014B90020BDE8F081207B07282CD2DFE8E6
:1048400000F0090E0413181D240015A0FEF762FFE6
:10485000074621E014A0FEF75DFF07461CE014A008
:10486000FEF758FF074617E02046FFF71FFD0746F3
:1048700012E02046FFF73CFF07460DE0324629468E
:104880002046FFF75DFC074606E0324629462046F3
:10489000FFF7F4FD074600BF00BF3846CAE7000037
:1048A0006E756C6C0000000066616C736500000042
:1048B000747275650000000000E0401C20B10178B2
:1048C00011B101782029F8DD704700B52DED048B7A
:1048D00083B041EC190B00F071FD41EC180B18EEA0
:1048E000100A18EE901A8DED008B002818BF0120D9
:1048F000084320F00040C0F17F6000F1E040C00FAD
:1049000014D019EE101A19EE900A8DED009B0029B3
:1049100018BF0121084320F00040C0F17F6000F182
:10492000E040C00F04BF0120FBF76BFF51EC180BF8
:1049300003B0BDEC048B00BD01604860704700000F
:1049400010B588B0044601210846FDF79DFA012103
:104950004804FDF7A9FA072202212248FDF769F968
:10496000072203211F48FDF764F90C20059002205F
:104970008DF818008DF8190000208DF81A0001201C
:104980008DF81B0005A91748FDF70BF901940020CD
:10499000ADF80800ADF80A00ADF80C00ADF8100055
:1049A0000C20ADF80E0001A90F48FDF79BFD262055
:1049B0008DF81C0000208DF81D0003208DF81E00CE
:1049C00001208DF81F0007A8FDF77EF9012240F2B3
:1049D00025510548FDF760FD01210348FDF726FD3F
:1049E00008B010BD000002400044004010B588B07F
:1049F000044601210220FDF747FA01218804FDF752
:104A000053FA07220B212348FDF713F907220A2145
:104A10002048FDF70EF94FF44060059002208DF814
:104A200018008DF8190000208DF81A0001208DF86B
:104A30001B0005A91748FDF7B4F801940020ADF854
:104A40000800ADF80A00ADF80C00ADF810000C201D
:104A5000ADF80E0001A91048FDF744FD27208DF8A0
:104A60001C0000208DF81D0003208DF81E00012081
:104A70008DF81F0007A8FDF727F9012240F2255104
:104A80000548FDF709FD01210348FDF7CFFC08B0FB
:104A900010BD0000000402400048004010B588B07E
:104AA000044601210846FDF7EFF901211020FDF72A
:104AB0000BFA072209212248FDF7BBF807220A2139
:104AC0001F48FDF7B6F84FF4C060069002208DF83D
:104AD0001C008DF81D0000208DF81E0001208DF8AF
:104AE0001F0006A91648FDF75CF802940020ADF8F7
:104AF0000C00ADF80E00ADF81000ADF814000C205D
:104B0000ADF8120002A90F48FDF7ECFC01210D4899
:104B1000FDF78CFC012240F225510A48FDF7BCFC50
:104B200025208DF8040003208DF805008DF806007F
:104B300001208DF8070001A8FDF7C6F808B010BDE8
:104B4000000002400010014010B50246002000BFE6
:104B50000BE0135C064C238000BF054B1B1F1B881A
:104B600003F04003002BF8D0401C8842F1DB10BD5D
:104B70000444004010B50246002000BF0BE0135C67
:104B8000064C238000BF054B1B1F1B8803F040030E
:104B9000002BF8D0401C8842F1DB10BD04480040D7
:104BA00010B500290AD00878002807D005487844B5
:104BB000FCF710FA002801D0002010BD024878440C
:104BC00010BD0000FE0D0000F60D000010B500291C
:104BD0000AD00878002807D005487844FCF7FAF98D
:104BE000002801D0002010BD0248784410BD00000C
:104BF000E20E0000DA0E000081F00041704780F004
:104C00000040704721F00041704720F0004070479D
:104C100010B591EA030F48BF83F0004300F1A2846E
:104C2000841A71EB030C05D2121943EB0C03001B21
:104C300061EB0C01DFF824E14FEA1154A4EB135CA3
:104C40001EEA430F18BF9EEA445F73D023EA0E03A7
:104C5000DCF1200E21EA045143F4801332D322FA0E
:104C60000CFE10EB0E0023FA0CFE41EB0E01CCF112
:104C7000200E03FA0EFE10EB0E0051F10001B1F50B
:104C8000801FCCF1200E32D201EB045112FA0EF249
:104C9000BDE8104058BF7047401C38BF5FEA420271
:104CA00018BF7047002814BF20F0010041F1000137
:104CB0004FEA410313F5001F38BF7047A1F1C0410F
:104CC00000F034BB012A43EB0302ACF1200CDCF111
:104CD0001F0E32BF4FF0000E23FA0CF310EB03004F
:104CE00041EB0451B4EB115FD0D0A1EB045101F5BD
:104CF000801149085FEA300001EB04510ED350F1F6
:104D0000000038BF12FA0EFE08D1BDE81040C9E716
:104D1000401C38BF5FEA4202CAD1C3E7BDE8104079
:104D20004FEA410313F5001F38BF7047A1F1C0419E
:104D300000F0FCBA9EEA445F08D011EA5E0FBDE8BD
:104D4000104004BF01F0004100207047BDE8104052
:104D500070B500F09DFA00BF64FBBE3E0000E0FFAE
:104D600002494FF0000000F0E6BC00BF0000F87FF1
:104D7000491058BFC1F140415B1058BFC3F14043D7
:104D80008B42EFF3008070472DE9C04130B4DFF86B
:104D9000A0C23CEA111418BF3CEA131400F0EC80E6
:104DA00081EA03051CEA111444EAD57418BF1CEA11
:104DB000131500F0C780A4EB05044FF0004545EA49
:104DC000C12145EAC32341EA505143EA525304F159
:104DD0007F74994204F500344FEAC0204FEAC222A2
:104DE00008BF904200F09C804FEA13650FF2401616
:104DF000765D4FEA134506FB05F7C7F1807706FBA2
:104E000007F74FEAD737A7FB03687642C8F5803823
:104E1000A7FB06CE38BFA8F1010807FB08E64FF054
:104E2000000EA6FB028CE6FB03CEDCF1000CCEF1FB
:104E3000004E38BFAEF1010EA6FB0C584FF0000734
:104E40004FF00005E6FB0E87A1FB08C6A0FB07CECE
:104E500016EB0E0645F10005E1FB076515F1E04E86
:104E60007EBFA4F580345FEA46066D4116F18007E7
:104E700045F100054FEA17274FEA066647EA05673E
:104E8000A6F1DE46B6F1805F4FEA15251FD93846F8
:104E900024F0010C05EBC471BCF1FE6F01EB0C11A9
:104EA00002D8F0BCBDE8008124425CBF01F5801E41
:104EB0009EEAC47F02D4F0BCBDE80081244238D40D
:104EC000F0BCA1F1C041BDE8004100F02FBA4FEAAB
:104ED000D22242EA43524FEAD323A7FB02864FEA8B
:104EE000D02040EA415007FB03661EEA0E0F4FEA4E
:104EF000D12105FB026658BFA6EB0056B6EB005663
:104F00004FEA520E4EEAC37E18EB0E0E56EB530ECE
:104F1000BDD518EB02085E417F1C55F10005B6E7D0
:104F20004FF480154FF000074FF000064FF00008D7
:104F3000ADE7F0BC4FF0000001F1C04101F00041CD
:104F4000BDE8008111EA0C1F0CEA131500D00CE03B
:104F500013EA0C1F00F025804FF00000F0BC81EA3E
:104F6000030101F00041BDE80081F0BCBDE8004153
:104F700081EA030100F0DAB9F0BCBDE8004170B588
:104F800000F086F9097EFC3E00F007B881EA0301D3
:104F90004FF0000001F00041704781EA030100F08A
:104FA000C5B9F0BCBDE800414FF000002149704791
:104FB000FFFDFBF9F7F5F4F2F0EEEDEBE9E8E6E4DE
:104FC000E3E1E0DEDDDBDAD8D7D5D4D3D1D0CFCD65
:104FD000CCCBCAC8C7C6C5C4C2C1C0BFBEBDBCBB9E
:104FE000BAB9B8B7B6B5B4B3B2B1B0AFAEADACAB99
:104FF000AAA9A8A8A7A6A5A4A3A3A2A1A09F9F9E73
:105000009D9C9C9B9A999998979796959594939324
:10501000929191908F8F8E8E8D8C8C8B8B8A8989BB
:10502000888887878685858484838382828181803E
:105030000000FF070000F87F4FEA41034FEA535397
:10504000A3F58063D3F11E03C8BFD3F1210C0CDD9F
:105050004FF0004242EAC12242EA505232FA03FCC7
:105060008CEAE17CACEBE1707047102BC4BF0020F0
:10507000704703F5787CBCF1FF3F04D06FF000422D
:1050800082EA2100704770B500F002F9499224804D
:1050900000207047F2E710F0004248BF4042B0FAEB
:1050A00080F310FA03F10AD0C3F11D0303F5806306
:1050B0004FEA415002EB035202EBD12170474FF00F
:1050C0000000704751EA030C17D41CF5801F58BF2D
:1050D000BCF5801F00F10680994218BF704708BFD9
:1050E0009042704707D711F5801F58BF13F5801FF6
:1050F00019D499427047894270471CF5801F08D522
:10510000BCF5801FF7D58B4218BF704708BF82429D
:1051100070474FF4001C1CEB410F38BF1CEB430FD2
:1051200001D28B42704770B500F0B2F8922449006A
:105130004FF000514FF08053FFF71ABEDFF848C11F
:1051400070B51CEA111E1EBF1CEA13159EEA0C0F57
:1051500095EA0C0F00F06F8081EA030423EA4C13F8
:105160004EEAD47E21EA4C1141F4801143F48013BD
:10517000AE44A1FB024CA0FB0365AEF17F7E361965
:1051800055EB0C05A1FB034C4CF10003A0FB021CEA
:1051900016EB0C06654153F10003094218BF46F0B7
:1051A000010613F4007F0BD14FEA03314FEA0530BB
:1051B000340341EA155140EA16506FF003020AE049
:1051C0004FEAC3214FEAC520F40241EA555140EAB3
:1051D00056506FF0020202EB2E4201EB025585EAB7
:1051E000CE710AD05FEA440C18BF24F0004450F19D
:1051F000000041F1000120EAD47040F2FE7C6245DB
:1052000000D270BDA84214BF4FF080444FF040441C
:10521000002E08BF0024BEF1806FA8BFA1F1C041DD
:10522000BDE8704080F282804FF0000001F1C04183
:1052300001F0004170479EEA0C0F0CEA131518BFED
:1052400095EA0C0F06D04FF0000081EA030E0EF035
:10525000004170BD00F01CF88900013E00F007B865
:1052600000F009B84FEA430C5FEA5C5C08D081EAC1
:10527000030100F05BB84FEA410C5FEA5C5CF6D1D9
:105280004FF00000014970470000FF070000F87F61
:105290000EF1020E2EF0030E5EF8046B364205D4BA
:1052A000012A43EB030515F5001F12D8012841EB35
:1052B000010C1CF5001F0CD80ED14FEAD17C15F55E
:1052C000001F0CEB4C0C0CF1020C08BF4CEBD37C18
:1052D00004E04FF0080C01E04FEAD37C0CEB4C05E6
:1052E00026FA05F606F00706B6F1040C06D20EEB18
:1052F000860CBDE870404CF0010C6047DFE80CF014
:10530000090B02024FF000414FF00000A1F500210F
:1053100070BD19461046012851EB010418BFD4F5A1
:10532000001484BF002001F0004170BD0808A0F502
:1053300000114FEA3101704753EA010C17D41CF5F4
:10534000801F58BFBCF5801F00F106808B4218BF3C
:10535000704708BF8242704707D713F5801F58BFB8
:1053600011F5801F19D48B4270479B4270471CF582
:10537000801F08D5BCF5801FF7D5994218BF70472C
:1053800008BF904270474FF4001C1CEB430F38BF1E
:105390001CEB410F01D2994270470FB40CBC03BC07
:1053A000FFF7C1BE91EA030F10B581F000413FF550
:1053B00037AC83F0004300F0D5B800002DE9F04190
:1053C00001F5801CBCF5001FC0F2A9804FEA115CFA
:1053D00021EA0C510CF1FD0C41F480115FEA5C0CE8
:1053E0000CF5C07C01D34000494130A4890241EA58
:1053F000905187028E0E0A0CA45D04FB04F602FB9A
:1054000006F6C6F14046A4FB0662F60D46EA4226C1
:1054100006FB06F4A4FB01235242C3F1404338BF0C
:105420005B1EA6FB02420024E6FB0324D20B42EAE9
:105430004446A6FB0623A1FB02E2A3FB07E4E3FB31
:1054400061426442C2F1404E38BFAEF1010EA6FB8C
:1054500004234FF00002E6FB0E32A2FB03463400A9
:10546000E2FB6264A1FB06E6A4FB07E8E4FB6168DB
:105470007642C8F1405838BFA8F10108A2FB06E403
:10548000A3FB08E5E2FB6854A1FB05E6A7FB04E8E3
:10549000E1FB648618F1200556F10006A809A8F181
:1054A0001B08B10908F03F08B8F10A0F40EA86600E
:1054B0001CD901EB0C51BDE8F08100BFFCF5EEE812
:1054C000E2DDD8D3CFCBC7C3C0BDB9B6B4B1AEACA3
:1054D000A9A7A5A3A19F9D9B9A9896959392908F1B
:1054E0008D8C8B898887868584838281A0FB006868
:1054F00000FB01F208EB4208B8EB872807D5341807
:1055000058EB0104D5D5401C51F10001D1E7341A04
:1055100078EB0104CDD4401E71F10001C9E75FEAC8
:105520004C0C5FEA9C5C0DD105D34FF0000001F0FC
:105530000041BDE8F081BDE8F04170B5FFF7A8FE7D
:105540006DDBFFBEBDE8F0414FF000000049704741
:105550000000F87F10B591EA030F48BF83F00043C5
:105560003FF55EAB841A71EB030C07D212198CF075
:10557000004C43EB0C03001B61EB0C01DFF8A4E1D2
:105580004FEA1154A4EB135C1EEA430F18BF9EEAC6
:10559000445F00F0B08023EA6E03524221EA0451D6
:1055A000C3EB6E0338BF5B1EDCF1200E25D322FA5D
:1055B0000CFE10EB0E0043FA0CFE41EB0E01CCF199
:1055C000200E03FA0EFE10EB0E0051F10001CCF19B
:1055D000200E29D412FA0EF201EB0451BDE810405E
:1055E00058BF7047401C1CBFB2F1004F70470028E5
:1055F0000CBF491C20F00100704712EB020E43EB78
:10560000030218BF4FF0010E4EEA4202ACF1200C2B
:10561000DCF11E0E54D943FA0CFE10EB0E0051F1D2
:10562000FF31CCF11E0ED5D50EF1010E12FA0EFE91
:10563000404141EB010101EB445C5FEA5C5C10D945
:1056400010EBDE7001EB045138BFBEF1004FBDE836
:10565000104018BF704700280CBF491C20F0010003
:10566000704730D24FEAD42C11F5001124F40064B5
:105670001BD0B1FA81F20B3AA41AA41ED2F1200376
:10568000914030FA03F31943904001EBCC71002CA8
:1056900001EB0451BDE81040A8BF704701F1C041C3
:1056A0004FF0000001F000417047B0FA80F310FAAB
:1056B00003F100D110BDE41A173C4805C90AE4E71C
:1056C00001EB045110BD491001EB0451BDE810403D
:1056D0004FEA300002E04FF0000170474A0008BF77
:1056E0000042F8D0B2F5001F28BF704701F000411A
:1056F0004FF0000070479EEA445F07D011EA5E0F4A
:10570000BDE8104004BF002100207047BDE81040F4
:1057100070B5FFF7BDFD00BF40DFF63E83F00041EE
:10572000104670470000E0FF4FF04070E1EE100AB5
:105730007047FBF79CB90CF00F03092B08BF08203A
:1057400000F059800A2B0BD0082B18BF704708BFF8
:105750001CF0400F0AD04FF000004FF000017047DE
:105760001CF0400F18BF4FF0004070471CF0100FA6
:1057700008D020F0704300F07F4242EAD3014FEAA4
:105780004370704700F0604021F07F4242EA00021F
:1057900001F07F4040EA727070474FF0FF0C4CF40C
:1057A000E06C1CEA11531CBF9CEA030C9445C2BF79
:1057B000DA4201EB02517047002B0DD0BCF1000F13
:1057C0000FD0002A01F00041A4BF41F0E04141F0B8
:1057D0007F614FF00000704701F000414FF0000082
:1057E000704750EA01334FF09B0C18BF4CF0806CAF
:1057F0007FF4B6AA70471CF4801F11D01CF4E02F70
:1058000003D06FEACC31490070474FF04050EFF3BE
:10581000008222F0704242EA000282F30088704760
:105820004FF0000070470000C0E0F0F8FC3031326B
:105830003334353637383941424344454640305891
:10584000003031323334353637383961626364655C
:1058500066403078000400000800000000000000EE
:105860000200010000100000000000000000F03FF6
:10587000000000000000F83F0000000000000000F1
:105880000000004003B8E23F0000000000000000FC
:1058900006D0CF43EBFD4C3E033333333333E33F8A
:1058A000FFAB6FDBB66DDB3F4D268F515555D53FB6
:1058B00001411DA96074D13F65DBC9934A86CD3F84
:1058C000EF4E454A287ECA3F3E5555555555C53F72
:1058D00093BDBE166CC166BF2CDE25AF6A56113F64
:1058E000F16BD2C541BDBBBED0A4BE726937663E66
:1058F000000000000000000002400000000000A0C6
:105900000000000005400000000000C8000000008A
:105910000C4000000000409C000000001940000006
:105920000020BCBE0000000034400000BFC91B8E38
:1059300000000004B5400000504BCFD06607E2CF16
:10594000010000006C4100003E8251AADFEEA73446
:1059500001000000D9420000DCB5A0E23A301F97F8
:10596000FFFFFFFFB4450000FD25A0C8E9A3C14F1C
:10597000FFFFFFFFFF3F000000000080000000006D
:10598000FF3F00000000008000000000D85A00081F
:105990000000002078000000C4010008505B0008EF
:1059A0007800002008610000E001000810010000FC
:1059B00043000000F8FFFFFF0040404040404040EF
:1059C00040404141414141404040404040404040D2
:1059D0004040404040404040400502020202020276
:1059E00002020202020202020220202020202020C5
:1059F00020202002020202020202909090909090D9
:105A00001010101010101010101010101010101096
:105A1000101010100202020202028888888888880A
:105A200008080808080808080808080808080808F6
:105A300008080808020202024000000000000000FE
:105A40000000000000000000000000000000000056
:105A50000000000000000000000000000000000046
:105A60000000000000000000000000000000000036
:105A70000000000000000000000000000000000026
:105A80000000000000000000000000000000000016
:105A90000000000000000000000000000000000006
:105AA00000000000000000000000000000000000F6
:105AB0000000000000000000000000001C000000CA
:105AC00043000000F8FFFFFF0C0000000E00000084
:105AD0000F0000002E000000000000000000000089
