:020000040800F2
:100000009061002061020008C51F00087D1F0008E4
:10001000C11F00089D1E0008D7280008000000002E
:10002000000000000000000000000000D1220008D5
:10003000A11E00080000000085210008E923000837
:100040007B0200087B0200087B0200087B0200089C
:100050007B0200087B0200087B0200087B0200088C
:100060007B0200087B0200087B0200087B0200087C
:100070007B0200087B0200087B0200087B0200086C
:100080007B0200087B0200087B0200087B0200085C
:100090007B0200087B0200087B0200087B0200084C
:1000A0007B0200087B0200087B0200087B0200083C
:1000B0007B0200087B0200087B0200087B0200082C
:1000C0007B0200087B0200087B0200087B0200081C
:1000D0007B02000855240008212500085D26000841
:1000E0007B0200087B0200087B0200087B020008FC
:1000F0007B0200087B0200087B0200087B020008EC
:100100007B0200087B0200087B0200087B020008DB
:100110007B0200087B0200087B0200087B020008CB
:100120007B0200087B0200087B0200087B020008BB
:100130007B0200087B0200087B0200087B020008AB
:100140007B0200087B0200087B0200087B0200089B
:100150007B0200087B0200087B0200087B0200088B
:100160007B0200087B0200087B0200087B0200087B
:100170007B0200087B0200087B0200087B0200086B
:100180007B0200087B02000800F002F800F058F83B
:100190000AA090E8000C82448344AAF10107DA45E2
:1001A00001D100F04DF8AFF2090EBAE80F0013F0DC
:1001B000010F18BFFB1A43F001031847985C0000B9
:1001C000B85C0000103A24BF78C878C1FAD852074A
:1001D00024BF30C830C144BF04680C6070470000C1
:1001E0000023002400250026103A28BF78C1FBD840
:1001F000520728BF30C148BF0B607047662905F021
:10020000B484652905F0B184642900F09F807829C1
:1002100000F0D880002070471FB505F0A1FC00F069
:10022000CFFD04000020002104F0D6FE401C6060D9
:100230000020002104F0E6FEE0601FBD10B510BDF7
:1002400000F0BEFE1146FFF7E7FF03F0D5FC00F01B
:10025000DCFE03B4FFF7F2FF03BC03F0E0FA00009A
:100260000948804709480047FEE7FEE7FEE7FEE74A
:10027000FEE7FEE7FEE7FEE7FEE7FEE70448054986
:10028000054A064B70470000ED230008890100086D
:10029000905B002090610020905D0020905D002028
:1002A000704710B5044600F0ABFA0068005DC00668
:1002B00002D504F1200010BD204610BD0FB4044942
:1002C00010B503AA029800F033FD10BC5DF814FBD2
:1002D000040000200FB41CB5074B06AA7B446946F6
:1002E0000090059800F00BFD0020694600F01AFD13
:1002F0001CBC5DF814FB0000450A000070B5044604
:1003000085690068C10601D5302600E02026C007B7
:1003100007D070BDD4E9012130469047206A401CC7
:1003200020626D1EF6D570BD70B5044685690078F3
:10033000C00707D170BDD4E9012120209047206A71
:10034000401C20626D1EF6D570BD00002DE9F04105
:100350000646002410687529314616A510D0AFF363
:100360000080002802DA404213A507E031688A07BE
:1003700001D512A502E0490704D511A5012401E029
:10038000AFF3008000210A2206F1240709E0B0FB48
:10039000F2FCB0FBF2F302FB1C003030785418463C
:1003A000491C0028F3D123462A463046BDE8F041D7
:1003B00000F039BA000000002D0000002B00000002
:1003C0002000000070B504460D4621461068AFF3CA
:1003D00000802188090502D50F4A7A4402E00E4ABE
:1003E0007A440E32002104F1240305E000F00F06E8
:1003F0000009965D5E54491C0028F7D1207800233F
:10040000000704D5702D02D009B102231132204615
:10041000BDE8704000F007BA875800002DE9F05F92
:10042000894604464FF0000ADFF824B1FB44C0F8C7
:1004300020A02046E168884700287DD0252806D0E6
:10044000D4E901219047206A401C2062F1E7002591
:100450005F462046E16888472028064607DB312EA4
:1004600005D2B81910F8200C08B10543F1E7A80728
:1004700001D525F00405C4F81CA00027C4F818A075
:100480002A2E09D0304603F0C3F938B304EB8708AD
:10049000303EC8F8186019E059F8041B204604EBF8
:1004A00087029161E1688847012F064618D1E0690B
:1004B000002820DA25F020051DE0D8F8180000EB10
:1004C000800006EB40003038C8F818002046E1688C
:1004D0008847064603F09CF90028EED1012F0AD088
:1004E0002E2E08D12046E16888477F1C0646022F41
:1004F00045F02005C4DBA069002803DA404245F03E
:100500000105A061E80701D025F01005A6B1A6F10C
:100510004100192802D8203645F400654A46314684
:10052000204625604D46FFF769FE60B1012807D0DF
:10053000ED1D25F0070000E007E000F1080978E76D
:1005400005F1040975E730467AE7206ABDE8F09FB7
:100550005D580000401ECAB210F8011F8A4202D046
:100560000029F9D10020704740EA0103024630B566
:100570009B0710D14FF0013400E008C208C91D1BD1
:100580009D4315EAC41FF8D013F0FF0102F8011BC8
:100590000DD01B0AF8E711F8013B002B02F8013BD4
:1005A00005D011F8013B002B02F8013BF3D130BD1F
:1005B00010B5431C02E010F8011B71B18107FAD19C
:1005C0004FF0013202C88C1A8C4314EAC211F9D0E0
:1005D000C01A0A0603D0C01E10BDC01A10BD0A04FE
:1005E00001D0801E10BD0902FCD0401E10BD40EAA3
:1005F000010370B59B072ED14FF00136042A2AD390
:1006000008C810C99D1B9D43121F15EAC61517D0B7
:10061000D8B2E1B2401A50EA056110D198B2A1B245
:10062000401A50EA05410AD123F07F4024F07F416F
:10063000401A50EA052102D1180EA0EB146070BDDB
:10064000A342DBD018BA21BA884201D9012070BD7B
:100650004FF0FF3070BD0AB9002070BD10F8013BAB
:1006600011F8014B63B1A3420AD1521E08D010F811
:10067000013B11F8014B1BB1A34201D1521EEDD138
:10068000181B70BD032A40F2308010F0030C00F0FC
:10069000158011F8013BBCF1020F624498BF11F8BC
:1006A00001CB00F8013B38BF11F8013BA2F1040275
:1006B00098BF00F801CB38BF00F8013B11F00303ED
:1006C00000F04883083AC0F0088051F8043B083A2B
:1006D00051F804CBA0E80810F5E7121D5CBF51F8F3
:1006E000043B40F8043BAFF30080D20724BF11F86D
:1006F000013B11F801CB48BF11F8012B24BF00F8D2
:10070000013B00F801CB48BF00F8012B70474FF0C8
:1007100000020429C0F0128010F0030C00F01B80CE
:10072000CCF1040CBCF1020F18BF00F8012BA8BFDC
:1007300020F8022BA1EB0C0100F00DB85FEAC17CA0
:1007400024BF00F8012B00F8012B48BF00F8012B53
:1007500070474FF0000200B5134694469646203984
:1007600022BFA0E80C50A0E80C50B1F12001BFF46A
:10077000F7AF090728BFA0E80C5048BF0CC05DF8D0
:1007800004EB890028BF40F8042B08BF704748BF1E
:1007900020F8022B11F0804F18BF00F8012B704792
:1007A00010B5044610F0030F08BF11F0030F40F01E
:1007B00015804FF0013E121FC0F20E8051F8043B2D
:1007C000A3EB0E0C2CEA030C1CEACE1C08BF40F86D
:1007D000043BF0D0A1F1040102F10402521E08DB37
:1007E00011F8013B002B00F8013BF7D11146FFF750
:1007F0008EFF204610BD704770477047704700005D
:1008000010B500F0DDFA001D10BD00BFCD4700009F
:1008100010B500F0D9FA006810BD10B5044600F01C
:10082000D3FA046010BD2DE9F0470D469946924673
:10083000044600F124080168880604D5E06921F027
:100840001001216000E00120A84201DD471B00E00B
:100850000027A1697A1902EB0900081AA061207823
:10086000C00602D42046FFF749FD002608E0D4E97F
:1008700001211AF806009047206A401C761C20626D
:100880004E45F4DB2078C0060AD52046FFF736FD3A
:1008900006E0D4E9012130209047206A401C206204
:1008A000381EA7F10107F4DC07E0D4E9012118F8AC
:1008B00005009047206A401C2062281EA5F1010512
:1008C000F3DC2046FFF730FD2078000602D5022039
:1008D000BDE8F0870120FBE770472DE9FF4F0C468C
:1008E0001E464FF0FF378BB0D2E90001DDF8608083
:1008F0000A908A46C1F30A5505B93D4600210846CB
:100900004FF00000BAF1000F00F4400005DA00EBF0
:1009100080004FF4400101EA50004FEA9059B9F1CC
:10092000010F00DDB9460A9850EA4A000ED044F69D
:100930001050A5F2FF3545432F14B8F1000F1ED01B
:100940007542291E1EDDC9F100021CE0B8F1010F3D
:100950004FF0000001D0302103E0F24305E02154C4
:10096000401CB042FBDB30460022002121540B9991
:10097000C1F80880C1E900200FB0BDE8F08FBD1BB1
:100980006D1CDEE74A4600DA694206A800F0A6FAC6
:1009900006AB93E8070003AB83E8070050460A99CB
:1009A00000F07AFB8DE80700A0F500501F3800909A
:1009B0000398002D09DD42F21F014A46084403A9AD
:1009C0000390684600F0D9FD08E0A0F500504A46C3
:1009D0001F3803A90390684600F0E3FD8DE8070087
:1009E0000004000C03D04FF0FF30410800E0104637
:1009F000B8F1000F03D00022009215461EE0751ECC
:100A000005D400F0E5F9303262556D1EF9D5B346D4
:100A10000122084302D000227F1C04E02078302805
:100A200001D100227F1E002A099786D01DE0112DDA
:100A300007DA00F0CDF9303262556D1C50EA010240
:100A4000F5D1084302D00098C8B10EE00021681E1D
:100A500005E0235C625C63542254401E491C8142C1
:100A6000F7DBAB46A81B401E0990002004F80B00E2
:100A70000B98099AC0F80880C0E9002B7CE7112682
:100A80004FF0000859E72DE9F04F88460446D21D83
:100A900022F0070191B0D1E90001CDE90A0101F08E
:100AA0001CFF02460B98C00F01D02D2007E02068E4
:100AB000810701D52B2002E0202101EAC000032A92
:100AC000099001D0072A05DB03464146204600F085
:100AD000C5F90BE12078800601D5E06900E0062029
:100AE000B8F1650F814606D0B8F1660F18D0B8F19D
:100AF000670F70D131E00020B9F1110F009001DBD8
:100B0000112301E009F101030AAA01A90CA8FFF7CA
:100B1000E4FEDDE90C70002609F10105834647E09B
:100B200001204B4600904FF000470AAA01A90CA8EB
:100B3000FFF7D3FEDDE90DB00C995D46002610B934
:100B400009F101000D18B9EB050003D4C0F1FF361F
:100B500009F10105A5EB09002BE0B9F1010F01DA5C
:100B60004FF001090020B9F1110F0090484601DD56
:100B7000112300E003460AAA01A90CA8FFF7ADFE65
:100B8000DDE90C704D4600268346207800070AD424
:100B9000AB4500DA5D4601A8012D04DD411911F8CD
:100BA000011C302907D04F4502DA17F1040F04DA8F
:100BB000012082460FE06D1EEEE7002F02DCED1BE8
:100BC0003E4403E0781CA84200DD7D1CB81B00F108
:100BD000010A4FF000472078000703D4AA4501DB43
:100BE0004FF0FF3A0021B7F1004F0DF143088DF8A7
:100BF000431024D002202B23002F01DA7F422D2323
:100C00000A21021EA0F1010000DC5FB197FBF1FC9C
:100C100097FBF1F201FB1C7C17460CF1300C08F835
:100C200001CDEEE7A8F1010003702188090501D587
:100C3000452100E06521A0F1010800F8011C099898
:100C40000FA9A1EB0807FF1D00B10120411901EB1D
:100C5000EA70A1693844081A401EA0612078C006D5
:100C600002D42046FFF74AFB099828B1D4E90121B4
:100C70009047206A401C20622078C00622D520467A
:100C8000FFF73CFB1EE0002E04DBB34502DD01A8AC
:100C9000805D00E03020D4E901219047206A401CAB
:100CA0002062761CAAF101005FEA000A0AD100F076
:100CB00087F8C0680168405CD4E901219047206A48
:100CC000401C2062281EA5F10105DCDC07E0D4E908
:100CD000012118F8010B9047206A401C2062381E41
:100CE000A7F10107F3DC2046FFF71EFB032011B03C
:100CF00043E6000001694A1C02610878704700B5AC
:100D00008FB0CDE901310021059105497944CDE944
:100D1000031011466846FFF781FB0FB000BD0000CD
:100D2000E5FFFFFF0A6802F8010B0A607047000048
:100D3000074B70B50D467B44FFF7E1FF044628469C
:100D400000F03AF910B14FF0FF3070BD204670BD91
:100D5000A32E000010B5203AC0F00B80B1E8185067
:100D6000203AA0E81850B1E81850A0E81850BFF495
:100D7000F5AF5FEA027C24BFB1E81850A0E8185034
:100D800044BF18C918C0BDE810405FEA827C24BF88
:100D900051F8043B40F8043B08BF7047D20728BF16
:100DA00031F8023B48BF11F8012B28BF20F8023B65
:100DB00048BF00F8012B7047004870472C5B0020AB
:100DC000004870474C5B0020004870472C5B0020B7
:100DD00030B5B0F10A024FEA900E71F100034EEA0D
:100DE000817EB0EB0E0061EB91014FEA101E4EEADE
:100DF000017E10EB0E0041EB11114FEA102E4EEA6E
:100E0000016E10EB0E0041EB11214FEA104E4EEA3D
:100E1000014E10EB0E0041EB1141401841F1000171
:100E20004FEAD00040EA41704FEAD10110EB800553
:100E30004FEA810444EA907444EB01046D1944EBD9
:100E40000404521BA3414FF0000348BF0A3200D5EF
:100E500030BD401C41F1000130BD00002DE9F041E2
:100E60001F46044603260168072A01F4006004DBDC
:100E700008B116A505E016A503E008B115A500E028
:100E800015A521F010002060A069C01EA0610FB15F
:100E9000401EA0612046FFF731FA4FB1D4E901218D
:100EA00038469047206A401C2062C01C206206E041
:100EB000206AFAE7D4E9012115F8010B9047761E64
:100EC000F8D22046FFF730FABDE8F0814E414E00DF
:100ED0006E616E00494E4600696E66002DE9F0476E
:100EE000814616468AB0334878440DC88DE80D0017
:100EF00030487844801C03AC0DC884E80D0041F6EE
:100F00009B300844372190FBF1F290FBF1F5A5F1FD
:100F1000800501FB12041B3C02D56442012000E065
:100F20000020DFF890A080460027FA44AAF1BE0A0C
:100F30000DE0E00709D03246684607EB47010AEBAF
:100F4000810100F02EFB8DE8070064107F1C002C4F
:100F5000EFD1184F7F44AC3F18E0E80714D007EBFF
:100F600004100DF1180A90E80E008AE80E00C0681F
:100F7000F04201D198190890324606A903A800F062
:100F800010FB03AB83E807006D10641C002DE4D157
:100F900032466946B8F1000F03A802D000F0EDFA1E
:100FA00001E000F0FEFAC9E90001C9F808200AB022
:100FB000BDE8F087C04E0000007B00F08000704765
:100FC0007546FFF7F9FEAE4605006946534620F028
:100FD0000700854618B020B5FFF750F9BDE820405E
:100FE0004FF000064FF000074FF000084FF0000BE5
:100FF00021F00701AC46ACE8C009ACE8C009ACE898
:10100000C009ACE8C0098D4670470446AFF30080C4
:101010002046FFF71EF900004FF0013C50F8042B6A
:1010200051F8043B9A4221D1A2EB0C03934313EAFB
:10103000CC1317D150F8042B51F8043B9A4215D128
:10104000A2EB0C03934313EACC130BD150F8042BFF
:1010500051F8043B9A4209D1A2EB0C03934313EAE3
:10106000CC13DBD04FF00000704700BFD01A01BA9C
:10107000B1FA81F101F0180122FA01F0CB40C1F17F
:101080002001DBB2C0B2C01A2CFA01F3D11A91438D
:1010900011EAC311E6D170475FEA400C08BF91F036
:1010A000000F4FEA8C234FEAC12243EA51514FEA25
:1010B0001C5018BF00F5F0404FEA300018BF41F057
:1010C00000415FEA6C5C00F02980BCF1FF3F08BF83
:1010D00040F080407047130C06BF12044FF0100C14
:1010E0004FF0000C130E04BF12020CF1080C130F8A
:1010F00004BF12010CF1040C930F04BF92000CF119
:10110000020CD30F04BF52000CF1010C11464FF03A
:101110000002A0F11F00A0EB0C00704711F0004F7F
:1011200008BF704731F000413FF4D5AF0B0C06BF4C
:1011300009044FF0100C4FF0000C0B0E04BF090215
:101140000CF1080C0B0F04BF09010CF1040C8B0F00
:1011500004BF89000CF1020CCB0F04BF49000CF155
:10116000010CCCF12003A0EB0C0022FA03F302FAED
:101170000CF241EA030100F10100704720F07F4CBE
:1011800080EA030023F07F47ACEB070303F57C53B1
:1011900000F0004003F1FF032DE980494FEA154BB1
:1011A00009B44FEA144325EA0B4E24EA03480FF230
:1011B000042606EB132749083E785FEA320203FB58
:1011C0000667C7F5000707FB06F64FEA54374FEAF4
:1011D000D64606F1020607FB066CCCF1005C4FEA2E
:1011E0001C472CEA074C07FB06F40CFB06F504EB46
:1011F00015464FEA961634BF00204FF000404FEAE4
:10120000D13706FB07FC4FEA1C4C0CFB0BF7D21B3B
:1012100003FB0CF761EB07010CFB0EF7B0EB07408B
:1012200072EB17420CFB08F734BFA2EB0742B2EB9C
:10123000074261EB17414FEA0C444FEA910706FB66
:1012400007FC4FEA1C4C0CFB0BF7B0EBC74072EBF2
:10125000573203FB0CF734BFA2EBC742B2EBC742D5
:1012600061EB57310CFB0EF7B0EBC70072EB577216
:101270000CFB08F734BFA2EBC702B2EBC70261EB6D
:101280005771039F4FEA816141EA921104EBCC044C
:101290004FEAD1374FEA826206FB07FC42EA90121E
:1012A0004FEA80604FEA1C4C0CFB0BF7D21B03FB90
:1012B0000CF761EB07010CFB0EF7B0EB074072EB8C
:1012C00017420CFB08F734BFA2EB0742B2EB074210
:1012D00061EB17414FEA8C554FEA910704EB9C24D0
:1012E00006FB07FC4FEA1C4C0CFB0BF7B0EBC740AE
:1012F00072EB573203FB0CF734BFA2EBC742B2EBE1
:10130000C74261EB57310CFB0EF7B0EBC70072EB35
:1013100057720CFB08F734BFA2EBC702B2EBC7024F
:1013200061EB577115EB4C254FEA816141EA92114F
:101330004FEA82624FEAD13742EA901206FB07FC7D
:1013400044F100044FEA80604FEA1C4C0CFB0BF7A1
:10135000D21B03FB0CF761EB07010CFB0EF7B0EBA4
:10136000074072EB17420CFB08F734BFA2EB0742B1
:10137000B2EB074261EB174115EB1C154FEA8131C7
:1013800041EA92414FEA823242EA90424FEA80308B
:101390004FEA0C7644F1000448EA03434EEA0B4856
:1013A0004FF0000EB2EB080C71EB030724BF62464E
:1013B00039464EEB0E0E4FF0000B001852414941DA
:1013C0004BEB0B0BB2EB080C71EB03077BF1000B43
:1013D00024BF624639464EEB0E0E4FF0000B00184C
:1013E000524149414BEB0B0BB2EB080C71EB03077D
:1013F0007BF1000B24BF624639464EEB0E0E51EADC
:10140000020718BF46F0010616EB0E7655F10002F2
:1014100054F1000103D5BDE88901BDE80088BDE8AD
:101420008901BDE80048B619524141EB0101A3F121
:101430000103704780807F7E7D7C7B7A7978777628
:1014400076757473727171706F6E6E6D6C6C6B6AA1
:101450006A6968686766666564646363626161603F
:10146000605F5F5E5E5D5D5C5C5B5B5A5A595958BC
:101470005857575656555555545453535252525126
:10148000515050504F4F4F4E4E4D4D4D4C4C4C4B7C
:101490004B4B4A4A4A4949494848484747474746C3
:1014A00046464545454444444443434343424242FF
:1014B00042414141002B26D4770021D01CB54FEA90
:1014C000370703B44FF010004FF010014FF0000049
:1014D0000FBCBDE810400BF1010BBBF1010F08BFC1
:1014E0005FEA170722BF12F1010211F101014FF06B
:1014F000004143F1000300F0004043EA0000704760
:10150000F9D35708DAE746EA064613F1400F4FEAE7
:1015100016461FDD13F1200FDFBF16430A460021D8
:1015200020335B42C8D0C3F1200746EA064602FAE0
:1015300007F74FEA164646EA0706C3F1200722FAE4
:1015400003F201FA07F721FA03F14FF0000342EA30
:101550000702B1E746EA020646EA06464FEA1646A1
:1015600046EA0106BCBF46EA0646360C4FF00003C9
:101570004FF000024FF000019EE72DE9C04893466E
:1015800030B491E8380007C831EA400C48BF34EA6B
:10159000430C03D5FFF7F2FDFFF78CFFF0BCBDE86D
:1015A00000882DE9C048934630B491E8380007C858
:1015B00010F0804F08BF13F0804F03D100F005F802
:1015C000FFF778FFF0BCBDE8008820F07F4780EA95
:1015D000030023F07F4C07EB0C03A3F57C5300F0D2
:1015E0000040A3F1FE0392F0000F00F0B38095F0ED
:1015F000000F00F077802DE901494FEA11404FEAD2
:10160000144621EA004800FB06FC24EA064708FBD2
:1016100006F607FB08F800FB07F718EB06484CEB4B
:10162000164C4FEA124B18EB07484FEA15464CEBA5
:10163000174022EA0B4E0BFB06FC25EA06470EFB81
:1016400006F607FB0EFE0BFB07F71EEB064E4CEBF8
:10165000164C4FF000061EEB074E4CEB174B18EBE9
:101660000B0840F1000018EB0E0B58EB000840F19E
:1016700000008F1A4FF000013CBFC943661B14BF26
:10168000B5EB040C00213CBFC943F61B4FEA1744DD
:101690004EEA8E0E27EA04454FEA1C4704FB076218
:1016A0002CEA074C05FB07F70CFB05F604FB0CFCCA
:1016B00016EB074642EB174216EB0C4642EB1C4278
:1016C0001BEB060658EB0202414146EA9E0601D595
:1016D000BDE80189B619524141EB0101A3F10103B3
:1016E000BDE801894FEA14454FEA114724EA05464F
:1016F00021EA074C05FB07F406FB07F70CFB06F194
:1017000005FB0CFC11EB074144EB17444FEA124771
:1017100011EB0C4144EB1C4422EA074C05FB07F299
:1017200006FB07F70CFB06F605FB0CFC16EB074661
:1017300042EB174216EB0C4642EB1C456A1854F17B
:10174000000148BF7047B619524141EB0101A3F1B6
:101750000103704795F0000F37D04FEA11424FEA6E
:10176000144721EA024624EA074C02FB07F106FB74
:1017700007F70CFB06F402FB0CFC14EB074441EBEF
:1017800017414FEA154714EB0C4441EB1C4125EA85
:10179000074C02FB07F506FB07F70CFB06F602FBFE
:1017A0000CFC16EB074645EB174516EB0C4645EBD4
:1017B0001C42121951F1000148BF7047B61952413D
:1017C00041EB0101A3F1010370474FEA14454FEAD1
:1017D000114724EA054621EA074C05FB07F106FB01
:1017E00007F70CFB06F24FF0000605FB0CFC12EBB2
:1017F000074241EB174112EB0C4251EB1C4148BF31
:101800007047921841EB0101A3F1010370470000FA
:1018100000B52DED048B83B0B2480068401C18B1B0
:10182000B1480068401C30B9B0A0FEF747FD03B0D6
:10183000BDEC048B00BDB5480068012803DCB4484A
:101840000068012807DDB2480268B0480168B1A00D
:10185000FEF734FDEBE7A348006810B1A24800682A
:1018600068B900209FEDBB0B00F0F8F900209FED58
:10187000B90B00F083FAB9A0FEF720FDD7E79FED82
:10188000BE0B53EC102BBE4890ED000B51EC100B2F
:1018900003F034FE0BD39FEDB80B53EC102BB9487B
:1018A00090ED000B51EC100B03F028FE0DD8B5485D
:1018B00090ED000B8DED000BB14890ED000B53EC5B
:1018C000102BB1A0FEF7FAFCB1E79FEDBC0B53EC77
:1018D000102BAB4890ED000B51EC100B03F00EFEFB
:1018E0000BD99FEDB60B53EC102BA64890ED000BD7
:1018F00051EC100B03F002FE4DD89FEDB00B53ECF2
:10190000102B9F4890ED000B51EC100B03F0F6FDEF
:1019100019D89FEDAA0B53EC102B9A4890ED000BB1
:1019200051EC100B03F0EAFD0DD802209FED890B5E
:1019300000F094F902209FED870B00F01FFAA1A0A0
:10194000FEF7BCFCCCE09FED9D0B53EC102B8C48BC
:1019500090ED000B51EC100B03F0D0FD0DD80120E1
:101960009FED7C0B00F07AF901209FED990B00F0C0
:1019700005FA99A0FEF7A2FCB2E001209FED940BBE
:1019800000F06CF901209FED730B00F0F7F998A0BF
:10199000FEF794FCA4E07B4890ED000B53EC102B79
:1019A000774890ED000B51EC100B03F0EFFF41EC8A
:1019B000190BB0EE490AF0EE690A02F0FDF9B0EE3B
:1019C000408AF0EE608A9FED900B53EC102B51ECA7
:1019D000180B03F093FD1BD2694890ED000B02F049
:1019E00097F8B0EE408AF0EE608A012000F036F9F8
:1019F000644890ED000B02F08BF8B0EE408AF0EEF8
:101A0000608A012000F0BAF981A0FEF757FC67E078
:101A10005C4890ED000B53EC102B594890ED000BF7
:101A200051EC100B03F0B2FF41EC180B9FED490B8A
:101A300053EC102B03F09CFE29D2514890ED000B83
:101A400002F066F8B0EE409AF0EE609A9FED600BFF
:101A500053EC102B51EC190B03F0F6FA41EC180B78
:101A60000120B0EE480AF0EE680A00F0F7F84548A9
:101A700090ED000B02F04CF8B0EE408AF0EE608A78
:101A8000012000F07BF967A0FEF718FC28E03C4835
:101A900090ED000B02F03CF8B0EE408AF0EE608A68
:101AA000012000F0DBF8374890ED000B02F030F831
:101AB000B0EE409AF0EE609A9FED450B53EC102B80
:101AC00051EC190B03F0C0FA41EC180B0120B0EEF9
:101AD000480AF0EE680A00F051F959A0FEF7EEFB53
:101AE00000BFA4E660000020740000200D0A2077EB
:101AF000616974696E6720666F7220646174612029
:101B000066726F6D206361727300000070000020C8
:101B1000800000200D0A77616974696E6720666F26
:101B20007220747572696E672C2020436172315F78
:101B30006D6F76655374617465203A25642C20209E
:101B4000436172325F6D6F766553746174653A25D7
:101B50006420000000000000000000000D0A776112
:101B60006974696E672020666F7220636F72726598
:101B70006374696F6E0000007B14AE47E17AB43F76
:101B800068000020780000200D0A202046442065CF
:101B900072726F722C436172315F46446973746173
:101BA0006E63653A25662C2020436172325F46449D
:101BB000697374616E63653A256600000000000079
:101BC0000000E03F0D0A747572696E670000000046
:101BD0000000000000003E400D0A63617231207376
:101BE000746F702C206361723220676F206F6E00FB
:101BF0000D0A636172322073746F70202C636172FE
:101C00003120676F206F6E007B14AE47E17A943FFE
:101C10000D0A676F206F6E20737472616967687454
:101C2000000000000D0A2063617231206E6565645A
:101C30007320746F20676F2066617374000000006A
:101C40000D0A2063617232206E6565647320746FC3
:101C500020676F2066617374000000002DE9F04179
:101C60002DED048BCCB0B0EE408AF0EE608A0546D4
:101C700023208DF8040021208DF8050001F018FEC6
:101C800080469FED2F0B01F0FBFD064632462EA14C
:101C9000404601F0DDFD9FED2E0B01F0F1FD064603
:101CA00032462DA1404601F0D3FD9FED2C0B01F0F3
:101CB000E7FD064632462BA1404601F0C9FDB0EED5
:101CC000480AF0EE680A01F0DBFD0646324627A11D
:101CD000404601F0BDFD284603F0F9FB41EC190B2D
:101CE000B0EE490AF0EE690A01F0CAFD0646324636
:101CF0001FA1404601F0ACFD404601F065FE0746DD
:101D0000404601F0DFFD3846FEF752FC84B2201257
:101D10008DF80600E0B28DF807002246394602A889
:101D2000FEF73EFD201DC1B201A803F029F9384697
:101D300002F068F84CB0BDEC048BBDE8F081000007
:101D4000000000000000084066726F6D0000000097
:101D50000000000000000040746F00000000000060
:101D60000000F03F6D73547970650000585F5600B5
:101D70006D6F766553746174650000002DE9F04164
:101D80002DED048BCCB0B0EE408AF0EE608A0546B3
:101D900023208DF8040021208DF8050001F088FD36
:101DA00080469FED2F0B01F06BFD064632462EA1BB
:101DB000404601F04DFD9FED2E0B01F061FD064602
:101DC00032462DA1404601F043FD9FED2C0B01F062
:101DD00057FD064632462BA1404601F039FDB0EED4
:101DE000480AF0EE680A01F04BFD0646324627A18C
:101DF000404601F02DFD284603F069FB41EC190B2C
:101E0000B0EE490AF0EE690A01F03AFD06463246A4
:101E10001FA1404601F01CFD404601F0D5FD0746DC
:101E2000404601F04FFD3846FEF7C2FB84B2201257
:101E30008DF80600E0B28DF807002246394602A868
:101E4000FEF7AEFC201DC1B201A803F0AFF8384682
:101E500001F0D8FF4CB0BDEC048BBDE8F081000070
:101E6000000000000000084066726F6D0000000076
:101E70000000000000000040746F0000000000003F
:101E80000000F03F6D73547970650000585F560094
:101E90006D6F7665537461746500000000BFFEE7E6
:101EA0007047F0B50A4600210023002400BF3DE042
:101EB000012505FA01F3156805EA03049C4234D1B3
:101EC00005684F000326BE40B543056015794E00F6
:101ED000B5400668354305601579012D02D01579A6
:101EE000022D16D185684F000326BE40B54385609C
:101EF00055794E00B54086683543856045680126B2
:101F00008E40B5434560456896798E40B6B23543FC
:101F10004560C5684F000326BE40B543C560D5790E
:101F20004E00B540C6683543C560491C1029BFD373
:101F3000F0BDF0B5002300244D07ED0E02FA05F3C5
:101F4000CE1000F1200555F826504E07F70E0F264B
:101F5000BE40B543CF1000F1200646F82750CE1002
:101F600000F1200555F8265045EA0304CE1000F193
:101F7000200545F82640F0BD0183704700BFFEE70D
:101F80001CB50121202000F0FFF84FF4C060009044
:101F900001208DF8040000208DF8060003208DF844
:101FA000050001208DF8070069460448FFF779FF16
:101FB0004FF4C0610148FFF7DFFF1CBD0014024071
:101FC00000BFFEE77047000070B5002100230F221C
:101FD000C4781CB3174C246804F4E064C4F5E064CE
:101FE000C4F30721C1F10404E3B20A4144789C40E0
:101FF000E1B28478144021430C07210E0E4C057881
:102000006155047804F01F050124AC4005786D117A
:10201000AD0005F1E025C5F8004109E0047804F0C1
:102020001F050124AC40054D0678761145F8264081
:1020300070BD00000CED00E000E400E080E100E095
:1020400002490143024A1160704700000000FA058E
:102050000CED00E070B5174800782D2800D170BD58
:10206000144801F077FC054613A1284601F052FC04
:10207000044604B919E014496069086013A12846B0
:1020800001F048FC044604B90FE094ED060B124839
:1020900080ED000B11A1284601F03CFC044604B978
:1020A00003E011496069086000BF284601F00AFC9E
:1020B00000BFD4E754080020436F72726563745305
:1020C000746174650000000060000020464469737C
:1020D00074616E6365000000680000206D6F7665B6
:1020E00053746174650000007000002070B51748DB
:1020F00000782D2800D170BD144801F02BFC054656
:1021000013A1284601F006FC044604B919E014495D
:102110006069086013A1284601F0FCFB044604B97D
:102120000FE094ED060B124880ED000B11A128463C
:1021300001F0F0FB044604B903E01149606908604E
:1021400000BF284601F0BEFB00BFD4E744130020C7
:10215000436F7272656374537461746500000000AC
:10216000740000204644697374616E63650000006A
:10217000780000206D6F766553746174650000000F
:10218000800000207047000029B1064A126802430F
:10219000044B1A6004E0034A12688243014B1A6040
:1021A000704700003038024029B1064A12680243E5
:1021B000044B1A6004E0034A12688243014B1A6020
:1021C000704700004038024029B1064A12680243B5
:1021D000044B1A6004E0034A12688243014B1A6000
:1021E0007047000044380240F0B50021002200246E
:1021F000022500260223324F3F6807F00C0121B16F
:10220000042905D0082937D105E02E4F076036E0B4
:102210002D4F076033E02A4F3F1F3F68C7F38056BA
:10222000274F3F1F3F6807F03F036EB1264FB7FBB4
:10223000F3F7DFF88CC0ACF1040CDCF800C0CCF391
:10224000881C07FB0CF40CE01E4FB7FBF3F7DFF81C
:1022500070C0ACF1040CDCF800C0CCF3881C07FBA8
:102260000CF4174F3F1F3F68C7F301477F1C7D00E9
:10227000B4FBF5F7076002E0124F076000BF00BF34
:102280000F4F3F6807F0F0010909104F7A5C0768AB
:10229000D74047600A4F3F6807F4E051890A0B4F67
:1022A0007A5C4768D7408760054F3F6807F4604114
:1022B000490B064F7A5C4768D740C760F0BD000005
:1022C000083802400024F40000127A003000002098
:1022D000704700000CB50020019000903448006861
:1022E00040F480303249086000BF3148006800F493
:1022F000003000900198401C0190009818B9019896
:10230000B0F5A04FF1D12A48006800F4003010B1B8
:102310000120009001E0002000900098012846D1A3
:1023200023484030006840F0805021494031086027
:102330002048006840F440401E4908601C480830AE
:1023400000681B49083108600846006840F40040F6
:1023500008600846006840F4A05008601648091F4D
:102360000860081F006840F08070091F086000BF07
:102370000F48006800F000700028F9D040F20570A6
:102380000E4908600A480830006820F00300084938
:10239000083108600846006840F00200086000BF8D
:1023A00003480830006800F00C000828F8D10CBD84
:1023B000003802400070004008544007003C0240D2
:1023C000042808D14FF0E021096941F004014FF0E1
:1023D000E022116107E04FF0E021096921F00401DA
:1023E0004FF0E022116170477047000010B51548AA
:1023F000006840F47000134908601348006840F01A
:1024000001001149086000200F49083108600E489A
:1024100000680E4908400C4908600D48091D086015
:10242000081F006820F48020091F0860002006496A
:102430000C310860FFF74EFF4FF000600149803912
:10244000086010BD88ED00E000380240FFFFF6FE96
:102450001030002410B540F225511D4800F07CF9E1
:1024600010B31B4800F032FAC4B21A48008800F4D6
:102470000040C8B91748008800F4804060B10A2CB9
:1024800003D000201349088020E01248008840F45F
:1024900000401049088019E00D2C06D10D48008835
:1024A00040F480400B49088010E00A480088C0F3DF
:1024B0000D0009490C5407480088401C0549088054
:1024C00008460088C72801DD0020088010BD0000F4
:1024D00000100140080000208400002010B52B20CF
:1024E00009490870002009490870401E0849086021
:1024F0004FF47A710748FEF70AF900200649086090
:102500000649086010BD00000D0000200E000020EC
:10251000100000206C04002014000020180000208F
:1025200010B540F22551344800F016F9002862D069
:102530003148001D0088C4B23048007848BB232CC5
:1025400008D123202E4908702E480068401C2D49D0
:10255000086050E0212C0FD12948007823280BD1A6
:1025600028480068012807D12449087025480068D8
:10257000401C244908603EE0212C3CD020480078D3
:10258000232838D11F480068012834D1FFF7A6FF5F
:1025900031E01A480078012814D11B480068401C1B
:1025A00018B920021849086025E017480068401C47
:1025B00008B31548006820441349086002200F49F9
:1025C000087018E00D480078022814D10F4810490F
:1025D000096844540E480068401C0D4908600846CC
:1025E000006809490968884205D108490948FDF78A
:1025F000BBFFFFF773FF10BD004400400E0000203A
:102600000D00002018000020100000206C040020A5
:10261000140000205408002010B52B200949087030
:10262000002009490870401E084908604FF47A717B
:102630000748FEF76CF80020064908600649086064
:1026400010BD00001F0000202000002024000020FA
:102650005C0F0020280000202C00002010B540F264
:1026600025512F4800F078F8002857D02C48001D3D
:102670000088C4B22B480078F0B9232C08D123205D
:102680002949087029480068401C2849086045E02D
:10269000212C0AD124480078232806D12348006839
:1026A000012802D11F49087038E01F48007823280C
:1026B00034D1FFF7B1FF31E01A480078012814D176
:1026C0001B480068401C18B920021949086025E021
:1026D00017480068401C08B3154800682044144996
:1026E000086002200F49087018E00E4800780228A0
:1026F00014D110481049096844540F480068401C20
:102700000D4908600846006809490968884205D1F2
:1027100008490A48FDF728FFFFF77EFF10BD0000BB
:1027200000480040200000201F0000202C00002056
:10273000240000205C0F002028000020441300200B
:1027400021B1828942F40052828104E082894DF6EF
:10275000FF731A408281704770B50246002400233F
:102760000025002040F66A16B14200D100BFC1F337
:10277000421501F01F03012606FA03F3012D02D1D1
:102780009689334006E0022D02D1168A334001E0DB
:10279000968A33400C12012606FA04F41688344057
:1027A00013B10CB1012000E0002070BDF0B503466C
:1027B000002400260025002040F66A17B94200D107
:1027C00000BF1846C1F3421401F01F06012707FAA3
:1027D00006F5012C01D10C3004E0022C01D110309F
:1027E00000E014301AB107682F43076002E0076861
:1027F000AF430760F0BD00002DE9FF4705460E46D8
:102800000024A14600BFA046B08900B100BF2C8AB9
:1028100024F44054F08804432C82AC8941F20C60CB
:102820008443B08831890843718908430443AC81EB
:10283000AC8A24F44074B0890443AC826846FFF744
:10284000D3FC2048854202D01F48854202D1DDF8E2
:102850000C9001E0DDF80890A88900F4004040B138
:1028600009EBC90000EB091031684900B0FBF1F732
:1028700007E009EBC90000EB091031688900B0FBE3
:10288000F1F76420B7FBF0F004012009642101FB9B
:102890001078A88900F4004040B1322000EBC80055
:1028A000B0FBF1F000F00700044308E0322000EB39
:1028B00008106421B0FBF1F000F00F0004432C81FC
:1028C000BDE8FF87001001400014014001468888E0
:1028D000C0F30800704700BFFEE703B40198410051
:1028E000009850EAC12018BF04204A0D18BF40F0DC
:1028F000010040F2FF72B2EB515F08BF40F00200EE
:10290000012808BF052002B070472DED020B019889
:1029100020F0004001909DED000B02B070470000D8
:102920002DE9F0412DED020B9FED3D0B2DED028BBE
:102930009FED3D8BDDE90254C4F30A50A0F2FF364F
:10294000142E37DA002E18DA53EC102B9DED020B03
:1029500051EC100B02F078FB53EC182B02F008FF3F
:1029600057D2002CA4BF0024254652DA24F00040A0
:10297000284318BF2E4C4CD01AE02E4820FA06F7F8
:1029800004EA070028431FD053EC102B9DED020BE7
:1029900051EC100B02F058FB53EC182B02F0E8FE40
:1029A00037D2002C03DA4FF48010F0400444BC43CB
:1029B00000252EE0332E07DCA6F114004FF0FF3186
:1029C00021FA00F73D4206D19DED020BBDEC028BD2
:1029D00002B0BDE8F08153EC102B9DED020B51ECE1
:1029E000100B02F0FBFE53EC182B02F0C1FE10D2CC
:1029F000002C0DDA142E08BF641C09D0C6F1340077
:102A0000012101FA00F02844A84238BF641C0546A1
:102A1000BD43CDE902549DED020BD7E70000000055
:102A20009C7500883CE4377E000000000000000038
:102A30000000F0BFFFFF0F002DE9F04D2DED040B5E
:102A40002DED0C8B96B0DDE92350259CDDF888A098
:102A500025F0004624F00048BAF1000F14BF012110
:102A6000002101EB4502FE4953184A1093422AD334
:102A7000002814BF0123002303EB44030B44F9494E
:102A80008B4220D358EA00019FEDF78B6FD0DFF81F
:102A9000E0B35D4503D1BAF1000F05D187E0BAF18B
:102AA000000F08BF002100D0012101EB450111F505
:102AB000001F08D8002814BF0121002101EB4401A8
:102AC00011F5001F0BD99DED241B9DED220B16B0B7
:102AD000BDEC0C8B04B0BDE8F04D00F05DBE0027EE
:102AE000002DBCBFE349884521DAE3498845A8BFEA
:102AF00002271CDAC3451ADCE04901EB28511429EE
:102B000008DDC1F1340220FA02F101FA02F2824238
:102B10000DD108E058B9C1F1140228FA02F101FA06
:102B200002F2424503D101F00101C1F1020756EA68
:102B30000A011DD1002C1BDA002D18BF022F01D075
:102B4000012F0AD00220FDF768FE16B0BDEC0C8BF9
:102B500004B0BDE8F04D00F007BE0220FDF75DFEB9
:102B600000F002FE51EC100B02F062FA83E01EE06E
:102B70009FEDC39B9FEDC4AB002872D1BD4880453B
:102B80002DD105F1804010F5801008BFBAF1000F7B
:102B90000DD0B34515DC002CA1BF9DED240B16B064
:102BA000BDEC0C8B04B0A8BFBDE8F08D12E0B0EE18
:102BB000480AF0EE680A16B0BDEC0C8B04B0BDE814
:102BC000F08D002C06DA9DED240B51EC100B02F079
:102BD0002FFA50E0AE48784490ED000BEBE7D84573
:102BE0004FD1002C4ADA2EB186423BD1BAF1000F08
:102BF00044D126E0BAF1000F13D00220FDF70DFEFC
:102C000000F0E6FD8DED020B9DED220B8DED000B2E
:102C100010EE900A039961F31E0003909DED020BE4
:102C2000C9E78DED029B9DED220B19EE901A10EE77
:102C3000900A8DED000B61F31E0003909DED020BD9
:102C4000B9E78DED02AB9DED220B1AEE901A10EE56
:102C5000900A8DED000B61F31E0003909DED020BB9
:102C6000A9E729E00ADA9DED220B51EC180B53EC91
:102C7000102B02F0A5FA41EC100B9CE79DED220B06
:102C800099E7864218DAB4F1804F0DD0A4F10050D4
:102C9000B0F1FF5010D1002D0EDB9DED220B51EC59
:102CA000100B02F02EF8E6E79DED220B53EC102BF3
:102CB00051EC100B00F0AEBC9DED220B51EC100B53
:102CC00000F080FFBAF1000FCDE90C0134D19FED87
:102CD000720BDEB1A6F1E040B0F17F602CD1002D87
:102CE00001DD002C0DDA002D01DD002C1FDB002D95
:102CF00016DA002C14DB012F08BF9FED690B3FF49F
:102D00005AAFB0EE490AF0EE690A54E7022F18BF35
:102D1000002D0CD0012F0AD1002DFFF64CAF06E09C
:102D2000002DB8BF002C07DA012F3FF444AFB0EEFE
:102D30004A0AF0EE6A0A3EE7012000EBE57A5AEA19
:102D400007000CD05848002580457CDD574958487D
:102D5000884514DDB0420DDB002C19DB2BE001208F
:102D6000FDF75BFD16B0BDEC0C8B04B0BDE8F04D7B
:102D700000F01EBDB34502DC002C09DC1BE08642DE
:102D800002DA002C17DA03E05E4527DD002C12DDA5
:102D90000220FDF742FD00F01BFD10EE901A19EE27
:102DA000900A8DED020B8DED009B61F31E000390E8
:102DB0009DED020BFFE60220FDF72FFD00F018FD50
:102DC00010EE901A18EE900A8DED020B8DED008B2F
:102DD00061F31E0003909DED020BECE69DED220BCE
:102DE00053EC182B51EC100B02F0D0FD9FED320B81
:102DF000CDE90A0153EC102B9DED0A0B51EC100BA1
:102E000002F0B8FB9FED2E1B53EC112B02F0E6FCF9
:102E10009DED0A1B53EC112B02F0ACFB9FED2A1B1E
:102E200053EC112B02F0DAFC9DED0A0B41EC190B6F
:102E300053EC102B51EC100B02F09CFB53EC192BB4
:102E400002F098FB00E07EE09FED210B41EC1A0BB5
:102E500053EC102B9DED0A0B51EC100B3CE00000E5
:102E6000FFFF1F00FFFF0F00000000000000F03F09
:102E70000000F03F0000F07F0000404301FCFFFF36
:102E8000000000000000F07F0000000000000000D3
:102E90004E31000000000000000000000000008033
:102EA000000000000000F0FF0000E0410000F043DF
:102EB000FFFFEF3F00000000000000000000D03FD7
:102EC000555555555555D53F000000000000E03FD1
:102ED000000000604715F73F02F04CFB41EC190B76
:102EE0009FEDFD0B51EC1A0B53EC102B02F042FB43
:102EF00041EC1A0B9FEDFA0B53EC102B9DED0A0BD6
:102F000051EC100B02F036FB53EC1A2B02F03EFD95
:102F100041EC1A0B51EC190B53EC1A2B02F094F8FC
:102F20000690CDE906519DED060B53EC192B51ECA3
:102F3000100B02F02BFD53EC1A2B02F04FFC41EC6E
:102F4000100B00F09FB90020B6F5801F0EDA9FED40
:102F5000E60B53EC102B9DED0C0B51EC100B02F01B
:102F600009FBCDE90C016FF034000E4600EB265052
:102F7000A0F2FF38C6F31300DD4940F07F6646F04B
:102F800040568842D8BF002409DDDA498142C8BFD3
:102F9000012404DC0024A6F5801608F10108D648B7
:102FA000784400EBC4000D9690ED00BB9DED0C0B3A
:102FB00053EC1B2B51EC100B02F0E8FC9DED0C0BBD
:102FC00041EC1A0B53EC1B2B51EC100B02F03CF8AC
:102FD00041EC100B51EC180B53EC102B02F0F0F8F5
:102FE00041EC1C0B51EC1A0B53EC1C2B02F0C2FAF7
:102FF00041EC190BC1488DED109B7844109590ED74
:10300000000B4FF0005040EA660000EB84408DED6D
:103010000A0B00F500200B909DED0A0B53EC1B2BC7
:1030200051EC100B02F0B2FC9DED0C1B53EC112B7C
:1030300002F0D4FB41EC100B53EC102B9DED100B68
:1030400051EC100B02F096FA9DED0A0B41EC1B0BB4
:1030500053EC102B9DED100B51EC100B02F08AFA83
:1030600053EC1A2B02F0BAFB53EC1B2B02F08EFC34
:1030700053EC1C2B02F07EFA41EC1B0B53EC192B8A
:1030800051EC190B02F076FA41EC1A0B9C48062120
:10309000B0EE4A0AF0EE6A0A784400F0E9FAB0EEBF
:1030A00040CAF0EE60CA53EC1A2B51EC1A0B02F036
:1030B00061FA53EC1C2B02F05DFA9DED100B41EC14
:1030C0001A0B53EC192B51EC100B01F0BDFF53EC14
:1030D0001B2B02F04FFA53EC1A2B01F0B5FF9DEDBC
:1030E000100B41EC1A0B53EC102B51EC100B02F0AF
:1030F00041FA41EC1C0B9FED84DB53EC1D2B01F0DE
:10310000A3FF53EC1A2B01F09FFF0A90CDE90A515F
:103110009DED0A0B53EC1D2B51EC100B02F036FC0D
:1031200053EC1C2B02F032FC53EC1A2B02F056FB32
:103130009DED0A0B41EC1C0B53EC102B9DED100B7D
:1031400051EC100B02F016FA41EC1A0B53EC192B50
:1031500051EC1C0B02F00EFA9DED0A0B41EC190B21
:1031600053EC102B51EC1B0B02F004FA53EC192B0F
:1031700001F06AFF41EC190B51EC1A0B53EC192BBF
:1031800001F062FF1090CDE910519DED100B53EC52
:103190001A2B51EC100B02F0F9FB53EC192B02F037
:1031A0001DFB41EC190B9FED5A0B53EC102B9DEDC1
:1031B000100B51EC100B02F0DDF941EC1A0B9FEDF6
:1031C000560B51EC190B53EC102B02F0D3F941ECD8
:1031D000190B9FED530B53EC102B9DED100B51EC85
:1031E000100B02F0C7F953EC192B01F02DFF41EC45
:1031F000100B4D48784400EBC40090ED001B51ECDF
:10320000100B53EC112B01F01FFF41EC190B404642
:1032100002F05DF9CDE90A0153EC192B51EC1A0BC0
:1032200001F012FF41EC100B4048784400EBC40061
:1032300090ED00BB51EC100B53EC1B2B01F004FF85
:103240009DED0A1B53EC112B01F0FEFE0690CDE91B
:1032500006519DED0A0B53EC102B9DED060B51EC26
:10326000100B02F093FB53EC1B2B02F08FFB53EC83
:103270001A2B02F08BFB53EC192B02F0AFFA41EC46
:10328000100B00BF781EB0EE48AAF0EE68AA5AEA0A
:10329000000008BF9FED268B9DED241B53EC102BE7
:1032A0008DED001B00959DED240B51EC100B02F0F1
:1032B00061F99DED000B41EC190B53EC102B9DEDCA
:1032C000240B51EC100B02F061FB9DED061B53EC3F
:1032D000112B02F04FF92FE0FE822B654715F73FC7
:1032E00044DF5DF80BAE543E000000000000404398
:1032F0008E9803007AB60B00FC2C00002A2D0000EB
:10330000342C000000000000000000000000084015
:10331000000000E009C7EE3FFD033ADC09C7EE3FBD
:10332000F5015B14E02F3EBEC82A0000822A00008F
:10333000000000000000F0BF53EC192B01F084FEE8
:103340009DED060B41EC190B53EC102B9DED000B82
:1033500051EC100B02F00EF9CDE910019DED100BB0
:1033600051EC190B53EC102B01F06EFECDE902016C
:103370000C46AB498C422FDB611A084318D19DEDF6
:10338000100B53EC102B9DED020B51EC100B02F0C7
:10339000FDFA41EC1B0B9FEDA40B51EC190B53EC08
:1033A000102B01F051FE53EC1B2B02F0E1F92DD252
:1033B0000220FDF732FA00F00BFA10EE901A18EE28
:1033C000900A8DED020B8DED008B61F31E000390D2
:1033D0009DED020BFFF7EFBB954A24F000419142AF
:1033E00014D39449214408437FF4E5AC9DED100BC0
:1033F00053EC102B9DED020B51EC100B02F0C6FAB2
:1034000053EC192B02F0B4F97FF6D5AC24F0004050
:1034100089498A4A002601EB205182422BDA481C56
:103420004FF4801121FA00F02044854AC0F30A517C
:103430007A44A1F2FF3192ED000B824A8DED0A0B26
:10344000CA4020EA0202C0F3130040F48010C1F128
:10345000140120FA01F60B92002CB8BF76429DEDC4
:103460000A0B53EC102B9DED100B51EC100B02F0DE
:103470008DFACDE910019DED100B51EC190B53ECB9
:10348000102B01F0E1FD9FED700B0A90CDE90A5180
:1034900053EC102B9DED0A0B51EC100B02F06AF867
:1034A00041EC1B0B9FED6A0B53EC102B9DED0A0BAF
:1034B00051EC100B02F05EF89DED100B41EC1C0B73
:1034C00053EC102B9DED0A0B51EC100B02F05EFA41
:1034D00053EC192B02F082F99FED5F1B53EC112B7B
:1034E00002F048F853EC1C2B01F0AEFD41EC190B37
:1034F00051EC1B0B53EC192B01F0A6FDCDE9020199
:103500009DED020B53EC1B2B51EC100B02F03EFA1D
:1035100053EC192B02F062F99DED020B41EC190BF3
:1035200053EC102B51EC100B02F024F8CDE90A01FA
:103530004B489DED0A0B0521784400F099F89DED6C
:103540000A1B51EC100B53EC112B02F013F89DEDFC
:10355000021B53EC112B02F041F9CDE906019DED60
:10356000020B53EC192B51EC100B02F003F853EC47
:10357000192B01F069FD9FED3C0B41EC190B53EC4D
:10358000102B9DED060B51EC100B02F0FFF99DED99
:10359000060B41EC1B0B53EC102B9DED020B51EC79
:1035A000100B01F0E7FF53EC1B2B01F009FE53EC6D
:1035B000192B02F0EBF99DED021B53EC112B02F0DD
:1035C000E5F953EC1A2B02F009F9CDE9020101EB00
:1035D000065001150029C8BF039015DC9DED020BB4
:1035E000324651EC100B02F0F4FAFFF776F904289A
:1035F00008BF00F0FDF832469DED020B51EC100BB8
:1036000002F0E7FACDE902019DED020B51EC180B37
:1036100053EC102B01F0AEFFFFF72DBB00000000B4
:103620000000904000000000FE822B654715973C8B
:1036300000CC904000346F3F01FCFFFF0000E03FF2
:10364000F4280000FFFF0F0000000000432EE63FBB
:10365000396CA80C615C20BEEF39FAFE422EE63FC1
:10366000C42700000000000000000000000000402F
:1036700070B504462DED028B4D1E00EBC500B0EE7B
:10368000408AF0EE608A90ED000B35F0060017D00E
:1036900053EC182B51EC100B01F06CFF41EC100BAC
:1036A0006D1E04EBC50090ED001B51EC100B53ECAC
:1036B000112B01F0C9FC41EC100B35F00600E7D1ED
:1036C000022D36D0042D1CD0062D1CBFBDEC028B64
:1036D00070BD53EC182B51EC100B01F04BFF94ED27
:1036E0000A1B53EC112B01F0AFFC53EC182B01F02B
:1036F00041FF94ED081B53EC112B01F0A5FC41ECAC
:10370000100B53EC182B51EC100B01F033FF94ED20
:10371000061B53EC112B01F097FC53EC182B01F016
:1037200029FF94ED040B53EC102B01F08DFC41ECC0
:10373000100B53EC182B51EC100B01F01BFF94ED08
:10374000021B53EC112B01F07FFC53EC182B01F002
:1037500011FF94ED001B53EC112B01F075FCBDEC37
:10376000028B41EC100B70BD9FED070B10B553ECB5
:10377000102B9FED070B51EC100B01F021FD41ECDC
:10378000100B10BD00000000000000000000000051
:10379000000000000000F03F10B553EC112B51EC7D
:1037A000100B01F051FC41EC100B10BD00000000AB
:1037B0009FED050B10B553EC102B51EC100B01F0E5
:1037C000FFFC41EC100B10BD0000000000000000E9
:1037D0009FED050B10B553EC102B51EC100B01F0C5
:1037E000C9FE41EC100B10BD00000000000000708D
:1037F0009FED050B10B553EC102B51EC100B01F0A5
:10380000B9FE41EC100B10BD0000000000000010DC
:1038100030380A2801D20120704700207047014645
:1038200000BF704770B505460E46AC6806B970BD5E
:103830000CB9AE6009E000E0246814B120680028EB
:10384000FAD13146204601F093FA00BFEFE70000BD
:1038500070B506460D46144604B970BD206A18B10D
:103860000649206A09688847284600F0DBF820628C
:1038700021463046FFF7D6FF00BFEEE748000020A4
:1038800010B52DED028BB0EE408AF0EE608A00F0AC
:1038900051F8044644B10320E06084ED068B51ECFE
:1038A000180B01F0E5FD60612046BDEC028B10BDF8
:1038B00010B500F03FF804460CB10620E060204649
:1038C00010BD000070B504461EE02568A08900F414
:1038D000807020B9A06810B1A068FFF7F3FFA0893D
:1038E00000F4807028B9206918B109492069096875
:1038F0008847206A18B10649206A09688847204627
:103900000349096888472C46002CDED170BD0000B1
:103910004800002070B505460E46AC6800E02468FB
:103920002CB13146206A00F057F80028F7D1204624
:1039300070BD000010B52820054909688847044675
:103940001CB128212046FCF704FF204610BD0000D2
:103950004400002010B5044600221146204600F025
:1039600001F810BD2DE9F04780460D4616460024AB
:10397000FFF7E0FF07460020124908600FB9BDE8D5
:10398000F087404601F0B4F981464946384600F0D8
:1039900095FD044624B93846FFF794FF0020EEE772
:1039A00066B1204601F0A4F90446207830B13846CB
:1039B000FFF788FF034804600020E0E705B12C60B2
:1039C0003846DCE74000002010B504460122002103
:1039D000204601F043F910BD70B504460D462CB9E0
:1039E000AC4201D0012070BD0020FCE70DB90120E0
:1039F000F9E705E0207808B90020F4E7641C6D1CA5
:103A00002078FCF74EFC06462878FCF74AFC8642F4
:103A1000F0D02078FCF745FC06462878FCF741FCFE
:103A2000301AE0E770B504462046FCF7C1FD451C9E
:103A30002846064909688847060000D170BD2A4615
:103A400021463046FCF71EFE3046F7E744000020D2
:103A500010B504466FF00400FEF7B2FCE11704EB6A
:103A60005171C1F3C701074A11701046007800EB8D
:103A70004001C1EBC0104FF6FF7101EAC0000249DE
:103A8000088010BD000000200200002070B5044630
:103A90004FF4077094FBF0F0C6B24FF4077094FB3C
:103AA000F0F100FB114085B205E04FF4077000F023
:103AB00009F8701EC6B2002EF7D115B1284600F0E5
:103AC00001F870BD0146114A12884A434FF0E023C5
:103AD0005A6100229A611A46126942F001021A6183
:103AE00000BF4FF0E022106900F001021AB100F4AB
:103AF0008032002AF5D04FF0E022126922F0010254
:103B00004FF0E0231A6100229A6170470200002002
:103B100010B52DED0C8BB0EE408AF0EE608A9FED73
:103B2000210BB0EE409AF0EE609A9FED200BB0EEC4
:103B300040DAF0EE60DA9FED1F0BB0EE40AAF0EE37
:103B400060AA9FED1A0B53EC102B51EC180B01F0EF
:103B50000FFE15D253EC1D2B51EC180B01F016FF84
:103B600041EC1C0B9FED150B53EC102B01F002FDEB
:103B700041EC1B0B53EC192B01F066FA41EC190BCD
:103B800053EC1A2B51EC190B01F0F2FD03D2B0EEFD
:103B90004A9AF0EE6A9AB0EE490AF0EE690ABDEC74
:103BA0000C8B10BD0000000000003E400000000033
:103BB000000024400000000000004440000000001D
:103BC0000000004082B0CDE9000121F000400190EA
:103BD0009DED000B02B051EC100B704700BF054A81
:103BE000128802F04002002AF9D0C2B2014B9A803A
:103BF000704700000010014008B500BF4FF4A060FE
:103C0000FEF71EFAA820FFF723FF4FF4E13001F082
:103C100061F94FF4E13001F0AFF84FF4E13001F019
:103C200001F9FEF7ADF92D20144908701449087008
:103C300022E03220FFF72AFFFEF758FAFEF70AFAD1
:103C4000104800680090104890ED000B53EC102BCA
:103C50000E4801680E48FCF731FB0E4800680090E2
:103C60000D4890ED000B53EC102B0C4801680C48EC
:103C7000FCF724FBFDF7CCFDDBE700005408002037
:103C80004413002070000020680000206000002025
:103C9000C45D00088000002078000020740000202F
:103CA0000C5E000870B505460F48007C20B90E492F
:103CB00008688047012070BDB5F5804F11D26909B1
:103CC0000948C06830F81120002406E00020064BA7
:103CD000DB680E1923F81600641C9442F6DB002002
:103CE000E9E70220E7E700004C00002000B50949A1
:103CF0004FF48062C868002100F0A2F805494FF433
:103D000080428868002100F09BF801200149087476
:103D100000BD00004C0000202DE9F04106460024C3
:103D2000A0461A48007C10B91849086880471EB997
:103D30004FF0FF30BDE8F081C6F34F1506F01F00CD
:103D400008B1681C85B240F2FF141AE00F48C06841
:103D500030F8140020B908F101001FFA80F801E0E2
:103D60004FF00008A8450BD1002705E00748C068C0
:103D7000E11920F811507F1CAF42F7D36001D9E759
:103D8000641E002CE2DA4FF0FF30D3E74C00002035
:103D90000022002106E00748C06830F8110000B199
:103DA000521C491CB1F5007FF5D364205043C0F389
:103DB000472070474C00002010B52DED048BB0EE6D
:103DC000408AF0EE608A9FED0D0B53EC102B51EC06
:103DD000180B01F093FB06D251EC180B01F028F9F7
:103DE00041EC190B03E0B0EE489AF0EE689AB0EEA1
:103DF000490AF0EE690ABDEC048B10BD000000001A
:103E00000000000070B5044604B970BD0348806826
:103E1000251A2846FFF746FF00BFF6E74C000020B2
:103E200070B505462846FFF777FF0446601C08B9C1
:103E3000002070BD014880682044FAE74C00002053
:103E400030B5034601E003F8011B1400A2F10102A2
:103E5000F9D130BD2DE9F04705460C4620785B28A6
:103E600004D0264804600020BDE8F0870520E86003
:103E7000601C00F03DFF044620785D2801D1601CE5
:103E8000F2E7FFF757FD0646A860A86808B90020CA
:103E9000EAE7204600F02CFF80464146304600F01D
:103EA0000DFB074600F024FF04460CB90020DBE7B9
:103EB00017E0FFF73FFD070000D1D5E737607E60D0
:103EC0003E46601C00F014FF81464946304600F033
:103ED000F5FA804600F00CFF04460CB90020C3E759
:103EE00000BF20782C28E4D020785D2801D1601C08
:103EF000BAE7024804600020B6E700004000002056
:103F0000014600220878302806DB0878392803DCCF
:103F100008783038024415E00878412806DB087834
:103F2000462803DC0878373802440BE0087861281B
:103F300006DB0878662803DC08785738024401E07D
:103F4000002070471201491C0878302806DB0878E9
:103F5000392803DC08783038024415E00878412815
:103F600006DB0878462803DC0878373802440BE083
:103F70000878612806DB0878662803DC087857385B
:103F8000024401E00020DCE71201491C08783028D7
:103F900006DB0878392803DC08783038024415E05D
:103FA0000878412806DB0878462803DC087837388B
:103FB00002440BE00878612806DB0878662803DCF9
:103FC00008785738024401E00020BAE71201491C82
:103FD0000878302806DB0878392803DC0878303880
:103FE000024415E00878412806DB0878462803DCFF
:103FF0000878373802440BE00878612806DB087837
:10400000662803DC08785738024401E0002098E76E
:10401000104696E72DE9F0412DED0E8B05460C4636
:104020009FED660BB0EE408AF0EE608A9FED650B67
:10403000B0EE40AAF0EE60AA9FED600BB0EE409AA1
:10404000F0EE609A0026012720782D2806D19FEDFA
:104050005F0BB0EE40AAF0EE60AA641C2078302816
:1040600000D1641C2078312821DB207839281EDC1F
:1040700000BF14F8011BA1F1300001F028FA41EC57
:104080001B0B9FED540B53EC102B51EC180B01F054
:1040900071FA41EC1C0B53EC1B2B00F0D5FF41ECEB
:1040A000180B2078302802DB20783928E1DD2078D1
:1040B0002E282FD1607830282CDB6078392829DC35
:1040C000641C00BF14F8011BA1F1300001F0FFF9DE
:1040D00041EC1B0B9FED3F0B53EC102B51EC180BDD
:1040E00001F048FA41EC1C0B53EC1B2B00F0ACFF29
:1040F00041EC180B9FED330B53EC102B51EC190BCB
:1041000001F044FC41EC190B2078302802DB2078C8
:104110003928D7DD2078652802D02078452819D1A4
:10412000641C20782B2801D1641C05E020782D2800
:1041300002D14FF0FF37641C06E014F8010B303851
:1041400006EB860100EB41062078302802DB207860
:104150003928F2DD06FB07F001F0B9F941EC1E0B3E
:1041600053EC192B00F070FF41EC1D0BB0EE4D1A13
:10417000F0EE6D1A9FED170BFEF75EFCB0EE40BA45
:10418000F0EE60BA53EC182B51EC1A0B01F0F2F977
:1041900041EC1C0B53EC1B2B01F0ECF941EC180B20
:1041A00085ED068B51EC180B01F062F96861032074
:1041B000E8602046BDEC0E8BBDE8F08100000000F9
:1041C00000000000000000000000F03F00000000C0
:1041D0000000F0BF00000000000024402DE9F0477F
:1041E00006460C4620787B2804D040480460002016
:1041F000BDE8F0870620F060601C00F079FD044601
:1042000020787D2801D1601CF2E7FFF793FB05467B
:10421000B060B06808B90020EAE7204600F068FD09
:1042200080464146284600F063F8074600F060FDEE
:1042300004460CB90020DBE72869286200202861C9
:1042400020783A2803D0294804600020D0E7601C79
:1042500000F04EFD80464146284600F02FF9074603
:1042600000F046FD04460CB90020C1E731E0FFF73D
:1042700061FB070000D1BBE72F607D603D46601CFD
:1042800000F036FD81464946284600F031F8804668
:1042900000F02EFD04460CB90020A9E72869286229
:1042A0000020286120783A2803D0104804600020BC
:1042B0009EE7601C00F01CFD81464946284600F040
:1042C000FDF8804600F014FD04460CB900208FE78D
:1042D00000BF20782C28CAD020787D2801D1601C0E
:1042E00086E702480460002082E7000040000020CA
:1042F0002DE9F05F8346884608F10104002798F80D
:104300000000222805D06A48C0F800800020BDE8DF
:10431000F09F04E014F8011B5C2900D1641C207894
:10432000222804D0207810B1781C0700F2D1781C24
:104330006049096888478146B9F1000F01D1002022
:10434000E5E708F101044D469EE020785C2804D0A2
:1043500014F8010B05F8010B96E0641C2078722814
:1043600018D006DC622809D066280BD06E287DD1D3
:104370000CE0742812D07528F9D113E0082005F854
:10438000010B7FE00C2005F8010B7BE00A2005F80B
:10439000010B77E00D2005F8010B73E0092005F80B
:1043A000010B6FE0601CFFF7ABFD0646241DB6F560
:1043B0005C4F02D3B6F5604F00D306B962E0B6F5A4
:1043C000584F1CD3B6F55C4F19D260785C2802D1E7
:1043D000A078752800D055E0E01CFFF791FD8246DB
:1043E000A41DBAF55C4F02D3BAF5604F00D349E083
:1043F000C6F30901504661F39F2000F5803604277B
:10440000802E01D2012708E0B6F5006F01D2022705
:1044100003E0B6F5803F00D203273D44012F20D0B2
:10442000022F15D0032F0AD0042F24D106F0BF008D
:1044300040F08001681E05460170B60900BF06F015
:10444000BF0040F08001681E05460170B60900BF3C
:1044500006F0BF0040F08001681E05460170B609F5
:1044600000BF1548C05D3043C1B200E006E0681EE1
:104470000546017000BF00BF3D4403E0207805F809
:10448000010B00BF00BF641C2078222803D02078D5
:1044900000287FF45AAF002028702078222800D10D
:1044A000641CCBF810900420CBF80C0020462EE7BB
:1044B00040000020440000205E5C000870B5054606
:1044C0000C460CB9002070BD042224A12046FCF744
:1044D0008EF818B90220E860201DF4E7052221A11A
:1044E0002046FCF784F818B90020E860601DEAE770
:1044F00004221EA12046FCF77AF820B90120E860CA
:104500006861201DDFE72078222804D12146284653
:10451000FFF7EEFED7E720782D2805D02078302849
:1045200007DB2078392804DC21462846FFF772FD96
:10453000C9E720785B2804D121462846FFF78AFC8A
:10454000C1E720787B2804D121462846FFF746FEA4
:10455000B9E7084804600020B5E700006E756C6C90
:104560000000000066616C73650000007472756580
:1045700000000000400000202DE9F74F82B0834684
:104580004FF0000805200190DBF808900027002577
:104590000020009002E07F1CD9F80090B9F1000FD4
:1045A000F9D17FB903204C49096888478046B8F1A2
:1045B000000F03D049A14046FBF7D6FF404605B0A7
:1045C000BDE8F08FB80044490968884706460EB92F
:1045D0000020F4E7B9003046FCF7BBF8DBF80890A0
:1045E0001FE0DDE90312491C484600F037FB824614
:1045F00029466D1C46F821A0BAF1000F0DD0504697
:10460000FBF7D6FF801C049909B1012100E00021CD
:10461000014401980844019001E001200090D9F87C
:104620000090B9F1000F02D000980028D9D000986E
:1046300020B929490198096888478046B8F1000FD8
:1046400001D101200090009890B1002508E056F8B3
:10465000250020B156F825002149096888476D1CBE
:10466000BD42F4DB30461E49096888470020A6E7B2
:104670005B2088F8000008F101040020207000256C
:104680001CE056F825102046FBF76EFF56F8250073
:10469000FBF78EFF0444781EA84209D02C2004F8B2
:1046A000010B049810B1202004F8010B00202070A9
:1046B00056F825000A49096888476D1CBD42E0DBB1
:1046C00030460749096888475D2004F8010B00203F
:1046D00004F8010B404672E7440000205B5D0000D7
:1046E0004800002070B52DED088B054695ED060BB2
:1046F000B0EE408AF0EE608A686900F0E8FE41ECB6
:104700001B0B53EC182B01F041F941EC1A0BB0EEE6
:104710004A0AF0EE6A0AFEF7F8F8B0EE409AF0EEB8
:10472000609A9FED520B53EC102B51EC190B00F0DB
:10473000E5FE1ED89FED4F0B53EC102B51EC180BE0
:1047400000F0DCFE15D89FED4D0B53EC102B51EC17
:10475000180B01F00DF80CD815204A490968884754
:104760000446002C7ED048A120466A69FBF7B2FDC2
:1047700078E040204349096888470446002C71D0FE
:10478000B0EE480AF0EE680AFEF7CAF8B0EE40BA9A
:10479000F0EE60BA53EC182B51EC1B0B01F0F6F85D
:1047A00041EC1A0BB0EE4A0AF0EE6A0AFEF7ADF8D9
:1047B000B0EE409AF0EE609A9FED2C0B53EC102B6C
:1047C00051EC190B00F09AFE19D8B0EE480AF0EE41
:1047D000680AFEF79AF8B0EE409AF0EE609A9FED04
:1047E0002B0B53EC102B51EC190B00F087FE06D26B
:1047F00053EC182B27A12046FBF76CFD32E0B0EEFE
:10480000480AF0EE680AFEF780F8B0EE409AF0EE43
:10481000609A9FED220B53EC102B51EC190B00F01A
:104820006DFE12D3B0EE480AF0EE680AFEF76DF89E
:10483000B0EE409AF0EE609A9FED1A0B53EC102BFD
:1048400051EC190B00F094FF06D253EC182B17A172
:104850002046FBF73FFD05E053EC182B14A1204642
:10486000FBF738FD2046BDEC088B70BD0000000052
:104870000000B03C0000C0FFFFFFDF41000000006F
:104880000000E0C1440000202564000044F3C2E4BD
:10489000E4E9634C252E3066000000008DEDB5A0E4
:1048A000F7C6B03E0000000065CDCD412565000093
:1048B000256600002DE9F74F88B0884616464FF070
:1048C0000009CA4600200790072004900025089898
:1048D0008068029000270020019003E07F1C02986E
:1048E0000068029002980028F8D14FBB16B108F179
:1048F000040100E0032108468949096888470790B8
:10490000079818B900200BB0BDE8F08F079C7B20FA
:1049100004F8010B66B10A2004F8010B002503E03E
:10492000092004F8010B6D1CA8F10100A842F7DC76
:104930007D2004F8010B002004F8010B0798E2E742
:10494000B8007749096888478146B9F1000F01D15D
:104950000020D8E7B8007249096888478246BAF152
:10496000000F05D148466F49096888470020CAE70B
:10497000B9004846FBF7EDFEB9005046FBF7E9FEEB
:1049800008988068029008F1010816B10498404424
:1049900004902DE00299086A00F0CCF805904AF8DE
:1049A000250032464146029800F058F929466D1C10
:1049B000069049F821000598A8B1069898B1069884
:1049C000FBF7F6FD83460598FBF7F2FD0BEB0001C4
:1049D000891C16B108F1020000E00020014404988F
:1049E0000844049001E001200190029800680290C0
:1049F00002980028CED1019820B949490498096845
:104A000088470790079808B9012001900198F0B1F4
:104A1000002510E05AF8250020B15AF82500414938
:104A20000968884759F8250020B159F825003D4903
:104A3000096888476D1CBD42ECDB5046394909685E
:104A40008847484637490968884700205BE77B214B
:104A5000079801700798441C16B10A2004F8010B4E
:104A60000020207000253EE05EB10020039005E0AC
:104A7000092004F8010B0398401C0390039840455B
:104A8000F6DB5AF825102046FBF76EFD5AF8250094
:104A9000FBF78EFD04443A2004F8010B16B10920FF
:104AA00004F8010B59F825102046FBF75DFD59F875
:104AB0002500FBF77DFD0444781EA84202D02C207F
:104AC00004F8010B16B10A2004F8010B0020207035
:104AD0005AF8250013490968884759F825001149F3
:104AE000096888476D1CBD42BEDB50460D49096808
:104AF000884748460B49096888474EB1002503E0BE
:104B0000092004F8010B6D1CA8F10100A842F7DC94
:104B10007D2004F8010B002004F8010B0798F2E651
:104B2000440000204800002010B50446206900F031
:104B300001F810BD2DE9F04707464FF0000827B9EE
:104B400040A0FEF76FFFBDE8F0873D460DE0494607
:104B50003DA0FBF7FFFC10B108F1010804E0B9F13A
:104B6000200F01DA08F105086D1C95F80090B9F1E5
:104B7000000F04D008F101005FEA0008E7D108F156
:104B8000030033490968884706460EB90020DAE772
:104B900034463D46222004F8010B47E028781F28C0
:104BA0000ADD2878222807D028785C2804D015F858
:104BB000010B04F8010B39E05C2004F8010B15F837
:104BC000011B89460C2919D006DC082912D00929B5
:104BD00020D00A2922D115E00D2917D0222905D08D
:104BE0005C291BD15C2004F8010B1EE0222004F894
:104BF000010B1AE0622004F8010B16E0662004F8AD
:104C0000010B12E06E2004F8010B0EE0722004F894
:104C1000010B0AE0742004F8010B06E04A460DA1DE
:104C20002046FBF757FB641D00BF00BF2878002813
:104C3000B4D1222004F8010B002004F8010B304607
:104C400081E7000000000000225C080C0A0D09004A
:104C50004400002075253034780000002DE9F04133
:104C600004460D461646002714B90020BDE8F08121
:104C7000207B07282CD2DFE800F0090E0413181D52
:104C8000240015A0FEF7CEFE074621E014A0FEF793
:104C9000C9FE07461CE014A0FEF7C4FE074617E055
:104CA0002046FFF71FFD074612E02046FFF73CFFB6
:104CB00007460DE0324629462046FFF75DFC0746D1
:104CC00006E0324629462046FFF7F4FD074600BFBE
:104CD00000BF3846CAE700006E756C6C000000002B
:104CE00066616C73650000007472756500000000F9
:104CF00000E0401C20B1017811B101782029F8DDD5
:104D0000704700B52DED048B83B041EC190B00F01A
:104D100071FD41EC180B18EE100A18EE901A8DED8B
:104D2000008B002818BF0120084320F00040C0F18C
:104D30007F6000F1E040C00F14D019EE101A19EE98
:104D4000900A8DED009B002918BF0121084320F037
:104D50000040C0F17F6000F1E040C00F04BF0120BF
:104D6000FBF75BFD51EC180B03B0BDEC048B00BDF1
:104D7000016048607047000010B588B0044601210A
:104D80000846FDF701FA01214804FDF70DFA072254
:104D900002212248FDF7CDF8072203211F48FDF725
:104DA000C8F80C20059002208DF818008DF8190025
:104DB00000208DF81A0001208DF81B0005A9174866
:104DC000FDF76FF801940020ADF80800ADF80A0077
:104DD000ADF80C00ADF810000C20ADF80E0001A9E4
:104DE0000F48FDF709FD26208DF81C0000208DF8E6
:104DF0001D0003208DF81E0001208DF81F0007A85C
:104E0000FDF7E2F8012240F225510548FDF7CEFCFE
:104E100001210348FDF794FC08B010BD00000240DA
:104E20000044004010B588B0044601210220FDF77F
:104E3000ABF901218804FDF7B7F907220B212348BC
:104E4000FDF777F807220A212048FDF772F84FF4A2
:104E50004060059002208DF818008DF819000020A0
:104E60008DF81A0001208DF81B0005A91748FDF7E1
:104E700018F801940020ADF80800ADF80A00ADF86C
:104E80000C00ADF810000C20ADF80E0001A9104880
:104E9000FDF7B2FC27208DF81C0000208DF81D00C6
:104EA00003208DF81E0001208DF81F0007A8FDF7D4
:104EB0008BF8012240F225510548FDF777FC0121CE
:104EC0000348FDF73DFC08B010BD0000000402409F
:104ED0000048004010B588B0044601210846FDF79F
:104EE00053F901211020FDF76FF90722092122480B
:104EF000FDF71FF807220A211F48FDF71AF84FF4A3
:104F0000C060069002208DF81C008DF81D00002066
:104F10008DF81E0001208DF81F0006A91648FCF729
:104F2000C0FF02940020ADF80C00ADF80E00ADF803
:104F30001000ADF814000C20ADF8120002A90F48C3
:104F4000FDF75AFC01210D48FDF7FAFB012240F262
:104F500025510A48FDF72AFC25208DF8040003207E
:104F60008DF805008DF8060001208DF8070001A8D6
:104F7000FDF72AF808B010BD000002400010014003
:104F800010B50246002000BF0BE0135C064C2380E6
:104F900000BF054B1B1F1B8803F04003002BF8D0FC
:104FA000401C8842F1DB10BD0444004010B50246AD
:104FB000002000BF0BE0135C064C238000BF054BB4
:104FC0001B1F1B8803F04003002BF8D0401C8842B5
:104FD000F1DB10BD0448004010B500290AD0087864
:104FE000002807D005487844FCF716F8002801D0BF
:104FF000002010BD0248784410BD00008E0E000055
:10500000860E000010B500290AD00878002807D0C5
:1050100005487844FCF700F8002801D0002010BDB6
:105020000248784410BD0000720F00006A0F0000B3
:1050300081F00041704780F00040704721F000414E
:10504000704720F00040704710B591EA030F48BF49
:1050500083F0004300F1A284841A71EB030C05D2A3
:10506000121943EB0C03001B61EB0C01DFF824E188
:105070004FEA1154A4EB135C1EEA430F18BF9EEADB
:10508000445F73D023EA0E03DCF1200E21EA0451C1
:1050900043F4801332D322FA0CFE10EB0E0023FAF5
:1050A0000CFE41EB0E01CCF1200E03FA0EFE10EBCC
:1050B0000E0051F10001B1F5801FCCF1200E32D26B
:1050C00001EB045112FA0EF2BDE8104058BF7047D0
:1050D000401C38BF5FEA420218BF7047002814BF67
:1050E00020F0010041F100014FEA410313F5001FD8
:1050F00038BF7047A1F1C04100F034BB012A43EB37
:105100000302ACF1200CDCF11F0E32BF4FF0000E99
:1051100023FA0CF310EB030041EB0451B4EB115FE5
:10512000D0D0A1EB045101F5801149085FEA3000AD
:1051300001EB04510ED350F1000038BF12FA0EFEFD
:1051400008D1BDE81040C9E7401C38BF5FEA420201
:10515000CAD1C3E7BDE810404FEA410313F5001F71
:1051600038BF7047A1F1C04100F0FCBA9EEA445F2D
:1051700008D011EA5E0FBDE8104004BF01F0004105
:1051800000207047BDE8104070B500F09DFA00BFE8
:1051900064FBBE3E0000E0FF02494FF0000000F05B
:1051A000E6BC00BF0000F87F491058BFC1F1404184
:1051B0005B1058BFC3F140438B42EFF30080704750
:1051C0002DE9C04130B4DFF8A0C23CEA111418BF89
:1051D0003CEA131400F0EC8081EA03051CEA111488
:1051E00044EAD57418BF1CEA131500F0C780A4EB7D
:1051F00005044FF0004545EAC12145EAC32341EAD1
:10520000505143EA525304F17F74994204F500343B
:105210004FEAC0204FEAC22208BF904200F09C80B3
:105220004FEA13650FF24016765D4FEA134506FB11
:1052300005F7C7F1807706FB07F74FEAD737A7FBDB
:1052400003687642C8F58038A7FB06CE38BFA8F1C0
:10525000010807FB08E64FF0000EA6FB028CE6FBF8
:1052600003CEDCF1000CCEF1004E38BFAEF1010EE2
:10527000A6FB0C584FF000074FF00005E6FB0E8729
:10528000A1FB08C6A0FB07CE16EB0E0645F10005F4
:10529000E1FB076515F1E04E7EBFA4F580345FEABF
:1052A00046066D4116F1800745F100054FEA1727C4
:1052B0004FEA066647EA0567A6F1DE46B6F1805F6B
:1052C0004FEA15251FD9384624F0010C05EBC471AF
:1052D000BCF1FE6F01EB0C1102D8F0BCBDE80081FF
:1052E00024425CBF01F5801E9EEAC47F02D4F0BC5C
:1052F000BDE80081244238D4F0BCA1F1C041BDE832
:10530000004100F02FBA4FEAD22242EA43524FEA5C
:10531000D323A7FB02864FEAD02040EA415007FB87
:1053200003661EEA0E0F4FEAD12105FB026658BF45
:10533000A6EB0056B6EB00564FEA520E4EEAC37E7D
:1053400018EB0E0E56EB530EBDD518EB02085E415E
:105350007F1C55F10005B6E74FF480154FF00007AC
:105360004FF000064FF00008ADE7F0BC4FF0000032
:1053700001F1C04101F00041BDE8008111EA0C1FBC
:105380000CEA131500D00CE013EA0C1F00F0258086
:105390004FF00000F0BC81EA030101F00041BDE8DC
:1053A0000081F0BCBDE8004181EA030100F0DAB9F8
:1053B000F0BCBDE8004170B500F086F9097EFC3E06
:1053C00000F007B881EA03014FF0000001F000414E
:1053D000704781EA030100F0C5B9F0BCBDE80041A7
:1053E0004FF0000021497047FFFDFBF9F7F5F4F29B
:1053F000F0EEEDEBE9E8E6E4E3E1E0DEDDDBDAD870
:10540000D7D5D4D3D1D0CFCDCCCBCAC8C7C6C5C4CD
:10541000C2C1C0BFBEBDBCBBBAB9B8B7B6B5B4B3E4
:10542000B2B1B0AFAEADACABAAA9A8A8A7A6A5A4CF
:10543000A3A3A2A1A09F9F9E9D9C9C9B9A99999893
:105440009797969595949393929191908F8F8E8E36
:105450008D8C8C8B8B8A89898888878786858584C3
:1054600084838382828181800000FF070000F87FAF
:105470004FEA41034FEA5353A3F58063D3F11E0370
:10548000C8BFD3F1210C0CDD4FF0004242EAC1222B
:1054900042EA505232FA03FC8CEAE17CACEBE17058
:1054A0007047102BC4BF0020704703F5787CBCF117
:1054B000FF3F04D06FF0004282EA2100704770B5D0
:1054C00000F002F94992248000207047F2E710F0C2
:1054D000004248BF4042B0FA80F310FA03F10AD00C
:1054E000C3F11D0303F580634FEA415002EB035201
:1054F00002EBD12170474FF00000704751EA030CD6
:1055000017D41CF5801F58BFBCF5801F00F1068022
:10551000994218BF704708BF9042704707D711F5EE
:10552000801F58BF13F5801F19D4994270478942D4
:1055300070471CF5801F08D5BCF5801FF7D58B423E
:1055400018BF704708BF824270474FF4001C1CEB25
:10555000410F38BF1CEB430F01D28B42704770B52F
:1055600000F0B2F8922449004FF000514FF0805300
:10557000FFF71ABEDFF848C170B51CEA111E1EBF46
:105580001CEA13159EEA0C0F95EA0C0F00F06F80D1
:1055900081EA030423EA4C134EEAD47E21EA4C113B
:1055A00041F4801143F48013AE44A1FB024CA0FBF4
:1055B0000365AEF17F7E361955EB0C05A1FB034C5C
:1055C0004CF10003A0FB021C16EB0C06654153F1E5
:1055D0000003094218BF46F0010613F4007F0BD107
:1055E0004FEA03314FEA0530340341EA155140EAEE
:1055F00016506FF003020AE04FEAC3214FEAC520BC
:10560000F40241EA555140EA56506FF0020202EBB3
:105610002E4201EB025585EACE710AD05FEA440CB6
:1056200018BF24F0004450F1000041F1000120EACD
:10563000D47040F2FE7C624500D270BDA84214BF17
:105640004FF080444FF04044002E08BF0024BEF1CC
:10565000806FA8BFA1F1C041BDE8704080F2828098
:105660004FF0000001F1C04101F0004170479EEA97
:105670000C0F0CEA131518BF95EA0C0F06D04FF06B
:10568000000081EA030E0EF0004170BD00F01CF82E
:105690008900013E00F007B800F009B84FEA430C5A
:1056A0005FEA5C5C08D081EA030100F05BB84FEA76
:1056B000410C5FEA5C5CF6D14FF000000149704795
:1056C0000000FF070000F87F0EF1020E2EF0030E1F
:1056D0005EF8046B364205D4012A43EB030515F549
:1056E000001F12D8012841EB010C1CF5001F0CD83B
:1056F0000ED14FEAD17C15F5001F0CEB4C0C0CF1D0
:10570000020C08BF4CEBD37C04E04FF0080C01E026
:105710004FEAD37C0CEB4C0526FA05F606F007069B
:10572000B6F1040C06D20EEB860CBDE870404CF0CE
:10573000010C6047DFE80CF0090B02024FF000415A
:105740004FF00000A1F5002170BD19461046012858
:1057500051EB010418BFD4F5001484BF002001F000
:10576000004170BD0808A0F500114FEA31017047F3
:1057700053EA010C17D41CF5801F58BFBCF5801FDD
:1057800000F106808B4218BF704708BF8242704705
:1057900007D713F5801F58BF11F5801F19D48B420E
:1057A00070479B4270471CF5801F08D5BCF5801FD1
:1057B000F7D5994218BF704708BF904270474FF421
:1057C000001C1CEB430F38BF1CEB410F01D2994268
:1057D00070470FB40CBC03BCFFF7C1BE91EA030FC6
:1057E00010B581F000413FF537AC83F0004300F085
:1057F000D5B800002DE9F04101F5801CBCF5001F73
:10580000C0F2A9804FEA115C21EA0C510CF1FD0CA9
:1058100041F480115FEA5C0C0CF5C07C01D34000C0
:10582000494130A4890241EA905187028E0E0A0C48
:10583000A45D04FB04F602FB06F6C6F14046A4FB99
:105840000662F60D46EA422606FB06F4A4FB012397
:105850005242C3F1404338BF5B1EA6FB0242002404
:10586000E6FB0324D20B42EA4446A6FB0623A1FB37
:1058700002E2A3FB07E4E3FB61426442C2F1404E53
:1058800038BFAEF1010EA6FB04234FF00002E6FB89
:105890000E32A2FB03463400E2FB6264A1FB06E683
:1058A000A4FB07E8E4FB61687642C8F1405838BFC2
:1058B000A8F10108A2FB06E4A3FB08E5E2FB68549B
:1058C000A1FB05E6A7FB04E8E1FB648618F12005CF
:1058D00056F10006A809A8F11B08B10908F03F0815
:1058E000B8F10A0F40EA86601CD901EB0C51BDE803
:1058F000F08100BFFCF5EEE8E2DDD8D3CFCBC7C323
:10590000C0BDB9B6B4B1AEACA9A7A5A3A19F9D9BDC
:105910009A9896959392908F8D8C8B89888786859F
:1059200084838281A0FB006800FB01F208EB42083F
:10593000B8EB872807D5341858EB0104D5D5401C9F
:1059400051F10001D1E7341A78EB0104CDD4401EA7
:1059500071F10001C9E75FEA4C0C5FEA9C5C0DD174
:1059600005D34FF0000001F00041BDE8F081BDE833
:10597000F04170B5FFF7A8FE6DDBFFBEBDE8F0415A
:105980004FF00000004970470000F87F10B591EA21
:10599000030F48BF83F000433FF55EAB841A71EB01
:1059A000030C07D212198CF0004C43EB0C03001BC4
:1059B00061EB0C01DFF8A4E14FEA1154A4EB135C96
:1059C0001EEA430F18BF9EEA445F00F0B08023EA4E
:1059D0006E03524221EA0451C3EB6E0338BF5B1ED3
:1059E000DCF1200E25D322FA0CFE10EB0E0043FA58
:1059F0000CFE41EB0E01CCF1200E03FA0EFE10EB73
:105A00000E0051F10001CCF1200E29D412FA0EF251
:105A100001EB0451BDE8104058BF7047401C1CBF4B
:105A2000B2F1004F704700280CBF491C20F0010064
:105A3000704712EB020E43EB030218BF4FF0010E4A
:105A40004EEA4202ACF1200CDCF11E0E54D943FAAE
:105A50000CFE10EB0E0051F1FF31CCF11E0ED5D52E
:105A60000EF1010E12FA0EFE404141EB010101EB75
:105A7000445C5FEA5C5C10D910EBDE7001EB045112
:105A800038BFBEF1004FBDE8104018BF7047002876
:105A90000CBF491C20F00100704730D24FEAD42CD3
:105AA00011F5001124F400641BD0B1FA81F20B3A15
:105AB000A41AA41ED2F12003914030FA03F3194333
:105AC000904001EBCC71002C01EB0451BDE810407B
:105AD000A8BF704701F1C0414FF0000001F0004144
